:020000040000FA
:1000000020E6A0E0B0E601C01D92A331B207E1F7FF
:1000100000D0CDB7DEB711241124809140008111AA
:100020000BC098ED21E094BF2093410080934000E5
:100030008CBB0C94001006C083FDF8CF982F9573ED
:100040009923A1F38AE00E94F0008FE00E949200C1
:1000500098E0B92E1A82BE016F5F7F4FCE010296E3
:100060000E94AD008C018A818823A1F38FEF0E944A
:10007000AA0099818A81A895823069F1833009F4B8
:100080004BC0813009F04CC0F8018181C82EC69464
:10009000D12C4601FFEF8F1A9F0A8DE984BFB092E1
:1000A0000010E12C80E2F82E00E010E06FEF7FEF0F
:1000B000C7010E94F9000F5F1F4F9EEFF91A081544
:1000C0001905A0F380E0EDE9E4BF8093001081E022
:1000D0000E94AA00BFCF9A30D9F7F801E190F190C1
:1000E0008F01FDE9F4BF80930010470188E0880E7E
:1000F000911CF801619171918F01C7010E94F90073
:10010000F2E0EF0EF11CE814F90499F780E09DE9A4
:1001100094BF80930010DBCF88E00E94F000FFCFF7
:1001200082E0D6CF1092016010920060E0E0F9E02A
:1001300090819083880F84878185806881878185FD
:1001400080648187818580628187818581608187E4
:1001500080E00895809300600895DC01FB018091A8
:100160000B0986FF0AC080FF20C081FF03C091E019
:100170009093126093E090930A0987FF13C081FF68
:1001800020C090911260911102C084FD08C01092AD
:10019000126080910D098091006080930D0983E0C9
:1001A00080930A0983E090E6089590910160992375
:1001B00009F3209102602C9391509083109201607A
:1001C000D9CF80910D09E0910160E03140F791E0D5
:1001D0009E0F90930160F0E0EE5FFF498083DFCFD8
:1001E0009091010190FDFCCF98ED94BF80930001A8
:0C01F00008950B01FC01E895112408950E
:102000000C9448100C9465100C9465100C94651099
:102010000C9465100C9465100C9465100C9465106C
:102020000C9465100C9465100C9465100C9465105C
:102030000C9465100C9465100C94D7220C94032317
:102040000C9465100C9465100C941E1E0C94651075
:102050000C9465100C9465100C9465100C9465102C
:102060000C9465100C9465100C946D120C94651012
:102070000C9465100C94E41C0C9465100C94651081
:102080000C9465100C9465100C9465100C946510FC
:1020900011241FBECFEFCDBFDFE7DEBF14E6A0E007
:1020A000B0E6E8E1F5E502C005900D92A231B10776
:1020B000D9F728E6A2E1B4E601C01D92A638B2071E
:1020C000E1F70E94E91F0C9436240C9400108091D3
:1020D0001864811104C091E090931864089584E01D
:1020E0000895DC0180911864811509F453C0F894B7
:1020F0008091B00085608093B0008091B0008068CE
:102100008093B00080910206809302068C91811129
:1021100029C080910006809300061196EC91E25050
:1021200090E0E43520F4F0E0E15FFF499081809198
:102130000806892B8093080680910006809300068C
:1021400080910C06816080930C0680910B06816063
:1021500080930B068091000681608093000678943E
:1021600080E008958130C9F68091000680628093F6
:1021700000061296EC911297E25090E0E43520F4BC
:10218000F0E0E15FFF49908180910906892B8093FF
:102190000906C3CF84E00895CF92DF92EF92FF92B9
:1021A000CF93DF93CDB7DEB72997CDBFDEBFCE018A
:1021B00001960E94FB21CE80DF80E884F98420E034
:1021C00030E0A901C701B6010E94E824811108C0CE
:1021D0008AE0C82E87EDD82E83E2E82E8DE3F82E14
:1021E000C701B6012996CDBFDEBFDF91CF91FF9029
:1021F000EF90DF90CF9008958F929F92AF92BF9211
:10220000CF92DF92EF92FF92CF93C0911B64C111E6
:102210002CC081E080931B640E94CC1020E030E051
:1022200048EC52E44B015C01C501B4010E94472611
:102230006B017C01C701B6010E945F257F936F93FC
:1022400083E690E69F938F930E9439240F900F901E
:102250000F900F908C2FCF91FF90EF90DF90CF9049
:10226000BF90AF909F908F900895C4E0F3CF2F92CE
:102270003F924F925F926F927F928F929F92AF9216
:10228000BF92CF92DF92EF92FF920F931F93CF9363
:10229000DF93CDB7DEB76D97CDBFDEBF982E8B0134
:1022A00081111AC06093196470931A646D96CDBF42
:1022B000DEBFDF91CF911F910F91FF90EF90DF90E4
:1022C000CF90BF90AF909F908F907F906F905F90D6
:1022D0004F903F902F900895A0901964B0901A6489
:1022E000A114B10449F48EE890E69F938F930E9465
:1022F00039240F900F90DACF682F70E080E090E0E3
:102300000E94972520E030E040E251E46A877B8715
:102310008C879D876A857B858C859D850E94ED24B1
:102320006A877A8F8B8F892EB80180E090E00E94B7
:1023300095251B018C8F9D8FB50180E090E00E9458
:1023400095252B013C01A30192012E863F868C8DA1
:10235000888B9D8D998B6E857F85888999890E9450
:102360007B246B017C01A70196018A858A8B9A8D5B
:102370009B8B8B8D8C8B8D8A6A897B898C899D89BF
:102380000E94ED246B017C01E894F7F820E030E036
:102390004AE754E4C701B6010E9447266E8B7F8B43
:1023A000888F998F6E897F89888D998D0E945F258E
:1023B0007F936F931F929F92BF92AF921F930F9341
:1023C0008CEB90E69F938F930E94392410921964AE
:1023D00010921A64CE0101960E94FB21CE82DF8208
:1023E000E886F986CE0101960E940B22CDBFDEBFA2
:1023F0005DCF2F923F924F925F926F927F928F921A
:102400009F92AF92BF92CF92DF92EF92FF920F9383
:102410001F93CF93DF93CDB7DEB72D97CDBFDEBF30
:102420008B01382E292E20E030E0A9016A871B8716
:102430008C879D876A857B858C859D850E94E82495
:1024400081111EC080E191E69F938F930E943924F1
:102450000F900F902D96CDBFDEBFDF91CF911F91D2
:102460000F91FF90EF90DF90CF90BF90AF909F9033
:102470008F907F906F905F904F903F902F90089536
:1024800020E030E04AE754E42801632C722CC301B9
:10249000B2010E9447264B015C01C501B4010E94B4
:1024A0005F257F936F9384E491E69F938F930E94BF
:1024B0003924CE0101960E94FB216801E32CF22C05
:1024C000CE82DF82E886F986CE0101960E940B2239
:1024D0000F900F900F900F90BDCF1F920F920FB6DD
:1024E0000F9211242F933F934F935F936F937F939A
:1024F0008F939F93AF93BF93CF93EF93FF9380916D
:102500000D0680FF24C0C1E0C0930D064091100667
:102510005091110680913666909137669C012F5F2D
:102520003F4F2093366630933766880F991FFC0122
:10253000E85CF949408351832115314041F40E9400
:102540009323C09352681092366610923766FF91BB
:10255000EF91CF91BF91AF919F918F917F916F91AB
:102560005F914F913F912F910F900FBE0F901F9051
:102570001895CF93C0915368C1111EC081E080931C
:102580005368F89480915304886080935304809139
:10259000530482608093530478940E94FC100E943C
:1025A000CC1060932F667093306680933166909361
:1025B00032668C2FCF910895C4E0FBCFCF92DF928B
:1025C000EF92FF92CF93DF9320E030E048EC52E4AB
:1025D0006091406870914168809142689091436831
:1025E0000E9447266B017C01C701B6010E94662547
:1025F000CB01DF91CF91FF90EF90DF90CF900895C6
:10260000CF92DF92EF92FF92CF93DF9320E030E002
:1026100048EC52E4609138687091396880913A686A
:1026200090913B680E9447266B017C01C701B6016F
:102630000E946625CB01DF91CF91FF90EF90DF9054
:10264000CF900895CF92DF92EF92FF92CF93DF93D6
:1026500020E030E048EC52E460913C6870913D68C5
:1026600080913E6890913F680E9447266B017C01F3
:10267000C701B6010E946625CB01DF91CF91FF9083
:10268000EF90DF90CF9008952F923F924F925F92FC
:102690006F927F928F929F92AF92BF92CF92DF9272
:1026A000EF92FF920F931F93CF93DF93CDB7DEB7D7
:1026B000CA5FD109CDBFDEBF80915368811509F48F
:1026C00097C780904C6890904D68A0904E68B090ED
:1026D0004F6824EF820E21E0921EA11CB11C0E94C3
:1026E000A02386169706A806B90668F481E08093B1
:1026F00051680E94A02360934C6870934D6880934A
:102700004E6890934F6880915268811118C080E0A4
:10271000C650DF4FCDBFDEBFDF91CF911F910F912C
:10272000FF90EF90DF90CF90BF90AF909F908F90F1
:102730007F906F905F904F903F902F9008951092F0
:1027400052688EE196E60E945B1B08E316E658E3AA
:10275000A52E58E6B52E612C712CCE01019623963C
:102760008EAF9FAF2397D8018D919D918D01898365
:102770009A83BE016F5F7F4F8EE196E60E94601BD9
:1027800081110CC0F301EE0FFF1FE25EFB4989814E
:102790009A8180839183F30131963F01A016B1069F
:1027A00011F780911E6490911F642EE134E6C950A8
:1027B000DF4F28833983C75FD040F9019C0160E077
:1027C00070E06616770609F0BFC42093486830931E
:1027D000496880934A6890934B68821B930B80935F
:1027E0004668909347683EE1232E34E6332E00E09E
:1027F00010E0812C912CA12CB12C6016710609F0EF
:10280000B0C4B301072C000C880B990B0E949725CC
:10281000162F072F382E292EC62ED72EE82EF92E4A
:10282000A701960160968FAE609761969FAE619703
:102830006296AFAE62976396BFAE639763966CADD8
:102840007DAD8EAD9FAD63970E94ED2464966FAF12
:10285000649765967FAF659766968FAF6697679624
:102860009FAF679767966CAD7DAD8EAD9FAD679757
:102870000E9466252B01C750DF4F6883C95FD04097
:10288000C650DF4F7883CA5FD040C750DF4FE88122
:10289000F981C95FD040E0934468F09345682EE128
:1028A000822E24E6922EE12CF12CA12CB12CC12CED
:1028B000D12C6E147F0409F087C4A4961FAFA4978F
:1028C000A5960FAFA597A6963FAEA697A7962FAE53
:1028D000A797A7962CAD3DAD4EAD5FADA797A89637
:1028E000AFAEA897A996BFAEA997AA96CFAEAA9762
:1028F000AB96DFAEAB97AB966CAD7DAD8EAD9FADBD
:10290000AB970E94ED24AC966FAFAC97AD967FAFBE
:10291000AD97AE968FAFAE97AF969FAFAF97AF968E
:102920006CAD7DAD8EAD9FADAF970E94BA26209164
:102930002F66309130664091316650913266E09654
:102940006FAFE097E1967FAFE197E2968FAFE297A6
:10295000E3969FAFE397E3966CAD7DAD8EAD9FADF3
:10296000E3970E94472628966FAF28972C967FAF53
:102970002C9760968FAF609764969FAF6497E496AC
:102980006FAFE497E5967FAFE597E6968FAFE69752
:10299000E7969FAFE797E7968CAD9DADAEADBFAD27
:1029A000E7978093406890934168A0934268B09302
:1029B000436880E42396AEADBFAD23971D928A9500
:1029C000E9F783E000E010E0C12CD12C1301B1E065
:1029D0002B1A3108C214D30408F454C400FD02C0F9
:1029E0000150110980933366009334661093356665
:1029F000033011050CF4F7C57801F1E0EF1AF10886
:102A00009E012F5F3F4F29015901612C712C812CB0
:102A1000912CC12CD12C3FEFC31AD30AF501208190
:102A200031814281538184E0A80EB11C648175819B
:102A3000868197810E947B24C156DF4F6883CF59DE
:102A4000D040C056DF4F7883C05AD040CF55DF4FBB
:102A50008883C15AD040CE55DF4F9883C25AD040A8
:102A6000C156DF4F288139814A815B81CF59D040DF
:102A7000CD55DF4F6882C35AD040CC55DF4F7882A6
:102A8000C45AD040CB55DF4F8882C55AD040CA5572
:102A9000DF4F9882C65AD040CD55DF4F688179818B
:102AA0008A819B81C35AD0400E947C243B014C0107
:102AB000CE14DF040CF4AFCFC955DF4F6883C75A7B
:102AC000D040C855DF4F7882C85AD040C755DF4F35
:102AD0008883C95AD040C655DF4F9882CA5AD04021
:102AE000C955DF4F288139814A815B81C75AD0405F
:102AF000C555DF4F6883CB5AD040C455DF4F78822D
:102B0000CC5AD040C355DF4F8883CD5AD040C255F0
:102B1000DF4F9882CE5AD040C555DF4F688179810A
:102B20008A819B81CB5AD0400E947C245B016C013E
:102B3000B701FF0C880B990B0E949725C155DF4FF9
:102B40006883CF5AD040C055DF4F7883C05BD040F8
:102B5000CF54DF4F8883C15BD040CE54DF4F988382
:102B6000C25BD040C155DF4F288139814A815B81EA
:102B7000CF5AD040CD54DF4FA882C35BD040CC5455
:102B8000DF4FB882C45BD040CB54DF4FC882C55BF7
:102B9000D040CA54DF4FD882C65BD040CD54DF4FFF
:102BA000688179818A819B81C35BD0400E94ED243A
:102BB0005B016C01C954DF4F6883C75BD040C854C8
:102BC000DF4FB882C85BD040C754DF4F8883C95BF2
:102BD000D040C654DF4FD882CA5BD040C954DF4FC3
:102BE000288139814A815B81C75BD04060E070E019
:102BF00080E89FE30E94ED24609338687093396801
:102C000080933A6890933B68612C712C812C912CB5
:102C1000E12CF12CF20181919191A191B1912F01BF
:102C200027968CAF9DAFAEAFBFAF2797B7010F2CE4
:102C3000000C880B990B0E949725C554DF4FA88282
:102C4000CB5BD040C454DF4FB882CC5BD040C35480
:102C5000DF4FC882CD5BD040C254DF4FD882CE5BFD
:102C6000D040C554DF4F288139814A815B81CB5BDD
:102C7000D040C154DF4F6883CF5BD040C054DF4F9A
:102C80007883C05CD040CF53DF4F8883C15CD04095
:102C9000CE53DF4F9883C25CD040C154DF4F688170
:102CA00079818A819B81CF5BD0400E94472620E0BA
:102CB00030E040E05FE3CD53DF4F6883C35CD0403A
:102CC000CC53DF4F7883C45CD040CB53DF4F888335
:102CD000C55CD040CA53DF4F9883C65CD040CD530B
:102CE000DF4F688179818A819B81C35CD0400E94DB
:102CF0004726C953DF4F6883C75CD040C853DF4FB6
:102D00007883C85CD040C753DF4F8883C95CD0400C
:102D1000C653DF4F9883CA5CD040C953DF4F288128
:102D200039814A815B81C75CD04027966CAD7DAD0F
:102D30008EAD9FAD27970E947B24C553DF4F6883DC
:102D4000CB5CD040C453DF4F7883CC5CD040C353BE
:102D5000DF4F8883CD5CD040C253DF4F9883CE5C79
:102D6000D040C553DF4F288139814A815B81CB5CDC
:102D7000D040C153DF4F6882CF5CD040C053DF4F9B
:102D80007882C05DD040CF52DF4F8882C15DD04095
:102D9000CE52DF4F9882C25DD040C153DF4F688171
:102DA00079818A819B81CF5CD0400E947C243B0149
:102DB0004C01FFEFEF1AFF0AE016F10609F02ACFE7
:102DC000B701FF0C880B990B0E949725CD52DF4F5E
:102DD0006883C35DD040CC52DF4F7883C45DD04060
:102DE000CB52DF4F8883C55DD040CA52DF4F9883F6
:102DF000C65DD040CD52DF4F288139814A815B8149
:102E0000C35DD040C952DF4F6882C75DD040C85211
:102E1000DF4F7882C85DD040C752DF4F8882C95DDE
:102E2000D040C652DF4F9882CA5DD040C952DF4FB2
:102E3000688179818A819B81C75DD0400E94ED24A1
:102E4000C552DF4FA882CB5DD040C452DF4FB8825D
:102E5000CC5DD040C352DF4FC882CD5DD040C2525E
:102E6000DF4FD882CE5DD040C552DF4F28813981F7
:102E70004A815B81CB5DD040C152DF4F6883CF5D1B
:102E8000D040C052DF4F7883C05ED040CF51DF4F7B
:102E90008883C15ED040CE51DF4F9883C25ED04060
:102EA000C152DF4F688179818A819B81CF5DD0409B
:102EB0000E94ED2420E030E044EB53E4CD51DF4F9D
:102EC0006883C35ED040CC51DF4F7883C45ED0406E
:102ED000CB51DF4F8883C55ED040CA51DF4F988306
:102EE000C65ED040CD51DF4F688179818A819B8158
:102EF000C35ED0400E944726C951DF4F6883C75E3A
:102F0000D040C851DF4F7883C85ED040C751DF4FF3
:102F10008883C95ED040C651DF4F9883CA5ED040D7
:102F2000C951DF4F88819981AA81BB81C75ED0409A
:102F300080933C6890933D68A0933E68B0933F684F
:102F400020E030E040E85EE328969FAD2897C55129
:102F5000DF4F9883CB5ED0402C96AFAD2C97C451F9
:102F6000DF4FA883CC5ED0406096BFAD6097C35161
:102F7000DF4FB883CD5ED0406496EFAD6497C25109
:102F8000DF4FE883CE5ED040C551DF4F6881798145
:102F90008A819B81CB5ED0400E94E82487FF70C06D
:102FA00020E030E048EC52E42896FFAD2897C1516C
:102FB000DF4FF883CF5ED0402C968FAD2C97C05159
:102FC000DF4F8883C05FD04060969FAD6097CF5041
:102FD000DF4F9883C15FD0406496AFAD6497CE5009
:102FE000DF4FA883C25FD040C151DF4F6881798134
:102FF0008A819B81CF5ED0400E944726CD50DF4F13
:103000006883C35FD040CC50DF4F7883C45FD0402B
:10301000CB50DF4F8883C55FD040CA50DF4F9883C5
:10302000C65FD040CD50DF4F688179818A819B8116
:10303000C35FD0400E945F257F936F9385E791E641
:103040009F938F930E943924109240681092416898
:103050001092426810924368109238681092396852
:1030600010923A6810923B6810923C6810923D684A
:1030700010923E6810923F680F900F900F900F9043
:10308000809150688115A1F0109250686091446859
:103090007091456880912E660E9437110E94CC1075
:1030A00060932F667093306680933166909332669A
:1030B00080911C6490911D64019680931C64909390
:1030C0001D649F938F938EEA91E69F938F930E9446
:1030D0003924809145688F93809144688F938091C3
:1030E00047688F93809146688F93809149688F934A
:1030F000809148688F9380914B688F9380914A6844
:103100008F938EEC91E69F938F930E9439240E94B7
:103110002213F82EE92E0E940013182F092F0E9467
:10312000DE12EF92FF920F931F939F938F9381E094
:1031300092E69F938F930E94392489E693E60E943A
:103140004F24CDBFDEBFE3CA41915191841795074B
:1031500008F4CA014217530708F49A016F5F7F4FC2
:1031600030CBD1016D917D911D0180E090E00E94F6
:10317000952528966FAF289729967FAF29972A968D
:103180008FAF2A972B969FAF2B972B962CAD3DADEB
:103190004EAD5FAD2B972C968FAE2C972D969FAE94
:1031A0002D972E96AFAE2E972F96BFAE2F972F96B8
:1031B0006CAD7DAD8EAD9FAD2F970E947C244B01F1
:1031C0005C010F5F1F4F19CBD4016D917D914D01B3
:1031D00064197509072E000C880B990B0E9497251E
:1031E00024966FAF249725967FAF259726968FAFAD
:1031F000269727969FAF279727962CAD3DAD4EADCE
:103200005FAD279768966FAF689769967FAF6997AC
:103210006A968FAF6A976B969FAF6B976B966CAD04
:103220007DAD8EAD9FAD6B970E9447266C966FAFBC
:103230006C976D967FAF6D976E968FAF6E976F960A
:103240009FAF6F976F962CAD3DAD4EAD5FAD6F9755
:10325000A096AFAEA097A196BFAEA197A296CFAE13
:10326000A297A396DFAEA397A3966CAD7DAD8EAD6E
:103270009FADA3970E947C245B016C01BFEFEB1A0A
:10328000FB0A17CBC950DF4FE881F981C75FD040F7
:10329000E190F190C950DF4FE883F983C75FD040D8
:1032A000B70164197509A080B18095012419350909
:1032B0000031110509F492CB8111BAC037FFB4C0B7
:1032C0004801FFEF8F1A9F0A000F111F000F111FF7
:1032D0009E012F5F3F4F200F311F25962EAF3FAF2E
:1032E000259780E090E00E9495253B018C01EA182B
:1032F000FB08B70180E090E00E949525E8966FAF4B
:10330000E897E9967FAFE997EA968FAFEA97EB9651
:103310009FAFEB97EB962CAD3DAD4EAD5FADEB9710
:10332000EC966FAEEC97ED967FAEED97EE960FAF05
:10333000EE97EF961FAFEF97EF966CAD7DAD8EAD2C
:103340009FADEF970E94ED247B018C01B6010D2CFF
:10335000000C880B990B0E949725C158DF4F68839A
:10336000CF57D040C058DF4F7883C058D040CF5798
:10337000DF4F8883C158D040CE57DF4F9883C25863
:10338000D040C158DF4F288139814A815B81CF57B6
:10339000D040CD57DF4FE882C358D040CC57DF4FE5
:1033A000F882C458D040CB57DF4F0883C558D0406F
:1033B000CA57DF4F1883C658D040CD57DF4F6881BA
:1033C00079818A819B81C358D0400E947C2420E06F
:1033D00030E04AEF54E4C957DF4F6883C758D04004
:1033E000C857DF4F7883C858D040C757DF4F88830E
:1033F000C958D040C657DF4F9883CA58D040C957E4
:10340000DF4F688179818A819B81C758D0400E94B3
:10341000ED242596AEADBFAD25976D937D938D932D
:103420009C931397840183E0EFEFCE1ADE0AD2CA91
:10343000813029F466307105BCF380E0F5CF82302D
:1034400009F0CBC0121613067CF74801BFEF8B1AA8
:103450009B0A000F111F000F111FFE013196E00F94
:10346000F11F2596EEAFFFAF259780E090E00E9418
:1034700095253B018C01EA18FB08B70180E090E03C
:103480000E949525C557DF4F6883CB58D040C4575D
:10349000DF4F7883CC58D040C357DF4F8883CD5857
:1034A000D040C257DF4F9883CE58D040C557DF4F2A
:1034B000288139814A815B81CB58D040C157DF4F89
:1034C0006882CF58D040C057DF4F7882C059D04073
:1034D000CF56DF4F0883C159D040CE56DF4F1883F7
:1034E000C259D040C157DF4F688179818A819B8161
:1034F000CF58D0400E94ED247B018C01B6010D2CE9
:10350000000C880B990B0E949725CD56DF4F6883DE
:10351000C359D040CC56DF4F7883C459D040CB56E6
:10352000DF4F8883C559D040CA56DF4F9883C659AC
:10353000D040CD56DF4F288139814A815B81C35904
:10354000D040C956DF4FE882C759D040C856DF4F38
:10355000F882C859D040C756DF4F0883C959D040B8
:10356000C656DF4F1883CA59D040C956DF4F68810D
:1035700079818A819B81C759D0400E947C2420E0B8
:1035800030E04AEF54E4C556DF4F6883CB59D04052
:10359000C456DF4F7883CC59D040C356DF4F888361
:1035A000CD59D040C256DF4F9883CE59D040C55632
:1035B000DF4F688179818A819B81CB59D0400E94FD
:1035C000ED242596AEADBFAD25976D937D938D937C
:1035D0009C931397840181E027CF6B3F7F4F0CF0C2
:1035E00023CF82E021CF60E070E080E090E084CCE7
:1035F00084E08EC8CF93DF93EC0180911C6490919E
:103600001D64888399830E94DE128A839B830E94B3
:1036100022138C839D83DF91CF91089581E0809365
:1036200000600895109200600895809100608115F7
:1036300041F080915168811521F0109251680C94ED
:1036400082230895CF93C82F0E94151BC0932E6626
:1036500081E080935068CF9108955F934F933F939B
:103660002F931F928F9381E492E69F938F930E94F2
:1036700039248DB79EB708968DBF9EBFFFCF80912E
:103680005468811104C091E090935468089584E0D7
:10369000089580915468811561F080911002826ACA
:1036A000809310028091280281608093280280E03C
:1036B000089584E00895FC011686178680E0089539
:1036C0002F923F924F925F926F927F928F929F9232
:1036D000AF92BF92CF92DF92EF92FF920F931F9320
:1036E000CF93DF93CDB7DEB7E897CDBFDEBFFC0148
:1036F00069A77AA726853785A9A5BAA50D911C913A
:10370000C90167E070E00E949F29DC01AA0FBB1F7E
:10371000AE0FBF1F0D931C932F5F3F4F2687378738
:1037200084E02730310508F4DFC08EE0DE01119619
:1037300001900D928A95E1F7B6E0BBA71CA61DA6E5
:103740001EA61FA618AA19AA1AAA1F86188A198ABD
:103750001A8A1B8A1C8A1D8A1E8AEF81F885EBABA8
:10376000FCAB8F859889880F991FFE013196E80F71
:10377000F91FEFA3F8A72F85388949895A896B89E2
:103780007C898D899E89A1E00E940C2A2F8B388F1D
:10379000498F5A8F6B8F7C8F8D8F9E8FFF85FF8F08
:1037A000B889B8A3E989E9A3FA89FAA3BB89BBA3BD
:1037B000EC89ECA3FD89FDA3BE89BEA32BA43CA488
:1037C0004DA45EA46FA478A889A89AA8EFA1F8A533
:1037D00021913191EFA3F8A72DAB3EABEBA9FCA94A
:1037E0002E173F070CF496C0F101EE0FFF1F9E014C
:1037F0002F5F3F4FE20FF31F8F0102501109D801D5
:1038000012960D90BC91A02DAFABB8AF2BA93CA9DF
:103810002A173B070CF4A4C09101A201B301C40113
:10382000AF8CB8A0C9A0DAA0EBA0FCA00DA11EA18E
:103830000E94182A08F4A1C08FA198A502979D01A3
:10384000DC012D933C938DA99EA9808391839101E6
:10385000C401AFEF0E940C2A19012A013B014C015F
:10386000AF88B88CC98CDA8CEB8CFC8C0D8D1E8DDE
:103870000E94182A08F04EC09101A201B301C401B0
:10388000A3E00E94212A08F489C02F89388D498D30
:103890005A8D6B8D7C8D8D8D9E8DA4E00E94212A8A
:1038A00040F02BA63CA64DA65EA66FA678AA89AAD4
:1038B0009AAA2F85388949895A896B897C898D898B
:1038C0009E89ABA4BCA4CDA4DEA4EFA4F8A809A94A
:1038D0001AA90E94182A08F440CF8F819885A9A5BB
:1038E000BAA58D939C9380E0E896CDBFDEBFDF91B3
:1038F000CF911F910F91FF90EF90DF90CF90BF90ED
:10390000AF909F908F907F906F905F904F903F907F
:103910002F9008952F89388D498D5A8D6B8D7C8D10
:103920008D8D9E8DA1E00E940C2A2F8B388F498FA0
:103930005A8F6B8F7C8F8D8F9E8F2F8D38A149A1D1
:103940005AA16BA17CA18DA19EA10E940C2A2F8F50
:1039500038A349A35AA36BA37CA38DA39EA336CF00
:103960009101A201B301C401AFEF0E940C2A190119
:103970002A013B014C01F8013FCFBF8DBF8BE8A16D
:10398000E88FF9A1F98FBAA1BA8FEBA1EB8FFCA157
:10399000FC8FBDA1BD8FEEA1EE8F6ECF2F89388D2C
:1039A000498D5A8D6B8D7C8D8D8D9E8DA4E00E94EE
:1039B000212A08F092CF2F87388B498B5A8B6B8B3B
:1039C0007C8B8D8B9E8B75CF1F920F920FB60F92B3
:1039D00011242F933F934F935F936F937F938F9314
:1039E0009F93AF93BF93EF93FF938091490483FF1D
:1039F00005C088E0809349040E94151B809149040A
:103A000082FF05C084E0809349040E942124FF9135
:103A1000EF91BF91AF919F918F917F916F915F9146
:103A20004F913F912F910F900FBE0F901F901895BF
:103A300080915568811104C091E090935568089574
:103A400084E0089590915568911509F461C0282F7C
:103A50002F7082958F70833009F440C030F4811547
:103A6000A9F0823039F180E008958530E1F781E0F6
:103A700090E001C0880F2A95EAF7611509F442C069
:103A80009091A104892B8093A104EDCF81E090E077
:103A900001C0880F2A95EAF7611531F09091010471
:103AA000892B80930104DFCF90910204892B8093AE
:103AB0000204D9CF81E090E001C0880F2A95EAF78F
:103AC000611531F090914104892B80934104CBCF53
:103AD00090914204892B80934204C5CF81E090E00D
:103AE00001C0880F2A95EAF7611531F090916104C1
:103AF000892B80936104B7CF90916204892B8093C6
:103B00006204B1CF9091A204892B8093A204ABCF21
:103B100084E0089590915568911599F1982F9F70C0
:103B200082958F70833021F130F4811579F08230E5
:103B3000B1F080E008958530E1F721E030E001C088
:103B4000220F9A95EAF72093A504F3CF21E030E005
:103B500001C0220F9A95EAF720930504EACF21E0ED
:103B600030E001C0220F9A95EAF720934504E1CF97
:103B700021E030E001C0220F9A95EAF72093650416
:103B8000D8CF84E0089590915568911599F1982FB8
:103B90009F7082958F70833021F130F4811579F018
:103BA0008230B1F080E008958530E1F721E030E027
:103BB00001C0220F9A95EAF72093A604F3CF21E0E3
:103BC00030E001C0220F9A95EAF720930604EACF6D
:103BD00021E030E001C0220F9A95EAF720934604D5
:103BE000E1CF21E030E001C0220F9A95EAF720935F
:103BF0006604D8CF84E00895282F2F7082958F70A7
:103C00008330C9F030F4811549F0823089F080E0CA
:103C100008958530E1F78091A80402C080910804DE
:103C200090E002C0959587952A95E2F781700895F6
:103C300080914804F5CF80916804F2CF1F920F92D3
:103C40000FB60F9211241F932F933F934F935F93BF
:103C50006F937F938F939F93AF93BF93EF93FF9354
:103C6000CF93DF930F92CDB7DEB710910B0916FFFC
:103C70000AC010FF48C011FF03C081E080935A685A
:103C800083E080930A0917FF1BC011FF4AC080918F
:103C90005A68811102C014FD42C010925A68E09126
:103CA0005668F0915768309741F060910D0941E0F6
:103CB000CE0101960995811579F187E080930A0973
:103CC00088E692E613FD04C012FF08C080E892E681
:103CD0009F938F930E9439240F900F900F90DF9144
:103CE000CF91FF91EF91BF91AF919F918F917F9174
:103CF0006F915F914F913F912F911F910F900FBE48
:103D00000F901F901895E0915868F091596830977E
:103D100009F4B6CF0995B4CF898180930D0983E06A
:103D2000CDCFE0915668F09157683097C1F360911C
:103D30000D0940E080E090E009958111BECFEFCF02
:103D4000982F80915B6881112BC021E020935B68E4
:103D5000F8942091000920930009990F90930C0981
:103D600090910E09916090930E0990910E099C61BB
:103D700090930E0990910909906890930909909188
:103D800009099064909309099091090990629093B0
:103D9000090990910909916090930909789408950F
:103DA00084E0089520915B68211551F08093586854
:103DB00090935968609356687093576880E00895AF
:103DC00084E00895805F08951F93CF93DF93EC0103
:103DD00080916868811521F0813061F084E05AC0DB
:103DE00089E0411157C081E08093686860936968F9
:103DF00080E050C0411509F451C01091696881E01C
:103E0000810F80936968EAEFE10FEC3108F03FC061
:103E1000F0E0E959F54D0C94D52981E08883E8CF8D
:103E200087E0FCCF1882E4CF81E3F8CF0E94D32251
:103E3000F5CF0E94CD22F2CF80E698E60E94FA1AD2
:103E400080916368EBCF80916268E8CF809165686C
:103E5000E5CF80916468E2CF0E94AC21DFCF0E9461
:103E6000CC1060935C6870935D6880935E689093FB
:103E70005F68ECE1F0E0E11BF109E45AF749808169
:103E8000CDCF80916168CACF80916068C7CF8FEF36
:103E9000888386E0DF91CF911F91089580916768B4
:103EA00081119CCF8091696891E0980F9093696827
:103EB00080936768609366689BCF8091686881157E
:103EC00021F0813059F084E008958AE992E69F93C9
:103ED0008F930E9439240F900F90F5CF109268684D
:103EE00080E0089580916A68811109C081E0809323
:103EF0006A6864EE7EE18DE59FE10C94D21E84E059
:103F00000895CF93DF93D0916768D11521F1C091C7
:103F100066681F92CF931F92CF931F92DF931F92D9
:103F2000DF938BEB92E69F938F930E9439248DB79A
:103F30009EB70A968DBF9EBFE9EEED0FE930E0F522
:103F4000F0E0ED57F54D0C94D529C11539F00E94DC
:103F5000592110926768DF91CF9108950E948321C3
:103F6000F8CFC115B1F381E080936B68F2CFC093B5
:103F70005F68EFCFC0935E68ECCFC0935D68E9CF18
:103F8000C0935C6860915C6870915D6880915E68C8
:103F900090915F680E94F911DCCF8C2F0E94221B48
:103FA000D8CF0E946722D5CFC11519F00E940E1BF1
:103FB000D0CF0E94121BCDCF1F92DF9381EF92E6EC
:103FC0009F938F930E9439240F900F900F900F9022
:103FD000C0CF00D00F92CDB7DEB769EA80E890E09D
:103FE0000E94512A8091650084FFFCCF63E080E647
:103FF00090E00E94512A8091650080FDFCCF0E94D4
:10400000181D811541F02AE133E640E550E060E0FB
:1040100070E00E942D1B60E072EC81E090E00E9455
:10402000A923811541F02AE133E641E550E060E043
:1040300070E00E942D1B0E940324811541F02AE1AB
:1040400033E642E550E060E070E00E942D1B2FEF68
:1040500031EE84E0215030408040E1F700C00000A4
:1040600085E293E69F938F930E9439240E94BE219C
:104070000F900F90811541F02AE133E645E550E0BD
:1040800060E070E00E942D1B0E944421811541F0E8
:104090002AE133E646E550E060E070E00E942D1B27
:1040A0000E943122811541F02AE133E647E550E0D4
:1040B00060E070E00E942D1B0E940B24811541F0EE
:1040C0002AE133E648E550E060E070E00E942D1BF5
:1040D0000E946710811541F02AE133E649E550E07E
:1040E00060E070E00E942D1B0E943623811541F094
:1040F0002AE133E64AE550E060E070E00E942D1BC3
:104100000E946723811541F02AE133E64BE550E038
:1041100060E070E00E942D1B0E943F1B811541F062
:104120002AE133E64CE550E060E070E00E942D1B90
:104130000E94B912811541F02AE133E64DE550E0C5
:1041400060E070E00E942D1B0E94491B811541F028
:104150002AE133E64FE550E060E070E00E942D1B5D
:10416000198287E08A8387E38B83CE0101960E94C0
:104170007110811541F02AE133E645E650E060E038
:1041800070E00E942D1B9FEF21EE34E09150204003
:104190003040E1F700C000000E946722811541F025
:1041A0002AE133E649E650E060E070E00E942D1B12
:1041B0000E94CD221F928F938BE693E69F938F935D
:1041C0000E9439240E94D3221F928F9389E893E69C
:1041D0009F938F930E9439240E94C922082F0E9426
:1041E000E21E182F1F920F931F920F938AEA93E6F5
:1041F0009F938F930E9439241F921F931F921F93A6
:1042000089EC93E69F938F930E943924812F0E941B
:10421000A01ECDBFDEBF811541F02AE133E641E7A4
:1042200050E060E070E00E942D1B0E94721F81151B
:1042300041F02AE133E642E750E060E070E00E949E
:104240002D1B0E945A23811541F02AE133E644E7F1
:1042500050E060E070E00E942D1B80916B6881153A
:1042600071F03FEF81EE94E0315080409040E1F7F3
:1042700000C0000061E081E490E00E94512A0E94A9
:1042800044130E94811FE9CFCF93C0916C68C11184
:104290000EC081E080936C6861E081E20E94221D83
:1042A00061E080E20E94221D8C2FCF910895C4E02E
:1042B000FBCFCF93DF93CDB7DEB72997CDBFDEBF5E
:1042C00080916C688115E9F081E20E948A1D8FE37C
:1042D0009CE90197F1F700C0000081E20E94C31D34
:1042E000CE0101960E94FB2181E08D83CE010196D3
:1042F0000E940B2280E02996CDBFDEBFDF91CF91D7
:10430000089584E0F8CFCF93DF93CDB7DEB7299738
:10431000CDBFDEBF80916C688115E1F080E20E9424
:104320008A1D8FE39CE90197F1F700C0000080E24D
:104330000E94C31DCE0101960E94FB211D82CE0169
:1043400001960E940B2280E02996CDBFDEBFDF914F
:10435000CF91089584E0F8CFCF93DF93CDB7DEB748
:104360002997CDBFDEBFCE0101960E94FB218D8132
:104370002996CDBFDEBFDF91CF910895CF93809175
:104380007668C4E0811134C081E0809376688091C2
:104390000210C82FC27081FDFACF49E050E060E002
:1043A00070E08DE698E60E944D2A80916D689091AC
:1043B0006E68A0916F68B09170688E3F9A4CAD4A5C
:1043C000BB4AB1F08EEF9AECADEABBEA80936D6820
:1043D00090936E68A0936F68B09370681092716844
:1043E00010927268109273681092746810927568D7
:1043F0008C2FCF910895DC0180917668811549F06A
:1044000089E0EDE6F8E601900D928A95E1F780E00B
:10441000089584E008951F93CF93DF93D82FC92F79
:104420008091766814E08115B9F080910210182F00
:10443000127081FDFACF49E050E060E070E08D2F0E
:104440009C2F0E942D2A89E0ED2FFC2FADE6B8E6C7
:1044500001900D928A95E1F7812FDF91CF911F9105
:104460000895EF92FF920F931F93CF93DF93C09124
:104470007968C1112AC081E08093796860E086E0A4
:104480000E94221D60E085E00E94221D60E084E021
:104490000E94221D0EEE13E682EFE82E83E6F82E30
:1044A000F801D1918F0161E08D2F0E94221D8D2F87
:1044B0000E948A1DE016F10699F78C2FDF91CF91AB
:1044C0001F910F91FF90EF900895C4E0F6CF8F9267
:1044D0009F92AF92BF92CF92DF92EF92FF920F9393
:1044E0001F93CF93DF9310927768109278689EEEB7
:1044F000E92E93E6F92EC0E0D0E0AA24A394B12CD3
:1045000081E30E948A1D82E30E948A1D83E30E9448
:104510008A1D84E30E948A1DF70181917F010E9418
:10452000C31D82EF882E83E6982E8E016E01FCE07B
:10453000CF0ED11CF40181914F010E94FC1D81110D
:1045400011C080917768909178689501002E02C023
:10455000220F331F0A94E2F7822B932B8093776804
:10456000909378680C5F1F4F0C151D0519F7219665
:10457000C430D10529F680E0DF91CF911F910F91D2
:10458000FF90EF90DF90CF90BF90AF909F908F9073
:104590000895809177688F7308958091776886FB7E
:1045A000882780F90895809178688F7008951F9208
:1045B0001FB61F9211248F939F93AF93BF93809147
:1045C000060B80FF18C08091060B81608093060B5C
:1045D00080917A6890917B68A0917C68B0917D68A9
:1045E0000196A11DB11D80937A6890937B68A0937A
:1045F0007C68B0937D68BF91AF919F918F911F9020
:104600001FBE1F9018951F920F920FB60F92112484
:104610002F933F934F935F936F937F938F939F93CA
:10462000AF93BF93EF93FF938091160B80FF0DC064
:104630008091160B81608093160B85EF93E69F9314
:104640008F930E9439240F900F90FF91EF91BF91AB
:10465000AF919F918F917F916F915F914F913F911A
:104660002F910F900FBE0F901F90189580917F682B
:1046700081111EC091E090937F68F8942FE73EE38C
:1046800020930C0B30930D0B9091010B9093010B29
:104690009091040B91609093040B9091050B9160A5
:1046A0009093050B9091000B9093000B78940895D4
:1046B00084E0089580917F68811539F08091000B26
:1046C00081608093000B80E0089584E008958091DC
:1046D0007E68811115C091E090937E68F8942FE96F
:1046E0003FE020931C0B30931D0B9091110B909386
:1046F000110B9091100B92609093100B7894089589
:1047000084E0089580917E68811559F010921A0B0B
:1047100010921B0B8091100B81608093100B80E036
:10472000089584E0089580917E68811539F0809124
:10473000100B8E7F8093100B80E0089584E0089525
:1047400060917A6870917B6880917C6890917D68B7
:104750000895CF92DF92EF92FF92CF936B017C018D
:10476000C0918068C11135C081E08093806861E0AC
:1047700086E30E94221DA701960184E0220F331FC9
:10478000441F551F8A95D1F760E070E089E09DE3F2
:104790000E94B3298091E205877E8093E205809193
:1047A000E20580618093E205809126088F7B8093EB
:1047B00026082093280830932908809126088064D1
:1047C000809326088C2FCF91FF90EF90DF90CF90B1
:1047D0000895C4E0F7CF90918068911569F09091A9
:1047E000240895FFFCCF90912408906490932408AE
:1047F0008093220880E0089584E008950E94EB23CE
:1048000080E090E0089581E090E6809314649093B6
:10481000156480E0089580918568811110C091E051
:1048200090938568F8949091520498609093520404
:10483000909152049260909352047894089584E089
:104840000895CF92DF92EF92FF920E94A0236B0116
:104850007C01C0928168D0928268E0928368F09275
:104860008468FF90EF90DF90CF900895F8940C94B7
:10487000652AA0E0B0E0EFE3F4E20C94EB29AE018E
:104880004B5F5F4FFA0161917191AF0180911464A8
:10489000909115640E94FA26E2E00C94042A0F938A
:1048A0001F93CF93DF93E0911464F09115642381FB
:1048B00000E010E021FD0EC00FEF1FEFC801DF91F7
:1048C000CF911F910F9108950995892B11F00FEF4A
:1048D0001FEFCE01EC018991609114647091156411
:1048E000DB011896ED91FC918111EECF8AE00995DC
:1048F000892B21F3E1CF5058BB27AA270E9493248C
:104900000C940D260E94FF2538F00E94062620F008
:1049100039F49F3F19F426F40C94FC250EF4E0952D
:10492000E7FB0C94F625E92F0E941E2658F3BA17D0
:10493000620773078407950720F079F4A6F50C94B5
:1049400040260EF4E0950B2EBA2FA02D0B01B901D5
:1049500090010C01CA01A0011124FF27591B99F0F5
:10496000593F50F4503E68F11A16F040A22F232F01
:10497000342F4427585FF3CF469537952795A79551
:10498000F0405395C9F77EF41F16BA0B620B730BF8
:10499000840BBAF09150A1F0FF0FBB1F661F771F69
:1049A000881FC2F70EC0BA0F621F731F841F48F41E
:1049B000879577956795B795F7959E3F08F0B0CFA7
:1049C0009395880F08F09927EE0F9795879508958E
:1049D0000E94D22508F481E008950E9401250C94DC
:1049E0000D260E94062658F00E94FF2540F029F46B
:1049F0005F3F29F00C94F62551110C9441260C943C
:104A0000FC250E941E2668F39923B1F3552391F3E8
:104A1000951B550BBB27AA2762177307840738F02D
:104A20009F5F5F4F220F331F441FAA1FA9F335D08A
:104A30000E2E3AF0E0E832D091505040E695001C3E
:104A4000CAF72BD0FE2F29D0660F771F881FBB1FF8
:104A5000261737074807AB07B0E809F0BB0B802DD6
:104A6000BF01FF2793585F4F3AF09E3F510578F002
:104A70000C94F6250C9441265F3FE4F3983ED4F362
:104A8000869577956795B795F7959F5FC9F7880FD6
:104A9000911D9695879597F90895E1E0660F771F28
:104AA000881FBB1F621773078407BA0720F0621BB9
:104AB000730B840BBA0BEE1F88F7E09508950E94E4
:104AC00066256894B1110C94412608950E9426260B
:104AD00088F09F5798F0B92F9927B751B0F0E1F0BF
:104AE000660F771F881F991F1AF0BA95C9F714C06F
:104AF000B13091F00E944026B1E008950C94402618
:104B0000672F782F8827B85F39F0B93FCCF38695A7
:104B100077956795B395D9F73EF490958095709504
:104B200061957F4F8F4F9F4F0895E89409C097FB81
:104B30003EF490958095709561957F4F8F4F9F4F74
:104B40009923A9F0F92F96E9BB279395F6958795B8
:104B500077956795B795F111F8CFFAF4BB0F11F47B
:104B600060FF1BC06F5F7F4F8F4F9F4F16C0882322
:104B700011F096E911C0772321F09EE8872F762F58
:104B800005C0662371F096E8862F70E060E02AF099
:104B90009A95660F771F881FDAF7880F9695879585
:104BA00097F90895990F0008550FAA0BE0E8FEEF5A
:104BB00016161706E807F907C0F012161306E407E1
:104BC000F50798F0621B730B840B950B39F40A26DA
:104BD00061F0232B242B252B21F408950A2609F4B8
:104BE000A140A6958FEF811D811D089597F99F67BC
:104BF00080E870E060E008959FEF80EC0895002465
:104C00000A941616170618060906089500240A9431
:104C100012161306140605060895092E0394000CB7
:104C200011F4882352F0BB0F40F4BF2B11F460FF46
:104C300004C06F5F7F4F8F4F9F4F089557FD90586F
:104C4000440F551F59F05F3F71F04795880F97FB50
:104C5000991F61F09F3F79F087950895121613060A
:104C60001406551FF2CF4695F1DF08C01616170639
:104C70001806991FF1CF869571056105089408956E
:104C8000E894BB2766277727CB0197F908950E9400
:104C90005A260C940D260E94FF2538F00E94062605
:104CA00020F0952311F00C94F6250C94FC2511248A
:104CB0000C9441260E941E2670F3959FC1F3950F18
:104CC00050E0551F629FF001729FBB27F00DB11D90
:104CD000639FAA27F00DB11DAA1F649F6627B00D20
:104CE000A11D661F829F2227B00DA11D621F739F09
:104CF000B00DA11D621F839FA00D611D221F749F17
:104D00003327A00D611D231F849F600D211D822F5D
:104D1000762F6A2F11249F5750409AF0F1F0882384
:104D20004AF0EE0FFF1FBB1F661F771F881F9150B1
:104D30005040A9F79E3F510580F00C94F6250C9445
:104D400041265F3FE4F3983ED4F3869577956795C7
:104D5000B795F795E7959F5FC1F7FE2B880F911DDB
:104D60009695879597F9089519F416F40C94FC25F7
:104D70000C948A290E942626B8F39923C9F3B6F326
:104D80009F57550B87FF0E9498290024A0E640EA10
:104D9000900180585695979528F4805C660F771F90
:104DA000881F20F026173707480730F4621B730B63
:104DB000840B202931294A2BA69517940794202586
:104DC00031254A2758F7660F771F881F20F02617CE
:104DD0003707480730F4620B730B840B200D311D2D
:104DE000411DA09581F7B901842F9158880F9695A0
:104DF00087950895ABE0B0E0E0E0F7E20C94DC29A1
:104E00006C017B018A01FC0116821782838181FF7C
:104E1000DAC19AE0492EF6012381F70123FD85913D
:104E200023FF81917F01811509F41FC1853239F477
:104E300023FD959123FF91917F01953229F4B601CD
:104E400090E00E94FC28E7CF30E0612C512C712CBF
:104E5000F0E27F1640F59B32D9F058F49032D1F051
:104E60009332F1F09E3299F576FCFFC0689476F8A3
:104E700006C09D3291F09033C1F4689470F8F70148
:104E800023FD959123FF91917F019111E1CF29C0DD
:104E9000689471F8689472F8F2CF689473F8EFCF61
:104EA000689474F8ECCF77FC1CC080ED890F8A30D1
:104EB000C8F676FE05C0649C800D1124682EDFCFF5
:104EC000549C800D1124582E689475F8D8CF9C36C8
:104ED00019F4689477F8D3CF9C3409F44BC0983612
:104EE00071F2892F8F7D8554833008F445C0933645
:104EF00009F466C0933709F469C0933509F475C0A5
:104F0000943619F0993609F09FC0F80177FE95C0E4
:104F100061917191819191918F01272D2F76722E40
:104F200097FF09C090958095709561957F4F8F4F41
:104F30009F4F689477F82AE030E0AE014F5F5F4FF3
:104F40005A010E942C298A19A82E76FEC5C0872DE9
:104F50008E7FA61408F0BFC074FE12C172FC06C199
:104F6000F72DFE7E7F2EB62C872D8678811509F4CD
:104F7000C0C001C131E083CF3115F9F0085F1F4F88
:104F80008FE3898388248394912CAE014F5F5F4F18
:104F90005A01E89477F873FC03C085149104B0F1CA
:104FA00081149104D1F5511409F435CFB60180E292
:104FB00090E00E94FC285A94F6CF0C5F1F4FE0CF80
:104FC000F801808189830E5F1F4FDCCFF801A1902B
:104FD000B1908F01662D70E076FC02C06FEF7FEF1D
:104FE000C5010E94F1284C01D4CFF801A190B190E5
:104FF0008F01662D70E076FC02C06FEF7FEFC50178
:105000000E94E6284C01689477F8C5CFB60180E28B
:1050100090E00E94FC285A94C0CFF50177FC85915E
:1050200077FE81915F01B60190E00E94FC2851104B
:105030005A94F1E08F1A9108B3CF61917191072EC4
:10504000000C880B990B68CF372CE89434F82AE0D1
:1050500030E0953739F1572D597F352E903799F03B
:1050600058F49835A9F09F36D9F0F60186819781DA
:105070002B96E1E10C94F5299837B9F774FC05C03B
:1050800020E130E00FC0689434F8689432F8F8CF2B
:1050900074FE03C0872D8660382E20E132E002C006
:1050A00028E030E0F80137FE11C0619171918191E3
:1050B00091918F01FE0131965F01AF010E942C2971
:1050C0008A19A82E732CE89477F83FCF61917191DB
:1050D00080E090E0EECF782EBA2C74FE45CFFE0132
:1050E000EA0DF11D8081803309F043C0272D297E10
:1050F000722E73FC0EC070FE4FC06A2CB51418F4EB
:10510000650C6B18B52C852D8B195B1408F480E0A9
:10511000B80EB51408F042C05B1874FE41C0B60169
:1051200080E390E00E94FC2872FE09C088E590E0D0
:1051300071FC02C088E790E0B6010E94FC28A6142A
:10514000D8F1AA94B12C4FEFA41AB40ACE0101965B
:105150003C01A80EB91EF50182915F01B60190E0F5
:105160000E94FC286A147B04B1F71DCFB62C782E60
:10517000B6CF72FC02C0B394BCCFB394B394B9CF92
:10518000B62C782EF1CEB60180E290E00E94FC2889
:1051900033943514C0F3B7CF3B2CFBCF512CBDCF8C
:1051A000872D8678811559F280E271FC8BE277FCBD
:1051B0008DE2B60190E0C1CFB60180E390E00E949D
:1051C000FC286A94BCCF8FEF9FEF52CFFC01059073
:1051D000615070400110D8F7809590958E0F9F1FF9
:1051E0000895FC016150704001900110D8F780953E
:1051F00090958E0F9F1F08950F931F93CF93DF936A
:10520000182F092FEB018B8181FD09C01FEF0FEFD4
:10521000812F902FDF91CF911F910F91089582FFE1
:1052200014C02E813F818C819D81281739073CF461
:10523000E881F981CF0101968883998310838E815B
:105240009F8101968E839F83E3CFE885F985812F27
:105250000995892BA1F3DACFFA01AA27283051F159
:10526000203181F1E8946F936E7F6E5F7F4F8F4F97
:105270009F4FAF4FB1E03ED0B4E03CD0670F781FF6
:10528000891F9A1FA11D680F791F8A1F911DA11DDB
:105290006A0F711D811D911DA11D20D009F4689414
:1052A0003F912AE0269F11243019305D3193DEF6BC
:1052B000CF010895462F4770405D4193B3E00FD072
:1052C000C9F7F6CF462F4F70405D4A3318F0495D5D
:1052D00031FD4052419302D0A9F7EACFB4E0A69540
:1052E0009795879577956795BA95C9F70097610562
:1052F000710508959B01AC010A2E069457954795B8
:1053000037952795BA95C9F7620F731F841F951FAC
:10531000A01D08959F3F31F0915020F48795779517
:105320006795B795880F911D9695879597F908957C
:1053300091505040660F771F881FD2F70895AA1B1F
:10534000BB1B51E107C0AA1FBB1FA617B70710F070
:10535000A61BB70B881F991F5A95A9F780959095A2
:10536000BC01CD010895A1E21A2EAA1BBB1BFD01B1
:105370000DC0AA1FBB1FEE1FFF1FA217B307E40734
:10538000F50720F0A21BB30BE40BF50B661F771F8C
:10539000881F991F1A9469F760957095809590956C
:1053A0009B01AC01BD01CF010895EE0FFF1F0590D9
:1053B000F491E02D09942F923F924F925F926F9259
:1053C0007F928F929F92AF92BF92CF92DF92EF9295
:1053D000FF920F931F93CF93DF93CDB7DEB7CA1B16
:1053E000DB0BCDBFDEBF09942A88398848885F84EB
:1053F0006E847D848C849B84AA84B984C884DF8075
:10540000EE80FD800C811B81AA81B981CE0FD11D58
:10541000CDBFDEBFED0108950024A7FD00942A0F43
:10542000301D401D501D601D701D801D901D089574
:105430002A153B054C055D056E057F058007910724
:1054400008950024A7FD00942A1730054005500553
:1054500060057005800590050895FC01DB01BC5EC8
:10546000480F591F8DE993E1E417F50709F40895F2
:105470009D0134512F3F344110F00E94572A209152
:10548000021021FDFCCF2091021021FDFCCF2191C3
:105490002D9384BF90930010E7CF60507C4E0C9406
:1054A0005C2ADC0128ED209334006C93089581E0A0
:1054B00090E0F8940C94652AFB01DC0102C0019095
:1054C0000D9241505040D8F70895F894FFCF0D1F2A
:1054D000101F121F141F471F471F471F471F471F3B
:1054E000471F121F161F191F1C1F231F261F291FAE
:1054F0002C1F471F2F1F391F391F391F471F471FD9
:10550000471F411F441FA51FB11FB71FBA1FBD1F53
:10551000C01FCD1FD41FD11F0100000002000000DA
:1055200000FE2300000000161718191A1B000000C7
:10553000000000000000000000000000000000006B
:1055400000000000001C1D1E1F00000000000000E5
:10555000000000000000010203040506070000002F
:10556000000000000000000000000000000000003B
:1055700000000000001011121314153C696E666FD4
:105580003E096170703A2043616C696272617469AE
:105590006F6E2076616C7565202878313030293A3D
:1055A0002025640A0D003C6572726F723E096170BD
:1055B000703A2043616C6962726174696F6E207A1F
:1055C00065726F2076616C7565206E6F74207365EF
:1055D000740A0D003C696E666F3E096170703A2076
:1055E0004F4D2063616C69627261746564202D3E69
:1055F000206176673A2025642C207A65726F3A2004
:1056000025642C2063616C69623A2025642C206338
:10561000616C5F666163746F72202878313030305E
:10562000293A2025640A0D003C6572726F723E09AA
:105630006170703A2043616C6962726174696F6E67
:1056400020636F6E7374616E742063616E206E6F81
:1056500074206265207A65726F0A0D003C696E667F
:105660006F3E096170703A2043616C6962746174C5
:10567000696F6E2076616C7565207365743A2028B9
:105680007831303030293A2025640A0D003C7761AA
:10569000726E3E096170703A2043757272656E7465
:1056A00020746F206C6F772028726D735831303002
:1056B0003D2564292C2073656E64696E67207A65C8
:1056C000726F730A0D003C64656275673E09617014
:1056D000703A2053594E4320636F756E7465723A69
:1056E0002025640A0D003C64656275673E0961709F
:1056F000703A204D61783A2025752C206D696E3AFC
:105700002025752C20706B706B3A2025752C20613C
:1057100076673A2025750A0D003C696E666F3E0972
:105720006170703A20524D53202878313030293A38
:105730002025752C2066726571202878313030293B
:105740003A2025752C2070686173652028783130E7
:1057500030293A2025750A0D003C6572726F723E41
:10576000096170703A20466174616C206572726FD5
:10577000722025642061742025733A25750A0D0076
:105780003C6572726F723E096170703A20545749DD
:105790005F434F4C4C0A0D003C6572726F723E09BC
:1057A0006170703A205457495F4255534552520A2E
:1057B0000D003C6572726F723E096170703A20494B
:1057C000324320696E76616C69642073746174651C
:1057D0000A0D003C696E666F3E096170703A20499F
:1057E0003243207365742E206F703A202564202880
:1057F00030782578292C20646174613A2025642052
:105800002830782578290A0D003C6572726F723E47
:10581000096170703A204932435F494E56414C4904
:10582000445F4F50434F4445202830782578290A5B
:105830000D007372632F6D61696E2E63003C696E9B
:10584000666F3E096170703A2066772D6F6D207625
:10585000312E372E30206F6D5F626F61726476314A
:105860002028436F6D70696C65642041707220322E
:105870003520323032342031303A33343A34392919
:105880000A0D003C696E666F3E096170703A2046F1
:10589000757365207374617475733A2025640A0DFD
:1058A000003C696E666F3E096170703A20436F6E0E
:1058B0006E6563746F7220747970653A2025640A8E
:1058C0000D003C696E666F3E096170703A204F4D65
:1058D0002049443A202564202830782578290A0D6B
:1058E000003C696E666F3E096170703A2049324330
:1058F00020616464726573733A20256420283078CF
:105900002578290A0D00313233340605043C696ECE
:10591000666F3E096170703A205443423120434122
:0A5920005054206576740A0D000053
:00000001FF
