:020000040000FA
:0400000064EF39F080
:0800080075EF3BF0ADA2FED73D
:10001000AE6E1200C96E1200D8EF3BF0D9CFE5FFEB
:10002000E1CFD9FF00C0E5FF01C0E5FF02C0E5FF59
:1000300003C0E5FF04C0E5FF05C0E5FF06C0E5FF1E
:1000400007C0E5FF08C0E5FF09C0E5FF0AC0E5FFFE
:100050000BC0E5FF0CC0E5FF0DC0E5FF0EC0E5FFDE
:100060000FC0E5FF10C0E5FF11C0E5FF12C0E5FFBE
:1000700013C0E5FF14C0E5FF15C0E5FF16C0E5FF9E
:1000800017C0E5FF18C0E5FF19C0E5FF1AC0E5FF7E
:100090001BC0E5FF1CC0E5FF1DC0E5FF1EC0E5FF5E
:1000A000020EDBCF00F0030EDBCF01F0040EDBCF3E
:1000B00002F0050EDBCF03F0060EDBCF04F0070ED7
:1000C000DBCF05F0080EDBCF06F0090EDBCF07F023
:1000D0000A0EDBCF08F00B0EDBCF09F00C0EDBCFE6
:1000E0000AF00D0EDBCF0BF00E0EDBCF0CF00D6A1D
:1000F0000E6A0F6A106A0E50800F800F02E1140E14
:100100000D5C19E2600E0F24116E000E1020126EAD
:1001100011C0E9FF12C0EAFF000EEE6E000EEE6E97
:10012000000EEE6E000EEF6E040E0F26D8B0102AF1
:100130000D4A0E2AE0D70401236B0401246B030E41
:100140000401336F0D6A0E6A0F6A106A0B50116E4C
:100150000C50126EFF0E112612220D50136E0E500F
:10016000146E1250145C02E11150135CD8B09BD194
:100170000F50116E1050126E136A0050112601506C
:1001800012220250132211C0E9FF12C0F3FF1350D4
:10019000FDEC3CF0116EF3CF12F00950115E0A50E5
:1001A000125A0D50010F136E000E0E20146E1450D3
:1001B000E56E1350E56E000EE56E020EE56E14EC72
:1001C00039F0136EF3CF14F0040EE126156A0050D7
:1001D0001326015014220250152213C0E9FF14C047
:1001E000F3FF1550FDEC3CF0136EF3CF14F0095003
:1001F000135E0A50145A04012451800F800F03E14A
:10020000140E0401235DD8B04ED104013351D8A49B
:100210008DD01350156E1450166ED88016AED8902F
:10022000D8A03AD123C415F024C416F00401233F0A
:1002300002D00401242B1650E56E1550E56E000E19
:10024000E56E040EE56E14EC39F0156EF3CF16F082
:10025000040EE126600E1526000E16221450E56EDF
:100260001350E56E1250E56E1150E56EDDEC31F085
:10027000176EF3CF18F0F4CF19F0E9CF1AF0040E8F
:10028000E1260E50E56E0D50E56ED1EC3AF01B6E96
:10029000F3CF1CF0F4CF1DF0E9CF1EF0E652E6528A
:1002A0001A50E56E1950E56E1850E56E1750E56E60
:1002B0001E50E56E1D50E56E1C50E56E1B50E56E40
:1002C000A2EC19F0176EF3CF18F0F4CF19F0E9CFC4
:1002D0001AF0080EE126440EE56E7A0EE56E000E69
:1002E000E56E000EE56E1A50E56E1950E56E185079
:1002F000E56E1750E56E00EC1DF0176EF3CF18F0A9
:10030000F4CF19F0E9CF1AF0080EE12615C0E9FF85
:1003100016C0EAFF17C0EEFF18C0EEFF19C0EEFFCF
:100320001AC0EFFF030E0401336FB6D0040133513E
:10033000010A0FE11150156E1250166E1650800F03
:10034000800F02E10B0E155CD8A0A6D00401336B20
:10035000A3D004013351020A01E090D01350156E6E
:100360001450166E1650800F800F02E1010E155CBE
:10037000D8A092D023C415F024C416F00401233F62
:1003800002D00401242B1650E56E1550E56E000EC8
:10039000E56E040EE56E14EC39F0156EF3CF16F031
:1003A000040EE126600E1526000E16221450E56E8E
:1003B0001350E56E1250E56E1150E56EDDEC31F034
:1003C000136EF3CF14F0F4CF17F0E9CF18F0040E4A
:1003D000E1260E50E56E0D50E56ED1EC3AF0196E47
:1003E000F3CF1AF0F4CF1BF0E9CF1CF0E652E6523F
:1003F0001850E56E1750E56E1450E56E1350E56E1B
:100400001C50E56E1B50E56E1A50E56E1950E56EF6
:10041000A2EC19F0136EF3CF14F0F4CF17F0E9CF7C
:1004200018F0080EE126440EE56E7A0EE56E000E19
:10043000E56E000EE56E1850E56E1750E56E14502F
:10044000E56E1350E56E00EC1DF0136EF3CF14F063
:10045000F4CF17F0E9CF18F0080EE12615C0E9FF38
:1004600016C0EAFF13C0EEFF14C0EEFF17C0EEFF88
:1004700018C0EFFF010E0401336F0ED00401335199
:10048000030A0AE11250800F810F02E1F60E115C9F
:1004900003E2020E0401336F020E0F26D8B0102AB9
:1004A0000D4A0E2A53D6000EE56E020EE56E0401CB
:1004B0002451E56E04012351E56E93EC34F0006E97
:1004C000F3CF01F0040EE1260050011005E1FF0E0C
:1004D000040123270401242304012451800F800FE9
:1004E00003E1030E0401235D12E2000EE56E000E2F
:1004F000F46E000EF66E000EF76E06C0E9FF07C040
:10050000F3FF085097EC3DF0060ED8EF04F0006AB8
:10051000016A026A096A0A6A0B6A0C6A0D6A0401B6
:100520002351FF0F0E6EFF0E040124210F6E0B509E
:10053000800FF36E0F50800FF35C02E10E500A5CE7
:10054000D8B06AD00A50106E102A1050040DF45022
:1005500010BE0408116EF3CF10F0600E1026000ECE
:10056000112210C0E9FF11C0EAFFEECF10F0EECF6C
:1005700011F0EECF12F0EFCF13F0600E0C24146EDA
:10058000000E0D20156E14C0E9FF15C0EAFFEECF76
:1005900014F0EECF15F0EECF16F0EFCF17F01750A6
:1005A000E56E1650E56E1550E56E1450E56E13506D
:1005B000E56E1250E56E1150E56E1050E56EF2ECEE
:1005C00026F0106EF3CF11F0F4CF12F0E9CF13F054
:1005D000080EE1261350E56E1250E56E1150E56EDF
:1005E0001050E56E0950E56E0250E56E0150E56E63
:1005F0000050E56EA2EC19F0006EF3CF01F0F4CFDD
:1006000002F0E9CF09F0080EE126040E0C26D8B05E
:100610000D2A0A4A0B2A83D703C0E9FF04C0F3FF5F
:1006200005504BEC3CF00A6EF3CF0BF0F4CF0CF01E
:10063000E9CF0DF0410EE56E200EE56E000EE56E81
:10064000000EE56E0D50E56E0C50E56E0B50E56E3C
:100650000A50E56E31EC2BF0106E080EE1261050BA
:10066000D8B470D00950E56E0250E56E0150E56EC9
:100670000050E56E400EE56E000EE56E000EE56E74
:10068000000EE56E17EC16F0006EF3CF01F0F4CF1C
:1006900002F0E9CF09F0080EE1260F50E56E0E508A
:1006A000E56ED1EC3AF00E6EF3CF0FF0F4CF10F010
:1006B000E9CF11F0E652E6521150E56E1050E56EAA
:1006C0000F50E56E0E50E56E0950E56E0250E56E76
:1006D0000150E56E0050E56E00EC1DF0006EF3CFAA
:1006E00001F0F4CF02F0E9CF09F0080EE12609503D
:1006F000E56E0250E56E0150E56E0050E56E3F0E6E
:10070000E56E800EE56E000EE56E000EE56E00EC07
:100710001DF00E6EF3CF0FF0F4CF10F0E9CF11F013
:10072000080EE1260EC0E5FF0FC0F4FF10C0F6FF73
:1007300011C0F7FF03C0E9FF04C0F3FF055097ECB9
:100740003DF01BD00D50E56E0C50E56E0B50E56E84
:100750000A50E56E3F0EE56E800EE56E000EE56E0A
:10076000000EE56E00EC1DF0006EF3CF01F0F4CF4B
:1007700002F0E9CF09F0080EE126036A046A056A6F
:100780000A6A0B6A0C6A0D6A0E6A0C50800FF36ECF
:1007900004012451800FF35C03E1040123510B5C3D
:1007A000D8B094D0600E0D240F6E000E0E20106E87
:1007B0000FC0E9FF10C0EAFFEECF0FF0EECF10F050
:1007C000EECF11F0EFCF12F00C50E56E0B50E56E4E
:1007D000D1EC3AF0136EF3CF14F0F4CF15F0E9CF6B
:1007E00016F0E652E6520950E56E0250E56E0150F1
:1007F000E56E0050E56E1650E56E1550E56E14502E
:10080000E56E1350E56E17EC16F0136EF3CF14F08F
:10081000F4CF15F0E9CF16F0080EE126400EE56E94
:10082000000EE56E000EE56E000EE56E1650E56EEC
:100830001550E56E1450E56E1350E56E00EC1DF09A
:10084000136EF3CF14F0F4CF15F0E9CF16F0080EC5
:10085000E1261650E56E1550E56E1450E56E135006
:10086000E56E1250E56E1150E56E1050E56E0F50BA
:10087000E56EF2EC26F00F6EF3CF10F0F4CF11F02E
:10088000E9CF12F0080EE1261250E56E1150E56E28
:100890001050E56E0F50E56E0A50E56E0550E56E9E
:1008A0000450E56E0350E56EA2EC19F0036EF3CF31
:1008B00004F0F4CF05F0E9CF0AF0080EE126040EAB
:1008C0000D26D8B00E2A0B4A0C2A5FD704012451FA
:1008D000E56E04012351E56ED1EC3AF00B6EF3CFD7
:1008E0000CF0F4CF0DF0E9CF0EF0E652E6520E50C8
:1008F000E56E0D50E56E0C50E56E0B50E56E0A503E
:10090000E56E0550E56E0450E56E0350E56E00ECB3
:100910001DF0036EF3CF04F0F4CF05F0E9CF0AF039
:10092000080EE1260950E56E0250E56E0150E56EB5
:100930000050E56E0A50E56E0550E56E0450E56E18
:100940000350E56E00EC1DF0006EF3CF01F0F4CF24
:1009500002F0E9CF03F0080EE1260350E56E0250E5
:10096000E56E0150E56E0050E56E430EE56EB40E87
:10097000E56E000EE56E000EE56E17EC16F0006EEB
:10098000F3CF01F0F4CF02F0E9CF03F0080EE12637
:1009900000C0E5FF01C0F4FF02C0F6FF03C0F7FF8F
:1009A00006C0E9FF07C0F3FF085097EC3DF0E86A86
:1009B000E4CF1EF0E4CF1DF0E4CF1CF0E4CF1BF039
:1009C000E4CF1AF0E4CF19F0E4CF18F0E4CF17F039
:1009D000E4CF16F0E4CF15F0E4CF14F0E4CF13F039
:1009E000E4CF12F0E4CF11F0E4CF10F0E4CF0FF039
:1009F000E4CF0EF0E4CF0DF0E4CF0CF0E4CF0BF039
:100A0000E4CF0AF0E4CF09F0E4CF08F0E4CF07F038
:100A1000E4CF06F0E4CF05F0E4CF04F0E4CF03F038
:100A2000E4CF02F0E4CF01F0E4CF00F0E4CFD9FF4F
:100A30001200D9CFE5FFE1CFD9FF00C0E5FF01C02B
:100A4000E5FF02C0E5FF03C0E5FF04C0E5FF05C008
:100A5000E5FF06C0E5FF07C0E5FF08C0E5FF09C0E8
:100A6000E5FF0AC0E5FF0BC0E5FF0CC0E5FF0DC0C8
:100A7000E5FF0EC0E5FF0FC0E5FF10C0E5FF11C0A8
:100A8000E5FF12C0E5FF13C0E5FF14C0E5FF15C088
:100A9000E5FF16C0E5FF17C0E5FF18C0E5FF19C068
:100AA000E5FF0E01045103E1040E18EF09F00E01F9
:100AB0000751D8B417EF09F00E01076B43EC3EF075
:100AC0000E01746B0E01756B0E01766B0E01776B68
:100AD0000E0E016E780E006E800E026E0E0E046E0B
:100AE000740E036E800E056E0E0E076E840E066E7B
:100AF000800E086E010E0A6E000E096E800E0B6EDF
:100B0000000EE56E800EE56E0B50E56E0A50E56E48
:100B10000950E56E0850E56E0750E56E0650E56E2B
:100B20000550E56E0450E56E0350E56E0250E56E2B
:100B30000150E56E0050E56E4AEC0DF00E0EE12618
:100B40000E0E016E7C0E006E800E026E0E0E046E96
:100B5000740E036E800E056E0E0E076E800E066E0E
:100B6000800E086E020E0A6E000E096E800E0B6E6D
:100B7000000EE56E800EE56E0B50E56E0A50E56ED8
:100B80000950E56E0850E56E0750E56E0650E56EBB
:100B90000550E56E0450E56E0350E56E0250E56EBB
:100BA0000150E56E0050E56E4AEC0DF00E0EE126A8
:100BB0000E017B51E56E0E017A51E56E0E01795101
:100BC000E56E0E017851E56E3E0EE56ED40EE56ED3
:100BD0007A0EE56EE10EE56E17EC16F00E01786FF9
:100BE000F3CF79FEF4CF7AFEE9CF7BFE080EE12643
:100BF0003CEC3DF0006E005005E00050010A01E1C0
:100C000042D062D00E017F51E56E0E017E51E56E3D
:100C10000E017D51E56E0E017C51E56E3C0EE56ED8
:100C2000C40EE56E9B0EE56EA60EE56E17EC16F093
:100C30000E017C6FF3CF7DFEF4CF7EFEE9CF7FFE09
:100C4000080EE126420EE56E140EE56E000EE56E0E
:100C5000000EE56E0E018351E56E0E018251E56EC8
:100C60000E018151E56E0E018051E56EA2EC19F086
:100C70000E01806FF3CF81FEF4CF82FEE9CF83FEB9
:100C8000080EE12631D00E017F51E56E0E017E5136
:100C9000E56E0E017D51E56E0E017C51E56E3C0E58
:100CA000E56E3C0EE56E6A0EE56E7F0EE56E17ECA6
:100CB00016F00E017C6FF3CF7DFEF4CF7EFEE9CF00
:100CC0007FFE080EE12610D0000E026E410E016E6E
:100CD000D40E006E0250E56E0150E56E0050E56ED8
:100CE00091EC3AF0030EE1260E017B51E56E0E0108
:100CF0007A51E56E0E017951E56E0E017851E56E7F
:100D0000410EE56E200EE56E000EE56E000EE56EFE
:100D100017EC16F0006EF3CF01F0F4CF02F0E9CF3C
:100D200003F0080EE1260350E56E0250E56E015017
:100D3000E56E0050E56EB3EC37F0006EF3CF01F0D6
:100D4000040EE1260150800F800F02E1640E005C6A
:100D5000D8B028D00E01786B0E01796B0E017A6B3A
:100D60000E017B6B0E017C6B0E017D6B0E017E6BA9
:100D70000E017F6B0E01846B0E01856B0E01866B7D
:100D80000E01876B0E01806B0E01816B0E01826B71
:100D90000E01836B0E01746B0E01756B0E01766B89
:100DA0000E01776B0E017F51E56E0E017E51E56EEF
:100DB0000E017D51E56E0E017C51E56E410EE56E32
:100DC000200EE56E000EE56E000EE56E17EC16F0D7
:100DD000006EF3CF01F0F4CF02F0E9CF03F0080E7C
:100DE000E1260350E56E0250E56E0150E56E0050BD
:100DF000E56EB3EC37F0006EF3CF01F0040EE126A0
:100E00000150800F800F02E1010E005C10E20E0124
:100E10007C6B0E017D6B0E017E6B0E017F6B0E01F4
:100E2000806B0E01816B0E01826B0E01836B000ED5
:100E3000026E410E016EBC0E006E00500E01566F28
:100E400001500E01576F02500E01586F000E026ED6
:100E5000410E016EC00E006E00500E01596F015020
:100E60000E015A6F02500E015B6F000E026E410EB2
:100E7000016EC40E006E00500E015C6F01500E0139
:100E80005D6F02500E015E6F000E026E410E016E2C
:100E9000C80E006E00500E015F6F01500E01606FB2
:100EA00002500E01616F000E026E410E016ECC0EFB
:100EB000006E00500E01626F01500E01636F025010
:100EC0000E01646F000E026E410E016ED00E006EB8
:100ED00000500E01656F01500E01666F02500E0149
:100EE000676F0E018351E56E0E018251E56E0E01B2
:100EF0008151E56E0E018051E56E71EC29F0006EB6
:100F0000F3CF01F0F4CF02F0E9CF03F0040EE126B5
:100F10000E018751E56E0E018651E56E0E01855179
:100F2000E56E0E018451E56E71EC29F0046EF3CF8D
:100F300005F0F4CF06F0E9CF07F0040EE1260E012C
:100F40007751E56E0E017651E56E0E017551E56E35
:100F50000E017451E56E440EE56E7A0EE56E000EDC
:100F6000E56E000EE56E17EC16F0086EF3CF09F093
:100F7000F4CF0AF0E9CF0BF0080EE1260B50E56E36
:100F80000A50E56E0950E56E0850E56ECBEC32F084
:100F9000086EF3CF09F0F4CF0AF0E9CF0BF0040E9E
:100FA000E1260E017F51E56E0E017E51E56E0E01C8
:100FB0007D51E56E0E017C51E56E440EE56E7A0EB4
:100FC000E56E000EE56E000EE56E17EC16F00C6E89
:100FD000F3CF0DF0F4CF0EF0E9CF0FF0080EE126BD
:100FE0000F50E56E0E50E56E0D50E56E0C50E56E3F
:100FF000CBEC32F00C6EF3CF0DF0F4CF0EF0E9CF66
:101000000FF0040EE1260E017B51E56E0E017A51C0
:10101000E56E0E017951E56E0E017851E56E440ED4
:10102000E56E7A0EE56E000EE56E000EE56E17ECCD
:1010300016F0106EF3CF11F0F4CF12F0E9CF13F0E9
:10104000080EE1261350E56E1250E56E1150E56E64
:101050001050E56ECBEC32F0106EF3CF11F0F4CF00
:1010600012F0E9CF13F0040EE12608CE14F0156A51
:10107000000EE56E020EE56E1550E56E1450E56E3D
:1010800054EC32F0146EF3CF15F0040EE126155037
:10109000E56E1450E56E000EE56E030EE56E14EC81
:1010A00039F0146EF3CF15F0040EE126560E142617
:1010B0000E0E152214C0E9FF15C0EAFFEECF14F0A2
:1010C000EECF15F0EFCF16F0000E196E410E186E30
:1010D000FA0E176E0350E56E0250E56E0150E56E94
:1010E0000050E56E0750E56E0650E56E0550E56E62
:1010F0000450E56E0B50E56E0A50E56E0950E56E42
:101100000850E56E0F50E56E0E50E56E0D50E56E21
:101110000C50E56E1350E56E1250E56E1150E56E01
:101120001050E56E1650E56E1550E56E1450E56EE4
:101130001950E56E1850E56E1750E56E91EC3AF0D7
:101140001A0EE12608CE00F0016A000EE56E020ECE
:10115000E56E0150E56E0050E56E54EC32F0006E25
:10116000F3CF01F0040EE126430E00260E01835159
:10117000E56E0E018251E56E0E018151E56E0E01A4
:101180008051E56E0E018751E56E0E018651E56EC8
:101190000E018551E56E0E018451E56E0E01775109
:1011A000E56E0E017651E56E0E017551E56E0E018C
:1011B0007451E56E0E017F51E56E0E017E51E56EB4
:1011C0000E017D51E56E0E017C51E56E0E017B51E5
:1011D000E56E0E017A51E56E0E017951E56E0E0154
:1011E0007851E56E0E010D51E56E0E010C51E56E64
:1011F0000050E56E3CEC14F0170EE12608CE00F02E
:10120000016A020E0026D8B0012A000EE56E0C0E0F
:10121000E56E0150E56E0050E56E93EC34F0006E23
:10122000F3CF01F0040EE12600500E01086FE86ACA
:10123000E4CF19F0E4CF18F0E4CF17F0E4CF16F0C4
:10124000E4CF15F0E4CF14F0E4CF13F0E4CF12F0C4
:10125000E4CF11F0E4CF10F0E4CF0FF0E4CF0EF0C4
:10126000E4CF0DF0E4CF0CF0E4CF0BF0E4CF0AF0C4
:10127000E4CF09F0E4CF08F0E4CF07F0E4CF06F0C4
:10128000E4CF05F0E4CF04F0E4CF03F0E4CF02F0C4
:10129000E4CF01F0E4CF00F0E4CFD9FF1200D9CFC2
:1012A000E5FFE1CFD9FF00C0E5FF01C0E5FF02C0C7
:1012B000E5FF03C0E5FF04C0E5FF05C0E5FF06C08C
:1012C000E5FF07C0E5FF08C0E5FF09C0E5FF0AC06C
:1012D000E5FF0BC0E5FF0CC0E5FF0DC0E5FF0EC04C
:1012E000E5FF0FC0E5FF10C0E5FF11C0E5FF12C02C
:1012F000E5FF13C0E5FF14C0E5FF15C0E5FF16C00C
:10130000E5FF17C0E5FF18C0E5FF19C0E5FF1AC0EB
:10131000E5FF1BC0E5FF1CC0E5FF1DC0E5FF1EC0CB
:10132000E5FF020EDBCF00F0030EDBCF01F0040E71
:10133000DBCF02F0050EDBCF03F0060EDBCF04F0AF
:10134000070EDBCF05F0080EDBCF06F0090EDBCF72
:1013500007F00A0EDBCF08F0096A0A6A02C00DF036
:101360000D50800A0DE102500401226F0150216FDF
:101370000050206F040E016E200E006E800E026E73
:1013800003C0E9FF04C0F3FF0550A8EC3DF00B6E6D
:101390000B50D8B400EF0DF00B50250A02E0E7EF38
:1013A0000CF00C6A0D6A0E6A0F6A106A0A0E116E52
:1013B000126A136A146A200E156E1668176A2B0ECD
:1013C000186E032A02E3044A052A03C0E9FF04C099
:1013D000F3FF0550A8EC3DF0196E250A13E11950F2
:1013E000E56E0250E56E0150E56E0050E56ED9ECF9
:1013F0002CF0040EE126094A0A2A032A02E3044AD1
:10140000052ABED71950300A06E1300E156E032AA0
:1014100002E3044A052A03C0E9FF04C0F3FF0550B4
:10142000A8EC3DF02D0A06E1010E146E032A02E33A
:10143000044A052A03C0E9FF04C0F3FF0550A8ECE5
:101440003DF0200A08E1010E176E200E186E032AE7
:1014500002E3044A052A03C0E9FF04C0F3FF055074
:10146000A8EC3DF02B0A06E1010E176E032A02E3F9
:10147000044A052A03C0E9FF04C0F3FF0550A8ECA5
:101480003DF0196E310E195C2BE33A0E195C28E21F
:1014900003C019F004C01AF005C01BF019C0E9FF21
:1014A0001AC0F3FF1B50A8EC3DF01C6E300E1C5C04
:1014B00011E33A0E1C5C0EE213500A0DF3CF1DF03F
:1014C0001C501D26D00E1D24136E192A02E31A4A41
:1014D0001B2AE4D719C003F01AC004F01BC005F0A2
:1014E00003C0E9FF04C0F3FF0550A8EC3DF02E0A4D
:1014F0002CE10350010F196E000E04201A6E000E2D
:1015000005201B6E166A19C0E9FF1AC0F3FF1B50B5
:10151000A8EC3DF01C6E300E1C5C11E33A0E1C5C16
:101520000EE216500A0DF3CF1DF01C501D26D00EF2
:101530001D24166E192A02E31A4A1B2AE4D719C081
:1015400003F01AC004F01BC005F003C0E9FF04C09B
:10155000F3FF0550A8EC3DF0196E6C0A07E1010E8F
:101560000C6E032A02E3044A052A09D01950680ABE
:1015700006E1010E0E6E032A02E3044A052A03C0A7
:10158000E9FF04C0F3FF0550A8EC3DF0750A06E141
:10159000010E106E032A02E3044A052A03C0E9FF84
:1015A00004C0F3FF0550A8EC3DF0196E730A05E185
:1015B000010E0D6E200E156E3FD01950780A03E112
:1015C000100E116E39D01950580A05E1100E116E27
:1015D000010E126E31D01950630A02E1116A2CD04B
:1015E00019506F0A03E1080E116E26D01950660AD1
:1015F00003E1010E0F6E20D01950640A1DE019504E
:10160000690A1AE0105005E0FF0E032604220522A5
:1016100013D01950E56E0250E56E0150E56E005092
:10162000E56ED9EC2CF0040EE126094A0A2A032AB9
:1016300002E3044A052AA4D60D5021E00650030F08
:101640000D6E000E0720196E000E08201A6E0DC0D8
:1016500006F019C007F01AC008F0FD0E0D26FF0EA7
:1016600019221A220DC0E9FF19C0F3FF1A506BECC2
:101670003CF00D6EF3CF19F0F4CF1AF0FDD00F50FF
:101680000DE0000E1A6E1A0E196E880E0D6E040E05
:101690000626000E072208221668EED016680C50A7
:1016A00023E00650040F0C6E000E07200F6E000E94
:1016B00008201B6E0CC006F00FC007F01BC008F01E
:1016C000FC0E0C26FF0E0F221B220CC0E9FF0FC0E0
:1016D000F3FF1B504BEC3CF00C6EF3CF0FF0F4CF4C
:1016E0001BF0E9CF1CF067D00E502FE00650020F20
:1016F0000E6E000E07201D6E000E08201E6E0EC01E
:1017000006F01DC007F01EC008F0FE0E0E26FF0EEC
:101710001D221E220EC0E9FF1DC0F3FF1E50A8ECC3
:101720003DF00E6E0EC00CF00F6A1B6A1C6A115061
:101730000A0A03E11050D8B43ED00C500E6E0EC011
:101740000CF00F6A1B6A1C6A36D00650020F0E6E30
:10175000000E07201D6E000E08201E6E0EC006F043
:101760001DC007F01EC008F0FE0E0E26FF0E1D2243
:101770001E220EC0E9FF1DC0F3FF1E50FDEC3CF021
:101780000E6EF3CF1DF00EC00CF01DC00FF0E86A16
:101790001DBEFF0E1B6E1C6E11500A0A02E1105096
:1017A0000AE00C500E6E0F501D6E0EC00CF01DC0E6
:1017B0000FF01B6A1C6A000E196EF10E0D6E800E82
:1017C0001A6E1150D8B440D0105013E01150E56E8D
:1017D000000EE56EF10EE56E1C50E56E1B50E56ED9
:1017E0000F50E56E0C50E56E2DEC23F0070EE12650
:1017F00012D01150E56E000EE56EF10EE56E1C5034
:10180000E56E1B50E56E0F50E56E0C50E56ED7ECA3
:1018100035F0070EE12617502FE00DC0E9FF19C083
:10182000F3FF1A50A8EC3DF02D0A26E0FF0E0D261E
:1018300019221A2218C0E5FF0DC0E9FF19C0F3FFF5
:101840001A502EEC3EF018D00CC0E5FF0DC0E9FF99
:1018500019C0F3FF1A502EEC3EF00D50010F0C6E24
:10186000000E19200E6E000E1A20E56A0CC0E9FF6A
:101870000EC0F3FF2EEC3EF00DC00CF019C00EF0C0
:101880001AC00FF013C010F0105010E00CC0E9FFA8
:101890000EC0F3FF0F50A8EC3DF0116E115006E0A2
:1018A0000C2A02E30E4A0F2A1006EED710C00CF0E5
:1018B00014501CE109C00EF00AC00FF0105010E0E7
:1018C0001550E56E0250E56E0150E56E0050E56E74
:1018D000D9EC2CF0040EE1260E4A0F2A1006EED7A2
:1018E0000EC009F00FC00AF010C00CF016C00EF0C8
:1018F0000DC00DF019C00FF01AC010F009C011F0A2
:101900000AC013F00DC0E9FF0FC0F3FF1050A8ECA0
:101910003DF0156E1550D8B43ED00EC015F0166AC5
:10192000151E161E1550161005E00EC015F00E06F9
:10193000155031E00DC0E9FF0FC0F3FF1050A8ECC7
:101940003DF0156E125010E01550E56EE6EC3CF0DF
:10195000166EE652165004E0DF0E1514166E02D015
:1019600015C016F016C015F01550E56E0250E56E64
:101970000150E56E0050E56ED9EC2CF0040EE12626
:101980000D2A02E30F4A102A114A132A0C50D8B428
:10199000B9D70C06B7D711C009F013C00AF014501C
:1019A00029E011C00DF013C00EF00C501FE0200E06
:1019B000E56E0250E56E0150E56E0050E56ED9EC23
:1019C0002CF0040EE1260D4A0E2A0C06EED70B5021
:1019D000E56E0250E56E0150E56E0050E56ED9EC03
:1019E0002CF0040EE126094A0A2A04D00DC009F0A1
:1019F0000EC00AF0032A02E3044A052AC0EF09F0E8
:101A00000AC0F3FF0950E4CF1EF0E4CF1DF0E4CF8D
:101A10001CF0E4CF1BF0E4CF1AF0E4CF19F0E4CFD0
:101A200018F0E4CF17F0E4CF16F0E4CF15F0E4CFD0
:101A300014F0E4CF13F0E4CF12F0E4CF11F0E4CFD0
:101A400010F0E4CF0FF0E4CF0EF0E4CF0DF0E4CFD0
:101A50000CF0E4CF0BF0E4CF0AF0E4CF09F0E4CFD0
:101A600008F0E4CF07F0E4CF06F0E4CF05F0E4CFD0
:101A700004F0E4CF03F0E4CF02F0E4CF01F0E4CFD0
:101A800000F0E4CFD9FF12003C4E4F20464C4F41AE
:101A9000543E0000D9CFE5FFE1CFD9FF00C0E5FFFC
:101AA00001C0E5FF02C0E5FF03C0E5FF04C0E5FF9C
:101AB00005C0E5FF06C0E5FF07C0E5FF08C0E5FF7C
:101AC00009C0E5FF0AC0E5FF0BC0E5FF0CC0E5FF5C
:101AD0000DC0E5FF0EC0E5FF0FC0E5FF10C0E5FF3C
:101AE00011C0E5FF12C0E5FF13C0E5FF14C0E5FF1C
:101AF00015C0E5FF16C0E5FF17C0E5FF18C0E5FFFC
:101B0000020EDBCF00F0030EDBCF01F0040EDBCFC3
:101B100002F0050EDBCF03F0060EDBCF04F0070E5C
:101B2000DBCF05F0080EDBCF06F0090EDBCF07F0A8
:101B30000A0EDBCF08F00B0EDBCF09F00C0EDBCF6B
:101B40000AF00D0EDBCF0BF00E0EDBCF0CF00F0EFC
:101B5000DBCF0DF00E01015103E1040EABEF10F0ED
:101B60000E6A0F6A106A116A126A12C013F0146AC0
:101B70000D50145C02E10C50135CD8B043D01250ED
:101B8000020DF450146EF3CF13F0156A09501326AA
:101B90000A5014220B50152213C0E9FF14C0F3FFA2
:101BA0001550FDEC3CF0136EF3CF14F01450E56EBD
:101BB0001350E56E40EC3BF0136EF3CF14F0F4CF0E
:101BC00015F0E9CF16F0E652E6521650E56E1550C4
:101BD000E56E1450E56E1350E56E1150E56E105031
:101BE000E56E0F50E56E0E50E56EA2EC19F00E6E2C
:101BF000F3CF0FF0F4CF10F0E9CF11F0080EE1268B
:101C0000122AB3D70D50E56E0C50E56E40EC3BF058
:101C1000126EF3CF13F0F4CF14F0E9CF15F0E652C3
:101C2000E6521550E56E1450E56E1350E56E1250F5
:101C3000E56E1150E56E1050E56E0F50E56E0E50DA
:101C4000E56E00EC1DF00E6EF3CF0FF0F4CF10F048
:101C5000E9CF11F0080EE1261150E56E1050E56E47
:101C60000F50E56E0E50E56E49EC3AF00E6EF3CF74
:101C70000FF0040EE1260D50E56E0C50E56E0F508E
:101C8000E56E0E50E56E0850E56E0750E56E0650A5
:101C9000E56E0550E56E0450E56E0350E56E0B50A1
:101CA000E56E0A50E56E0950E56E0EEC00F00D0E83
:101CB000E12603C0E9FF04C0F3FF05504BEC3CF004
:101CC0000C6EF3CF0DF0F4CF0EF0E9CF0FF0420E13
:101CD000E56E200EE56E000EE56E000EE56E0F500F
:101CE000E56E0E50E56E0D50E56E0C50E56E31EC74
:101CF0002BF0106E080EE126105017E10F50E56E24
:101D00000E50E56E0D50E56E0C50E56E420EE56E20
:101D10008C0EE56E000EE56E000EE56E31EC2BF0DC
:101D20000C6E080EE1260C502DE0000EE56E000E44
:101D3000F46E000EF66E000EF76E00C0E9FF01C0F3
:101D4000F3FF025097EC3DF0000EE56E000EF46ECE
:101D5000000EF66E000EF76E06C0E9FF07C0F3FF37
:101D6000085097EC3DF0000EE56E000EF46E000E8C
:101D7000F66E000EF76E03C0E9FF04C0F3FF0550D6
:101D800097EC3DF003C0E9FF04C0F3FF05504BECB6
:101D90003CF0036EF3CF04F0F4CF05F0E9CF06F08A
:101DA0000650E56E0550E56E0450E56E0350E56E95
:101DB000440EE56E7A0EE56E000EE56E000EE56EE1
:101DC00000EC1DF0036EF3CF04F0F4CF05F0E9CF83
:101DD00006F0080EE1260650E56E0550E56E04504B
:101DE000E56E0350E56E1550E56E1450E56E135028
:101DF000E56E1250E56E00EC1DF0076EF3CF08F0B3
:101E0000F4CF0CF0E9CF0DF0080EE1260D50E56E91
:101E10000C50E56E0850E56E0750E56E49EC3AF05F
:101E2000076EF3CF08F0040EE1260850E56E075068
:101E3000E56E40EC3BF0076EF3CF08F0F4CF0CF00A
:101E4000E9CF0DF0E652E6520D50E56E0C50E56E0E
:101E50000850E56E0750E56E0650E56E0550E56EDC
:101E60000450E56E0350E56E17EC16F0036EF3CFE9
:101E700004F0F4CF05F0E9CF06F0080EE1263F0E9E
:101E8000E56E000EE56E000EE56E000EE56E065086
:101E9000E56E0550E56E0450E56E0350E56EA2EC6C
:101EA00019F0036EF3CF04F0F4CF05F0E9CF06F09C
:101EB000080EE1260650E56E0550E56E0450E56E0D
:101EC0000350E56E49EC3AF0036EF3CF04F0040ED4
:101ED000E126056A066A076A086A0C6A0CC00DF0FA
:101EE0000E6A04500E5C02E103500D5CD8B043D082
:101EF0000C50020DF4500E6EF3CF0DF00F6A095026
:101F00000D260A500E220B500F220DC0E9FF0EC005
:101F1000F3FF0F50FDEC3CF00D6EF3CF0EF00E50C2
:101F2000E56E0D50E56E40EC3BF00D6EF3CF0EF01C
:101F3000F4CF0FF0E9CF10F0E652E6521050E56E04
:101F40000F50E56E0E50E56E0D50E56E0850E56ED3
:101F50000750E56E0650E56E0550E56EA2EC19F0EF
:101F6000056EF3CF06F0F4CF07F0E9CF08F0080EC6
:101F7000E1260C2AB3D70450E56E0350E56E40EC21
:101F80003BF00C6EF3CF0DF0F4CF0EF0E9CF0FF075
:101F9000E652E6520F50E56E0E50E56E0D50E56EBE
:101FA0000C50E56E0850E56E0750E56E0650E56E84
:101FB0000550E56E00EC1DF0056EF3CF06F0F4CF92
:101FC00007F0E9CF08F0080EE126106A116A126ADC
:101FD000136A146A14C015F0166A0450165C02E104
:101FE0000350155CD8B079D01450020DF450166E21
:101FF000F3CF15F0176A095015260A5016220B5018
:10200000172215C0E9FF16C0F3FF1750FDEC3CF096
:10201000156EF3CF16F01650E56E1550E56E40ECD8
:102020003BF0156EF3CF16F0F4CF17F0E9CF18F0B0
:10203000E652E6520850E56E0750E56E0650E56E32
:102040000550E56E1850E56E1750E56E1650E56EBA
:102050001550E56EF2EC26F0156EF3CF16F0F4CFC6
:1020600017F0E9CF18F0080EE1261850E56E17506A
:10207000E56E1650E56E1550E56E1850E56E17507A
:10208000E56E1650E56E1550E56E17EC16F0156E00
:10209000F3CF16F0F4CF17F0E9CF18F0080EE126D1
:1020A0001850E56E1750E56E1650E56E1550E56E4A
:1020B0001350E56E1250E56E1150E56E1050E56E4E
:1020C000A2EC19F0106EF3CF11F0F4CF12F0E9CFBB
:1020D00013F0080EE126142A7DD70F50E56E0E503E
:1020E000E56E0D50E56E0C50E56E1350E56E125026
:1020F000E56E1150E56E1050E56E00EC1DF0036EBC
:10210000F3CF04F0F4CF05F0E9CF06F0080EE12696
:102110000650E56E0550E56E0450E56E0350E56E21
:1021200058EC1BF0036EF3CF04F0F4CF05F0E9CFC9
:1021300006F0040EE12603C0E5FF04C0F4FF05C06D
:10214000F6FF06C0F7FF00C0E9FF01C0F3FF025031
:1021500097EC3DF0E86AE4CF18F0E4CF17F0E4CF55
:1021600016F0E4CF15F0E4CF14F0E4CF13F0E4CF91
:1021700012F0E4CF11F0E4CF10F0E4CF0FF0E4CF91
:102180000EF0E4CF0DF0E4CF0CF0E4CF0BF0E4CF91
:102190000AF0E4CF09F0E4CF08F0E4CF07F0E4CF91
:1021A00006F0E4CF05F0E4CF04F0E4CF03F0E4CF91
:1021B00002F0E4CF01F0E4CF00F0E4CFD9FF120049
:1021C000D9CFE5FFE1CFD9FF00C0E5FF01C0E5FFB2
:1021D00002C0E5FF03C0E5FF04C0E5FF05C0E5FF61
:1021E00006C0E5FF07C0E5FF08C0E5FF09C0E5FF41
:1021F0000AC0E5FF0BC0E5FF0CC0E5FF0DC0E5FF21
:102200000EC0E5FF0FC0E5FF10C0E5FF11C0E5FF00
:1022100012C0E5FF13C0E5FF14C0E5FF15C0E5FFE0
:1022200016C0E5FF17C0E5FF18C0E5FF19C0E5FFC0
:102230001AC0E5FF1BC0E5FF1CC0E5FF1DC0E5FFA0
:102240001EC0E5FF1FC0E5FF20C0E5FF21C0E5FF80
:1022500022C0E5FF23C0E5FF24C0E5FF25C0E5FF60
:1022600026C0E5FF27C0E5FF28C0E5FF29C0E5FF40
:102270002AC0E5FF2BC0E5FF2CC0E5FF2DC0E5FF20
:102280002EC0E5FF2FC0E5FF30C0E5FF020EDBCF1B
:1022900000F0030EDBCF01F0040EDBCF02F0050EE1
:1022A000DBCF03F0060EDBCF04F0070EDBCF05F02B
:1022B000080EDBCF06F0090EDBCF07F00A0EDBCFEE
:1022C00008F00B0EDBCF09F00C0EDBCF0AF00D0E81
:1022D000DBCF0BF00E0EDBCF0CF00F0EDBCF0DF0D3
:1022E000100EDBCF0EF0110EDBCF0FF0120EDBCF96
:1022F00010F0130EDBCF11F0140EDBCF12F0150E21
:10230000DBCF13F0160EDBCF14F0170EDBCF15F07A
:10231000180EDBCF16F0190EDBCF17F01A0EDBCF3D
:1023200018F01B0EDBCF19F01C0EDBCF1AF01D0EC0
:10233000DBCF1BF01E0EDBCF1CF01F0EDBCF1DF022
:10234000200EDBCF1EF0210EDBCF1FF0220EDBCFE5
:1023500020F0230EDBCF21F0240EDBCF22F0250E60
:10236000DBCF23F0260EDBCF24F0270EDBCF25F0CA
:10237000266A276A286A296A26502A6E27502B6EF9
:1023800025502B5C02E124502A5CD8B0D6EF13F024
:10239000050EE56ED5EC28F0E652030EE56ED5ECA1
:1023A00028F0E65228502A6E29502B6E2A5000241D
:1023B0002C6E2B5001202D6EE86A02202E6E000E2E
:1023C000E56EF1EC2FF02F6EF3CF30F0E6522FC018
:1023D000E5FF30C0F4FF2CC0E9FF2DC0F3FF2E5005
:1023E00015EC3EF0030EE56E9DEC2AF0E652050E6C
:1023F000E56E9DEC2AF0E652370EE56ED5EC28F03E
:10240000E6522A5009242C6E2B500A202D6EE86AC1
:102410000B202E6E000EE56EF1EC2FF02F6EF3CF39
:1024200030F0E6522FC0E5FF30C0F4FF2CC0E9FFCA
:102430002DC0F3FF2E5015EC3EF0370EE56E9DECEF
:102440002AF0E652120EE56ED5EC28F0E652350E73
:10245000E56ED5EC28F0E6522A5012242C6E2B5053
:1024600013202D6EE86A14202E6E000EE56EF1EC3E
:102470002FF02F6EF3CF30F0E6522FC0E5FF30C0C3
:10248000F4FF2CC0E9FF2DC0F3FF2E5015EC3EF0F9
:10249000350EE56E9DEC2AF0E652120EE56E9DECCF
:1024A0002AF0E652340EE56ED5EC28F0E6522A50BA
:1024B0001B242C6E2B501C202D6EE86A1D202E6EC6
:1024C000000EE56EF1EC2FF02F6EF3CF30F0E652F8
:1024D0002FC0E5FF30C0F4FF2CC0E9FF2DC0F3FF93
:1024E0002E5015EC3EF0340EE56E9DEC2AF0E652CF
:1024F000050EE56ED5EC28F0E652030EE56ED5EC40
:1025000028F0E6522A5003242C6E2B5004202D6E06
:10251000E86A05202E6E010EE56EF1EC2FF02F6EAD
:10252000F3CF30F0E6522FC0E5FF30C0F4FF2CC0EF
:10253000E9FF2DC0F3FF2E5015EC3EF0030EE56EC3
:102540009DEC2AF0E652050EE56E9DEC2AF0E6526F
:10255000370EE56ED5EC28F0E6522A500C242C6E8E
:102560002B500D202D6EE86A0E202E6E010EE56EAA
:10257000F1EC2FF02F6EF3CF30F0E6522FC0E5FFD5
:1025800030C0F4FF2CC0E9FF2DC0F3FF2E5015EC36
:102590003EF0370EE56E9DEC2AF0E652120EE56E27
:1025A000D5EC28F0E652350EE56ED5EC28F0E65273
:1025B0002A5015242C6E2B5016202D6EE86A1720F9
:1025C0002E6E010EE56EF1EC2FF02F6EF3CF30F092
:1025D000E6522FC0E5FF30C0F4FF2CC0E9FF2DC04C
:1025E000F3FF2E5015EC3EF0350EE56E9DEC2AF013
:1025F000E652120EE56E9DEC2AF0E652340EE56EC0
:10260000D5EC28F0E6522A501E242C6E2B501F20A9
:102610002D6EE86A20202E6E010EE56EF1EC2FF093
:102620002F6EF3CF30F0E6522FC0E5FF30C0F4FF3D
:102630002CC0E9FF2DC0F3FF2E5015EC3EF0340EF8
:10264000E56E9DEC2AF0E652050EE56ED5EC28F01D
:10265000E652030EE56ED5EC28F0E6522A50062429
:102660002C6E2B5007202D6EE86A08202E6E020E6D
:10267000E56EF1EC2FF02F6EF3CF30F0E6522FC065
:10268000E5FF30C0F4FF2CC0E9FF2DC0F3FF2E5052
:1026900015EC3EF0030EE56E9DEC2AF0E652050EB9
:1026A000E56E9DEC2AF0E652370EE56ED5EC28F08B
:1026B000E6522A500F242C6E2B5010202D6EE86A03
:1026C00011202E6E020EE56EF1EC2FF02F6EF3CF7F
:1026D00030F0E6522FC0E5FF30C0F4FF2CC0E9FF18
:1026E0002DC0F3FF2E5015EC3EF0370EE56E9DEC3D
:1026F0002AF0E652120EE56ED5EC28F0E652350EC1
:10270000E56ED5EC28F0E6522A5018242C6E2B509A
:1027100019202D6EE86A1A202E6E020EE56EF1EC7D
:102720002FF02F6EF3CF30F0E6522FC0E5FF30C010
:10273000F4FF2CC0E9FF2DC0F3FF2E5015EC3EF046
:10274000350EE56E9DEC2AF0E652120EE56E9DEC1C
:102750002AF0E652340EE56ED5EC28F0E6522C6AEB
:1027600021502A2622502B2223502C22020EE56EC5
:10277000F1EC2FF02D6EF3CF2EF0E6522DC0E5FFD9
:102780002EC0F4FF2AC0E9FF2BC0F3FF2C5015EC3C
:102790003EF0340EE56E9DEC2AF0E652020E28263D
:1027A000D8B0292A264A272ABCEF11F0E86AE4CFDC
:1027B00030F0E4CF2FF0E4CF2EF0E4CF2DF0E4CFD3
:1027C0002CF0E4CF2BF0E4CF2AF0E4CF29F0E4CFD3
:1027D00028F0E4CF27F0E4CF26F0E4CF25F0E4CFD3
:1027E00024F0E4CF23F0E4CF22F0E4CF21F0E4CFD3
:1027F00020F0E4CF1FF0E4CF1EF0E4CF1DF0E4CFD3
:102800001CF0E4CF1BF0E4CF1AF0E4CF19F0E4CFD2
:1028100018F0E4CF17F0E4CF16F0E4CF15F0E4CFD2
:1028200014F0E4CF13F0E4CF12F0E4CF11F0E4CFD2
:1028300010F0E4CF0FF0E4CF0EF0E4CF0DF0E4CFD2
:102840000CF0E4CF0BF0E4CF0AF0E4CF09F0E4CFD2
:1028500008F0E4CF07F0E4CF06F0E4CF05F0E4CFD2
:1028600004F0E4CF03F0E4CF02F0E4CF01F0E4CFD2
:1028700000F0E4CFD9FF1200D9CFE5FFE1CFD9FFB7
:1028800000C0E5FF01C0E5FF02C0E5FF03C0E5FFB2
:1028900004C0E5FF05C0E5FF06C0E5FF07C0E5FF92
:1028A00008C0E5FF09C0E5FF0AC0E5FF0BC0E5FF72
:1028B0000CC0E5FF0DC0E5FF0EC0E5FF0FC0E5FF52
:1028C00010C0E5FF11C0E5FF12C0E5FF13C0E5FF32
:1028D00014C0E5FF15C0E5FF16C0E5FF17C0E5FF12
:1028E00018C0E5FF020EDBCF00F0030EDBCF01F0D6
:1028F000040EDBCF02F0050EDBCF03F0060EDBCFBC
:1029000004F0070EDBCF05F0080EDBCF06F0090E52
:10291000DBCF07F00A0EDBCF08F00B0EDBCF09F0A0
:102920000C0EDBCF0AF00D0EDBCF0BF00E0EDBCF63
:102930000CF00F0EDBCF0DF0100EDBCF0EF0110EF2
:10294000DBCF0FF0120EDBCF10F0130EDBCF11F048
:10295000140EDBCF12F0150EDBCF13F0160EDBCF0B
:1029600014F0170EDBCF15F0180EDBCF16F03A0E71
:1029700086EC3DF0005086EC3DF02C0E86EC3DF0F0
:102980001650E56E1550E56E1450E56E1350E56E69
:10299000420EE56EC80EE56E000EE56E000EE56EA9
:1029A00017EC16F0006EF3CF13F0F4CF14F0E9CF6C
:1029B00015F0080EE1261550E56E1450E56E135023
:1029C000E56E0050E56E71EC29F0006EF3CF13F068
:1029D000F4CF14F0E9CF15F0040EE1261250E56EA5
:1029E0001150E56E1050E56E0F50E56E420EE56E2B
:1029F000C80EE56E000EE56E000EE56E17EC16F0E3
:102A00000F6EF3CF10F0F4CF11F0E9CF12F0080EF3
:102A1000E1261250E56E1150E56E1050E56E0F5034
:102A2000E56E71EC29F00F6EF3CF10F0F4CF11F0DA
:102A3000E9CF12F0040EE1260E50E56E0D50E56E62
:102A40000C50E56E0B50E56E420EE56EC80EE56E5D
:102A5000000EE56E000EE56E17EC16F00B6EF3CF70
:102A60000CF0F4CF0DF0E9CF0EF0080EE1260E5079
:102A7000E56E0D50E56E0C50E56E0B50E56E71EC99
:102A800029F00B6EF3CF0CF0F4CF0DF0E9CF0EF080
:102A9000040EE1260A50E56E0950E56E0850E56E19
:102AA0000750E56E420EE56EC80EE56E000EE56E4F
:102AB000000EE56E17EC16F0076EF3CF08F0F4CFBA
:102AC00009F0E9CF0AF0080EE1260A50E56E095038
:102AD000E56E0850E56E0750E56E71EC29F0076E63
:102AE000F3CF08F0F4CF09F0E9CF0AF0040EE126A5
:102AF0000650E56E0550E56E0450E56E0350E56E38
:102B0000420EE56EC80EE56E000EE56E000EE56E37
:102B100017EC16F0036EF3CF04F0F4CF05F0E9CF15
:102B200006F0080EE1260650E56E0550E56E0450ED
:102B3000E56E0350E56E71EC29F0036EF3CF04F0FF
:102B4000F4CF05F0E9CF06F0040EE126000E186E72
:102B50003F0E176ED20E166E1550E56E1450E56ED0
:102B60001350E56E0050E56E1250E56E1150E56EA3
:102B70001050E56E0F50E56E0E50E56E0D50E56E8F
:102B80000C50E56E0B50E56E0A50E56E0950E56E8F
:102B90000850E56E0750E56E0650E56E0550E56E8F
:102BA0000450E56E0350E56E0250E56E0150E56E8F
:102BB0001850E56E1750E56E1650E56E91EC3AF040
:102BC000190EE126E4CF18F0E4CF17F0E4CF16F0A9
:102BD000E4CF15F0E4CF14F0E4CF13F0E4CF12F01B
:102BE000E4CF11F0E4CF10F0E4CF0FF0E4CF0EF01B
:102BF000E4CF0DF0E4CF0CF0E4CF0BF0E4CF0AF01B
:102C0000E4CF09F0E4CF08F0E4CF07F0E4CF06F01A
:102C1000E4CF05F0E4CF04F0E4CF03F0E4CF02F01A
:102C2000E4CF01F0E4CF00F0E4CFD9FF1200D9CF18
:102C3000E5FFE1CFD9FF00C0E5FF01C0E5FF02C01D
:102C4000E5FF03C0E5FF04C0E5FF05C0E5FF06C0E2
:102C5000E5FF07C0E5FF08C0E5FF09C0E5FF0AC0C2
:102C6000E5FF0BC0E5FF0CC0E5FF0EC0E5FF0FC0A0
:102C7000E5FF020EDBCF00F0030EDBCF01F0040E08
:102C8000DBCF02F0050EDBCF03F0060EDBCF04F046
:102C9000070EDBCF05F0080EDBCF06F0090EDBCF09
:102CA00007F000500E01A06F0150A16F0250A26FFB
:102CB0000350A36F04500E01A46F0550A56F06507A
:102CC000A66F0750A76F0E01A051A111A211A31169
:102CD00006E00E01A451A511A611A71105E1E96AAC
:102CE000F46AF36AE86A4BD10E01A351800BE84401
:102CF000006E0E01A751800BE844001A0E01A235A8
:102D0000A335016E026A820E0126D8A002060E01CA
:102D1000A635A735046A0126045002220E01A051EF
:102D2000036EA151046E7F0EA215056E058E035031
:102D3000A06F0450A16F0550A26FA36B0E01A451A8
:102D4000036EA551046E7F0EA615056E058E035009
:102D5000A46F0450A56F0550A66FA76B0E01A1517B
:102D6000036EA251046EA351056E0E01A551076EAC
:102D7000A651086EA751E56AE56E0850E56E07504A
:102D8000E56EE56A0550E56E0450E56E0350E56EAC
:102D90001CEC21F0036EF3CF04F0F4CF05F0E9CF83
:102DA00006F0080EE1260E01A051076E0E01A55196
:102DB0000B6EA6510C6EA751E56AE56E0C50E56EE0
:102DC0000B50E56EE56AE56AE56A0750E56E1CECB6
:102DD00021F0F3CF08F0F4CF09F0E9CF0AF0080EA4
:102DE000E1260850076E0950086E0A50096E0A6AFB
:102DF00003500726045008220550092206500A22D3
:102E00000E01A451036E0E01A1510B6EA2510C6E66
:102E1000A351E56AE56E0C50E56E0B50E56EE56A70
:102E2000E56AE56A0350E56E1CEC21F0F3CF04F08F
:102E3000F4CF05F0E9CF06F0080EE1260450036E4A
:102E40000550046E0650056E066A075003260850AA
:102E50000422095005220A500622400E0326000EC5
:102E600004220522062206AE13D00350400F000EA6
:102E70000420086E000E0520096E000E06200A6E62
:102E80000850076E0950086E0A50096E0A6A11D080
:102E900003340434076E086A08360550E844FE0B14
:102EA000081205340634096E0A6A0A36FF0E012636
:102EB00002220750036E0850046E7F0E0914056E3F
:102EC0000A50066E0250800F7F0F02E1000E015C77
:102ED00019E3005006E0076A086A096A800E0A6E64
:102EE00004D0076A086A096A0A6A098E7F0E0A1204
:102EF00007500E01A06F0850A16F0950A26F0A5031
:102F0000A36F35D0D88002AED89006E30E01A06B37
:102F1000A16BA26BA36B2BD0005006E0006A076A7E
:102F2000086A800E096E04D0006A076A086A096A96
:102F3000E86A023001300F6E0E6A0E320C6A0C50D5
:102F4000001207120E5008120F50091203500012FF
:102F500004500712055008120650091200500E01C5
:102F6000A06F0750A16F0850A26F0950A36FA3CEA6
:102F7000E9FFA2CEF4FFA1CEF3FF0E01A051E4CFF2
:102F80000FF0E4CF0EF0E4CF0CF0E4CF0BF0E4CF81
:102F90000AF0E4CF09F0E4CF08F0E4CF07F0E4CF83
:102FA00006F0E4CF05F0E4CF04F0E4CF03F0E4CF83
:102FB00002F0E4CF01F0E4CF00F0E4CFD9FF12003B
:102FC00041EC33F0006E00C001F000501AE0000E3A
:102FD000036E660E026E9A0E006E0350E56E02508E
:102FE000E56E0050E56E000EE56E000EE56E000E1B
:102FF000E56E2E0EE56E0150E56E6DEC30F0080EBC
:10300000E12622EC3EF0006E00C001F000501AE014
:10301000000E036E660E026E9A0E006E0350E56E91
:103020000250E56E0050E56E000EE56E000EE56E96
:10303000000EE56E2F0EE56E0150E56E6DEC30F082
:10304000080EE126000EE56E010EE56EC20EE56E7D
:10305000000EE56E01EC35F0006E040EE12600C0B6
:1030600001F000501AE0000E036E660E026E9A0E1A
:10307000006E0350E56E0250E56E0050E56E000EE6
:10308000E56E000EE56E000EE56E300EE56E015049
:10309000E56E6DEC30F0080EE126000E026E660E55
:1030A000016EA60E006E0250E56E0150E56E0050F6
:1030B000E56E91EC3AF0030EE12686EC3CF0006EF2
:1030C00000C001F000501AE0000E036E660E026EA2
:1030D0009A0E006E0350E56E0250E56E0050E56EEC
:1030E000000EE56E000EE56E000EE56E340EE56E28
:1030F0000150E56E6DEC30F0080EE126B3EC39F0CE
:10310000006E00C001F000501AE0000E036E660E63
:10311000026E9A0E006E0350E56E0250E56E00508E
:10312000E56E000EE56E000EE56E000EE56E350EE6
:10313000E56E0150E56E6DEC30F0080EE1269FEC77
:103140003CF0006E00C001F000501AE0000E036E6B
:10315000660E026E9A0E006E0350E56E0250E56E2A
:103160000050E56E000EE56E000EE56E000EE56E99
:10317000360EE56E0150E56E6DEC30F0080EE1267E
:10318000CFEC3CF0006E00C001F000501AE0000EE1
:10319000036E660E026E9A0E006E0350E56E0250CC
:1031A000E56E0050E56E000EE56E000EE56E000E59
:1031B000E56E370EE56E0150E56E6DEC30F0080EF1
:1031C000E126A8EC3BF0006E00C001F000501AE0D0
:1031D000000E036E660E026E9A0E006E0350E56ED0
:1031E0000250E56E0050E56E000EE56E000EE56ED5
:1031F000000EE56E380EE56E0150E56E6DEC30F0B8
:10320000080EE126EEEC2DF0006E00C001F000503B
:103210001AE0000E036E660E026E9A0E006E0350E8
:10322000E56E0250E56E0050E56E000EE56E000E94
:10323000E56E000EE56E390EE56E0150E56E6DEC43
:1032400030F0080EE126B9EC3DF0006E00C001F050
:1032500000501AE0000E036E660E026E9A0E006EAB
:103260000350E56E0250E56E0050E56E000EE56E0F
:10327000000EE56E000EE56E3A0EE56E0150E56E4D
:103280006DEC30F0080EE126000E026E660E016E47
:10329000E80E006E0250E56E0150E56E0050E56EDE
:1032A00091EC3AF0030EE12675EC3DF0006E016AF8
:1032B000000E046E670E036E0E0E026E0150E56E78
:1032C0000050E56E0450E56E0350E56E0250E56E69
:1032D00091EC3AF0050EE12650EC3DF0006E016AEB
:1032E000000E046E670E036E280E026E0150E56E2E
:1032F0000050E56E0450E56E0350E56E0250E56E39
:1033000091EC3AF0050EE1263CEC3DF0006E016ACE
:10331000000E046E670E036E480E026E0150E56EDD
:103320000050E56E0450E56E0350E56E0250E56E08
:1033300091EC3AF0050EE1260BEC3BF019EC05F0B0
:10334000FBD71200D9CFE5FFE1CFD9FF00C0E5FFE1
:1033500001C0E5FF02C0E5FF03C0E5FF04C0E5FFD3
:1033600005C0E5FF06C0E5FF07C0E5FF08C0E5FFB3
:1033700009C0E5FF0AC0E5FF0BC0E5FF0CC0E5FF93
:103380000DC0E5FF0EC0E5FF0FC0E5FF10C0E5FF73
:10339000020EDBCF00F0030EDBCF01F0040EDBCF1B
:1033A00002F0050EDBCF03F0060EDBCF04F0070EB4
:1033B000DBCF05F0080EDBCF06F0090EDBCF07F000
:1033C000086A096A0A6A0B6A00500E01946F01507C
:1033D000956F0250966F0350976F04500E01986FCF
:1033E0000550996F06509A6F07509B6F0E019451CC
:1033F00095119611971109E19BCEE9FF9ACEF4FF42
:1034000099CEF3FF0E0198512ED10E0198519911CA
:103410009A119B1109E197CEE9FF96CEF4FF95CE64
:10342000F3FF0E0194511FD10E0196359735006EB2
:10343000016A0136026A036A016A0E019A359B35F8
:10344000026E190F046E000E0320800FF36E015000
:10345000800FF35C02E10050045C09E297CEE9FFC3
:1034600096CEF4FF95CEF3FF0E019451FCD00050A0
:10347000190F046E000E0120800FF36E0350800FB1
:10348000F35C02E10250045C09E29BCEE9FF9ACEB4
:10349000F4FF99CEF3FF0E019851E5D00E0194513F
:1034A000046E9551056E7F0E9615066E076A068EA0
:1034B0000E0198510C6E99510D6E7F0E9A150E6E7D
:1034C0000F6A0E8E0E019751800BE844106E10505B
:1034D0000AE0071E061E051E046C05E1052A03E12D
:1034E000062AD8B4072A0E019B51800BE844106EBF
:1034F00010500AE00F1E0E1E0D1E0C6C05E10D2A69
:1035000003E10E2AD8B40F2A0350800FF36E015046
:10351000800FF35C02E10050025C11E20050106E7B
:103520000250105E10501FE0E86CD8900FBED8809B
:103530000F320E320D320C32010FF8E314D002506C
:10354000106E0050105E10500AE0E86CD89007BE74
:10355000D8800732063205320432010FF8E302C088
:1035600000F003C001F00C500424046E0D5005203F
:10357000056E0E500620026E0F500720036ED88095
:1035800003AED89010E3031E021E051E046C05E175
:10359000052A03E1022AD8B4032A086A096A0A6ADA
:1035A000800E0B6E0AD0045005100210031005E1C6
:1035B000E96AF46AF36AE86A56D00450066E055068
:1035C000076E02500C6E03500D6E000E0D5C08E18C
:1035D000800E0C5C05E1000E075C02E1000E065C4B
:1035E00009E204500426053602360336FF0E002693
:1035F0000122E3D7035010E004A006D0020E0426F7
:10360000000E052202220322033403320232053265
:103610000432004A012AEED7029EE86A01300030E7
:103620000F6E0E6A0E320C6A0C50081209120E5000
:103630000A120F500B1204500812055009120250C2
:103640000A1203500B1208500E01946F0950956F27
:103650000A50966F0B50976F97CEE9FF96CEF4FF06
:1036600095CEF3FF9451E4CF10F0E4CF0FF0E4CF08
:103670000EF0E4CF0DF0E4CF0CF0E4CF0BF0E4CF8C
:103680000AF0E4CF09F0E4CF08F0E4CF07F0E4CF8C
:1036900006F0E4CF05F0E4CF04F0E4CF03F0E4CF8C
:1036A00002F0E4CF01F0E4CF00F0E4CFD9FF120044
:1036B000D9CFE5FFE1CFD9FF00C0E5FF01C0E5FFAD
:1036C00002C0E5FF03C0E5FF04C0E5FF05C0E5FF5C
:1036D00006C0E5FF07C0E5FF08C0E5FF09C0E5FF3C
:1036E0000AC0E5FF0BC0E5FF020EDBCF00F0030EC2
:1036F000DBCF01F0040EDBCF02F0050EDBCF03F0D1
:10370000005001100210031008E103C0E9FF02C0DD
:10371000F4FF01C0F3FF005058D13F0EE56E800E5C
:10372000E56EE56AE56A0350E56E0250E56E01500C
:10373000E56E0050E56E6EEC35F0046E080EE12685
:10374000045007E03F0EE96E800EF46EF36AE86AFB
:103750003CD1E56AE56AE56AE56A0350E56E025028
:10376000E56E0150E56E0050E56E31EC2BF0046E15
:10377000080EE126045009E0210E04012B6F2C6B8A
:10378000E96AF46AF36AE86A20D1800EE56E040EF5
:10379000E56E290EE56E0350E56E0250E56E0150B0
:1037A000E56E0050E56EF0EC2EF0006EF3CF01F008
:1037B000F4CF02F0E9CF03F0070EE1260350E56EE7
:1037C0000250E56E0150E56E0050E56E3F0EE56E6D
:1037D000170EE56E140EE56EBA0EE56E17EC16F0D8
:1037E000046EF3CF05F0F4CF06F0E9CF07F0080E32
:1037F000E1263E0EE56ED50EE56EA90EE56EA80E2D
:10380000E56E0750E56E0650E56E0550E56E045016
:10381000E56EA2EC19F0046EF3CF05F0F4CF06F0DC
:10382000E9CF07F0080EE1260750E56E0650E56E79
:103830000550E56E0450E56E0350E56E0250E56EEE
:103840000150E56E0050E56E00EC1DF0086EF3CF00
:1038500009F0F4CF0AF0E9CF0BF0080EE1260B5087
:10386000E56E0A50E56E0950E56E0850E56E0750AA
:10387000E56E0650E56E0550E56E0450E56EA2EC6F
:1038800019F0046EF3CF05F0F4CF06F0E9CF07F09E
:10389000080EE126E568FE0EE56E0750E56E06505F
:1038A000E56E0550E56E0450E56E6FEC2EF0086E87
:1038B000F3CF09F0F4CF0AF0E9CF0BF0060EE126C2
:1038C0000750E56E0650E56E0550E56E0450E56E56
:1038D0000350E56E0250E56E0150E56E0050E56E56
:1038E00000EC1DF0006EF3CF01F0F4CF02F0E9CF51
:1038F00003F0080EE1260350E56E0250E56E01501C
:10390000E56E0050E56E0B50E56E0A50E56E09500D
:10391000E56E0850E56EA2EC19F0006EF3CF01F0F1
:10392000F4CF02F0E9CF03F0080EE126040129A14B
:103930001FD00350E56E0250E56E0150E56E005059
:10394000E56E3F0EE56E350EE56E040EE56EF30E88
:10395000E56E17EC16F0006EF3CF01F0F4CF02F035
:10396000E9CF03F0080EE1260401293F01D02A2BFC
:10397000E56A020EE56E04012A51E56E2951E56EF5
:1039800054EC32F0046EF3CF05F0040EE12605503E
:10399000E56E0450E56E0350E56E0250E56E015091
:1039A000E56E0050E56E6FEC2EF0006EF3CF01F087
:1039B000F4CF02F0E9CF03F0060EE12603C0E9FFE1
:1039C00002C0F4FF01C0F3FF0050E4CF0BF0E4CFDE
:1039D0000AF0E4CF09F0E4CF08F0E4CF07F0E4CF39
:1039E00006F0E4CF05F0E4CF04F0E4CF03F0E4CF39
:1039F00002F0E4CF01F0E4CF00F0E4CFD9FF1200F1
:103A0000D9CFE5FFE1CFD9FF00C0E5FF01C0E5FF59
:103A100002C0E5FF03C0E5FF04C0E5FF05C0E5FF08
:103A200006C0E5FF07C0E5FF08C0E5FF09C0E5FFE8
:103A30000AC0E5FF0BC0E5FF0CC0E5FF0DC0E5FFC8
:103A40000EC0E5FF0FC0E5FF10C0E5FF11C0E5FFA8
:103A500012C0E5FF020EDBCF00F0030EDBCF01F05A
:103A6000040EDBCF02F0050EDBCF03F0060EDBCF3A
:103A700004F0070EDBCF05F0080EDBCF06F0090ED1
:103A8000DBCF07F000500401146F0150156F025096
:103A9000166F0350176F04500401186F0550196F0B
:103AA00006501A6F07501B6F04011651026E175112
:103AB000036E02340334006E016A0136026A036A3F
:103AC000016A04011A51046E1B51056E0434053459
:103AD000005C026E03500158036E02507E0F006EB0
:103AE000000E0320016E04011751800BE844026EA2
:103AF00004011B51800BE844021A185119111A11C4
:103B00001B110EE1186B196BC00E1A6F7F0E1B6F25
:103B10001BC4E9FF1AC4F4FF19C4F3FF1851E3D022
:103B20000401145115111611171105E1E96AF46A1F
:103B3000F36AE86AD8D004011451036E1551046E7B
:103B40007F0E1615056E066A058E04011851076E64
:103B50001951086E7F0E1A15096E0A6A098E0650F1
:103B6000800FF36E0A50800FF35C08E10950055C8A
:103B700005E10850045C02E10750035C08E20350D1
:103B80000326043605360636FF0E002601220B6A90
:103B90000C6A0D6A010E0E6E0F6A106A116A126AC3
:103BA0000B500C100D100E102BE00650800FF36E12
:103BB0000A50800FF35C08E10950055C05E10850EC
:103BC000045C02E10750035C10E30B500F120C5031
:103BD00010120D5011120E5012120750035E0850B1
:103BE000045A0950055A0A50065A0350032604364F
:103BF00005360636D8900E320D320C320B32D0D745
:103C00000F2A04E3102A02E3114A122A004A012A69
:103C100012341232113210320F320F50036E105024
:103C2000046E7F0E1114056E1250066E0150800F47
:103C30007F0F02E1000E005C19E3025006E0076A04
:103C4000086A096A800E0A6E04D0076A086A096A5F
:103C50000A6A098E7F0E0A1207500401146F085079
:103C6000156F0950166F0A50176F35D0D88001AE06
:103C7000D89006E30401146B156B166B176B2BD0F1
:103C8000025006E0026A076A086A800E096E04D0D4
:103C9000026A076A086A096AE86A013000300F6E32
:103CA0000E6A0E320C6A0C50021207120E500812E5
:103CB0000F50091203500212045007120550081247
:103CC0000650091202500401146F0750156F085076
:103CD000166F0950176F17C4E9FF16C4F4FF15C417
:103CE000F3FF04011451E4CF12F0E4CF11F0E4CF5C
:103CF00010F0E4CF0FF0E4CF0EF0E4CF0DF0E4CFFE
:103D00000CF0E4CF0BF0E4CF0AF0E4CF09F0E4CFFD
:103D100008F0E4CF07F0E4CF06F0E4CF05F0E4CFFD
:103D200004F0E4CF03F0E4CF02F0E4CF01F0E4CFFD
:103D300000F0E4CFD9FF1200D9CFE5FFE1CFD9FFE2
:103D400000C0E5FF01C0E5FF02C0E5FF03C0E5FFDD
:103D500004C0E5FF05C0E5FF06C0E5FF07C0E5FFBD
:103D6000020EDBCF00F00050610A14E00050620A3E
:103D700024E00050630A01E157D00050640A01E1D9
:103D800068D00050720A01E179D00050760A01E152
:103D900095D0CFD0000E026E3F0E016E9C0E006ECD
:103DA0000250E56E0150E56E0050E56E410EE56E85
:103DB000FFEC39F0040EE126DED03AEC36F0006E6E
:103DC000016A000E046E3F0E036E9E0E026E0E0E12
:103DD000066E420E056E800E076E0150E56E0050B5
:103DE000E56E0450E56E0350E56E0250E56E075037
:103DF000E56E0650E56E0550E56E64EC2DF0080E9C
:103E0000E1260E0E016E420E006E800E026E025012
:103E1000E56E0150E56E0050E56E410EE56EFFEC7B
:103E200039F0040EE126A7D0000E026E3F0E016E9F
:103E30009C0E006E0250E56E0150E56E0050E56E7E
:103E4000410EE56EFFEC39F0040EE12628EC3DF062
:103E500092D0000E026E3F0E016E9C0E006E02505C
:103E6000E56E0150E56E0050E56E410EE56EFFEC2B
:103E700039F0040EE12613EC3DF07DD0000E026E09
:103E80003F0E016E9C0E006E0250E56E0150E56E15
:103E90000050E56E410EE56EFFEC39F0040EE126B0
:103EA000000EE56E000EE56E030EE56EE80EE56EA3
:103EB0000EEC38F0040EE126FF005DD0000E026E1D
:103EC0003F0E016EA20E006E0E0E046E420E036EC9
:103ED000800E056E000EE56E000EE56E000EE56EBE
:103EE000010EE56E000EE56E010EE56E0250E56E08
:103EF0000150E56E0050E56E0550E56E0450E56E2C
:103F00000350E56E64EC2DF00C0EE1260E0E016EF2
:103F1000420E006E800E026E0250E56E0150E56E9C
:103F20000050E56E410EE56EFFEC39F0040EE1261F
:103F300022D0000E026E3F0E016EAC0E006E0250DB
:103F4000E56E0150E56E0050E56E91EC3AF0030E1F
:103F5000E126000E026E3F0E016ECA0E006E025088
:103F6000E56E0150E56E0050E56E420EE56EFFEC29
:103F700039F0040EE126E4CF07F0E4CF06F0E4CFF9
:103F800005F0E4CF04F0E4CF03F0E4CF02F0E4CF97
:103F900001F0E4CF00F0E4CFD9FF12003000256437
:103FA000000025642E25642E256400003C65727295
:103FB0006F723E096170703A20494E56414C494437
:103FC0005F4F50434F44450A0D00000025730A0D12
:103FD000000025642C256C6420256C6420256C640D
:103FE00020256C6420256C640A0D0000D9CFE5FF04
:103FF000E1CFD9FF00C0E5FF01C0E5FF02C0E5FF4A
:1040000003C0E5FF04C0E5FF05C0E5FF06C0E5FF0E
:10401000060E0E01085D34E2010E0E010815006E59
:10402000016A0150E56E0050E56E000EE56E030E6C
:10403000E56E14EC39F0006EF3CF01F0040EE126CA
:10404000680E00260E0E01220150016E0050006E17
:10405000800E026E0E0108417F0B036E030E0316E5
:104060000350E56E0250E56E0150E56E0050E56EBE
:104070004DEC2CF0006EF3CF01F0040EE12633D0AE
:1040800008CE02F0036A010E0214046E056A042AC7
:10409000042A0450030DF45004BE0308056EF3CF48
:1040A00004F0680E04260E0E05220550056E04501D
:1040B000046E800E066E020E0226D8B0032A033468
:1040C00003320232030E02160250E56E0650E56E10
:1040D0000550E56E0450E56E4DEC2CF0006EF3CF0C
:1040E00001F0040EE1260E0108B120D00E010B51A3
:1040F000E56E0E010A51E56E000EE56E020EE56EEC
:1041000014EC39F0026EF3CF03F0040EE126000E3A
:104110000226010E032202C0E9FF03C0EAFF00C02D
:10412000EEFF01C0EFFF0E01082B24D00E010B5152
:10413000E56E0E010A51E56E000EE56E020EE56EAB
:1041400014EC39F0026EF3CF03F0040EE126000EFA
:104150000226020E032202C0E9FF03C0EAFF00C0EC
:10416000EEFF01C0EFFF0E0108070E010A3F02D06B
:104170000E010B2B0E010A51006E0E010B51016E48
:10418000000E015C02E1800E005C07E3010E0E01EF
:10419000076F0E010A6B0E010B6BE4CF06F0E4CF44
:1041A00005F0E4CF04F0E4CF03F0E4CF02F0E4CF75
:1041B00001F0E4CF00F0E4CFD9FF12004C31410010
:1041C0004C3241004C3341004C3142004C324200F1
:1041D0004C3342003C6572726F723E096170703AF6
:1041E000204E6F2076616C69642063757272656E13
:1041F0007420747970650A0D00003C696E666F3E2C
:10420000096170703A205B25735D20256C64206D18
:10421000562C20256C64206D412C20256C64204890
:104220007A2C205670683A20256C642C20497068DE
:104230003A20256C640A0D00D9CFE5FFE1CFD9FF04
:1042400000C0E5FF01C0E5FF02C0E5FF03C0E5FFD8
:1042500004C0E5FF05C0E5FF06C0E5FF07C0E5FFB8
:10426000020EDBCF00F0030EDBCF01F0040EDBCF3C
:1042700002F0050EDBCF03F0060EDBCF04F0070ED5
:10428000DBCF05F0080EDBCF06F0090EDBCF07F021
:1042900000500E01A86F0150A96F0250AA6F035081
:1042A000AB6F04500E01AC6F0550AD6F0650AE6F92
:1042B0000750AF6F0E01A8510E01AE03F4CF01F00D
:1042C000F3CF00F000500E01B26F0150B36F0E013A
:1042D000A8510E01AC03F4CF01F0F3CF00F0005071
:1042E0000E01B06F0150B16F0E01AB510E01AC0366
:1042F000F3CF00F00E01B35100260050B36F0E0152
:10430000AA510E01AD03F3CF01F001500026005079
:104310000E01B36F0E01AA510E01AC03F4CF01F0F0
:10432000F3CF00F00E01B251026EB351036E005094
:104330000226015003220250B26F0350B36F0E01E8
:10434000A9510E01AD03F4CF01F0F3CF00F00050FE
:1043500002260150032202500E01B26F0350B36FC8
:104360000E01A9510E01AE03F3CF00F000500E0173
:10437000B76F0E01A9510E01AC03F4CF01F0F3CFDA
:1043800000F000500E01B56F0150B66F0E01A8513C
:104390000E01AF03F3CF00F000500E01BB6F0E0112
:1043A000A8510E01AD03F4CF01F0F3CF00F000509F
:1043B0000E01B96F0150BA6F0E01B46B0E01B86BEC
:1043C0000E01B4510E01B025006E0E01B5510E0163
:1043D000B121016E0E01B6510E01B221026E0E0125
:1043E000B7510E01B321036E0050B06F0150B16F91
:1043F0000250B26F0350B36F0E01B8510E01B025D9
:10440000006E0E01B9510E01B121016E0E01BA51BB
:104410000E01B221026E0E01BB510E01B321036EDB
:1044200003C0E9FF02C0F4FF01C0F3FF0050E4CF76
:1044300007F0E4CF06F0E4CF05F0E4CF04F0E4CFDA
:1044400003F0E4CF02F0E4CF01F0E4CF00F0E4CFDA
:10445000D9FF1200D9CFE5FFE1CFD9FF00C0E5FFBA
:1044600001C0E5FF02C0E5FF03C0E5FF020EDBCFA0
:1044700000F0030EDBCF01F00E01035102E1040E48
:10448000E1D00F0E0014026E00380F0B006E0F0EFD
:104490000016040E005CD8B0D4D0FA6AFB6A00346F
:1044A000FA36E834FA36FC0BB80FE56E440EFA2201
:1044B000000EFB22E450F96E64EF22F094EF22F03C
:1044C000C4EF22F0F4EF22F0015016E00250006E2B
:1044D000010E036E00500DE006E6E86CD89003363E
:1044E000010FFDE306D0D89003BED8800332010F40
:1044F000FBE303509212A5D00250006E010E036E32
:1045000000500DE006E6E86CD8900336010FFDE39D
:1045100006D0D89003BED8800332010FFBE3031C02
:10452000006E005092168DD0015016E00250006EC1
:10453000010E036E00500DE006E6E86CD8900336DD
:10454000010FFDE306D0D89003BED8800332010FDF
:10455000FBE30350931275D00250006E010E036E00
:1045600000500DE006E6E86CD8900336010FFDE33D
:1045700006D0D89003BED8800332010FFBE3031CA2
:10458000006E005093165DD0015016E00250006E90
:10459000010E036E00500DE006E6E86CD89003367D
:1045A000010FFDE306D0D89003BED8800332010F7F
:1045B000FBE30350941245D00250006E010E036ECF
:1045C00000500DE006E6E86CD8900336010FFDE3DD
:1045D00006D0D89003BED8800332010FFBE3031C42
:1045E000006E005094162DD0015016E00250006E5F
:1045F000010E016E00500DE006E6E86CD890013621
:10460000010FFDE306D0D89001BED8800132010F22
:10461000FBE30150951215D0010E006E02500DE023
:1046200006E6E86CD8900036010FFDE306D0D8907E
:1046300000BED8800032010FFBE3001C026E025066
:104640009516E86AE4CF03F0E4CF02F0E4CF01F07E
:10465000E4CF00F0E4CFD9FF1200D9CFE5FFE1CFDE
:10466000D9FF00C0E5FF01C0E5FF02C0E5FF03C0C0
:10467000E5FF04C0E5FF05C0E5FF06C0E5FF07C094
:10468000E5FF08C0E5FF09C0E5FF0AC0E5FF0BC074
:10469000E5FF0CC0E5FF0DC0E5FF0EC0E5FF0FC054
:1046A000E5FF020EDBCF00F0030EDBCF01F0040EBE
:1046B000DBCF02F0050EDBCF03F0060EDBCF04F0FC
:1046C000070EDBCF05F0080EDBCF06F0200E076EDD
:1046D000086A06C009F00A6A0B6A0C6AE56AE56AAC
:1046E000E56A0950E56E0350E56E0250E56E015033
:1046F000E56E0050E56E9CEC27F00D6E080EE1268D
:10470000300E0D263A0E0D5C05E30D500E6E270E91
:104710000E240D6EFF0E07260822220E07240E6EB1
:104720000E0E08200F6E0EC0E9FF0FC0EAFF0DC08D
:10473000EFFF0C50E56E0B50E56E0A50E56E095028
:10474000E56E0350E56E0250E56E0150E56E0050D7
:10475000E56EC0EC2BF0006EF3CF01F0F4CF02F069
:10476000E9CF03F0080EE1260050011002100310FB
:10477000D8A4AFD707C000F008C001F004C002F011
:1047800005C003F0220E0024046E0E0E0120056EFB
:10479000004A012A04C0E9FF05C0EAFFEFCF04F098
:1047A00002C0E9FF03C0EAFF04C0EFFF024A032A88
:1047B000000E015C02E1200E005CE4E302C0E9FFB0
:1047C00003C0EAFF000EEF6AE4CF0FF0E4CF0EF073
:1047D000E4CF0DF0E4CF0CF0E4CF0BF0E4CF0AF01F
:1047E000E4CF09F0E4CF08F0E4CF07F0E4CF06F01F
:1047F000E4CF05F0E4CF04F0E4CF03F0E4CF02F01F
:10480000E4CF01F0E4CF00F0E4CFD9FF1200D9CF1C
:10481000E5FFE1CFD9FF00C0E5FF01C0E5FF02C021
:10482000E5FF03C0E5FF04C0E5FF05C0E5FF06C0E6
:10483000E5FF07C0E5FF08C0E5FF09C0E5FF0AC0C6
:10484000E5FF0BC0E5FF0CC0E5FF0DC0E5FF0EC0A6
:10485000E5FF0FC0E5FF10C0E5FF11C0E5FF020E48
:10486000DBCF00F0030EDBCF01F0040EDBCF02F054
:10487000050EDBCF03F0060EDBCF04F0070EDBCF17
:1048800005F0080EDBCF06F0090EDBCF07F00A0EAD
:10489000DBCF08F000C0E9FF01C0F3FF0250A8EC35
:1048A0003DF0096E095002E1040E5FD0002A02E3D8
:1048B000014A022A096A0A6A0B6A0C6A09500D6EDB
:1048C0000A500E6E07500E5C02E106500D5CD8B027
:1048D0004BD000C0E9FF01C0F3FF0250A8EC3DF04F
:1048E0000D6E0D50E56ED5EC28F0E6520B500D6EB6
:1048F0000C500E6E0F6A03500D2604500E22055008
:104900000F220850E56EF1EC2FF0106EF3CF11F08E
:10491000E65210C0E5FF11C0F4FF0DC0E9FF0EC064
:10492000F3FF0F5015EC3EF000C0E9FF01C0F3FFAC
:104930000250A8EC3DF00D6E0D50E56E9DEC2AF096
:10494000E652000EE56E000EE56E000EE56E010EFD
:10495000E56E0EEC38F0040EE126020E0B26D8B000
:104960000C2A094A0A2AAAD7E86AE4CF11F0E4CF50
:1049700010F0E4CF0FF0E4CF0EF0E4CF0DF0E4CF71
:104980000CF0E4CF0BF0E4CF0AF0E4CF09F0E4CF71
:1049900008F0E4CF07F0E4CF06F0E4CF05F0E4CF71
:1049A00004F0E4CF03F0E4CF02F0E4CF01F0E4CF71
:1049B00000F0E4CFD9FF1200D9CFE5FFE1CFD9FF56
:1049C00000C0E5FF01C0E5FF02C0E5FF03C0E5FF51
:1049D00004C0E5FF05C0E5FF06C0E5FF07C0E5FF31
:1049E00008C0E5FF09C0E5FF0AC0E5FF0BC0E5FF11
:1049F000020EDBCF00F0030EDBCF01F0040EDBCFA5
:104A000002F0050EDBCF03F000500110021003107E
:104A100005E1E96AF46AF36AE86A6ED0960E046EFC
:104A2000056A035008E0D8900332023201320032A6
:104A3000044A052AF6D704C006F005C007F0000EA8
:104A4000035C08E1800E025C05E1000E015C02E1FE
:104A5000000E005C18E200500026013602360336D4
:104A6000FF0E04260522000E035C08E1800E025CA6
:104A700005E1000E015C02E1000E005CECE304C005
:104A800006F005C007F00050046E0150056E7F0E61
:104A90000214086E096A0450FF0A08E10550FF0A73
:104AA00005E108507F0A02E1095001E006D0006AE2
:104AB000016A026A036A064A072A029EE86A073008
:104AC00006300B6E0A6A0A32086A08500012011298
:104AD0000A5002120B500312005004011C6F0150C7
:104AE0001D6F02501E6F03501F6F1FC4E9FF1EC4CD
:104AF000F4FF1DC4F3FF1C51E4CF0BF0E4CF0AF028
:104B0000E4CF09F0E4CF08F0E4CF07F0E4CF06F0FB
:104B1000E4CF05F0E4CF04F0E4CF03F0E4CF02F0FB
:104B2000E4CF01F0E4CF00F0E4CFD9FF1200D9CFF9
:104B3000E5FFE1CFD9FF00C0E5FF01C0E5FF02C0FE
:104B4000E5FF03C0E5FF04C0E5FF05C0E5FF06C0C3
:104B5000E5FF07C0E5FF08C0E5FF09C0E5FF0AC0A3
:104B6000E5FF020EDBCF00F0030EDBCF01F0040EF9
:104B7000DBCF02F0000EE56E000EE56EFB0EE56E7B
:104B8000000EE56E67EC38F0040EE1260250026E6E
:104B90000150016E0050006E036A046A0450800FD9
:104BA000800F02E1050E035CD8B058D00350056EAB
:104BB0000450066E076A0050052601500622025076
:104BC000072205C0E9FF06C0F3FF0750A8EC3DF03F
:104BD000056E0450800F800F02E1040E035C16E2A4
:104BE0000350010F066E000E0420076E086A005085
:104BF0000626015007220250082206C0E9FF07C01E
:104C0000F3FF0850A8EC3DF0066E02D0FF0E066ED2
:104C1000076A0650096E086A0A6A055008120A50A7
:104C200009120350056E0450066EFB0E0626076A35
:104C30000A6A0950E56E0850E56E0A50E56E0750A5
:104C4000E56E0650E56E0550E56E24EC34F0060E78
:104C5000E126020E0326D8B0042AA0D7E86AE4CFE2
:104C60000AF0E4CF09F0E4CF08F0E4CF07F0E4CF96
:104C700006F0E4CF05F0E4CF04F0E4CF03F0E4CF96
:104C800002F0E4CF01F0E4CF00F0E4CFD9FF12004E
:104C9000D9CFE5FFE1CFD9FF00C0E5FF01C0E5FFB7
:104CA00002C0E5FF03C0E5FF04C0E5FF05C0E5FF66
:104CB00006C0E5FF07C0E5FF08C0E5FF09C0E5FF46
:104CC0000AC0E5FF0BC0E5FF020EDBCF00F0030ECC
:104CD000DBCF01F0040EDBCF02F0050EDBCF03F0DB
:104CE000060EDBCF04F0070EDBCF05F0080EDBCF9E
:104CF00006F00E01025102E1040E59D0FF0E00260B
:104D00000122022203220350E56E0250E56E01509B
:104D1000E56E0050E56E67EC38F0040EE126006A9F
:104D2000016A0150800F800F02E1100E005CD8B0C4
:104D30003DD0026A036A0350800F800F02E1400EEB
:104D4000025C27E2B00E0224076E000E0320086EFC
:104D500002500024096E035001200A6E0B6A0450B1
:104D6000092605500A2206500B2209C0E9FF0AC095
:104D7000F3FF0B50A8EC3DF0096E07C0E9FF08C037
:104D8000EAFF09C0EFFF09C0F5FF0D00024A032A40
:104D9000D2D7A684F29E550EA76EAA0EA76EA68243
:104DA000F28EA694A696004A012ABBD7E86AE4CF01
:104DB0000BF0E4CF0AF0E4CF09F0E4CF08F0E4CF41
:104DC00007F0E4CF06F0E4CF05F0E4CF04F0E4CF41
:104DD00003F0E4CF02F0E4CF01F0E4CF00F0E4CF41
:104DE000D9FF1200D9CFE5FFE1CFD9FF00C0E5FF21
:104DF00001C0E5FF02C0E5FF03C0E5FF04C0E5FF19
:104E000005C0E5FF06C0E5FF07C0E5FF020EDBCFEA
:104E100000F0030EDBCF01F0040EDBCF02F0050E35
:104E2000DBCF03F0060EDBCF04F0070EDBCF05F07F
:104E3000080EDBCF06F0090EDBCF07F000500401AF
:104E4000046F0150056F0250066F0350076F045046
:104E50000401086F0550096F06500A6F07500B6F69
:104E6000085109110A110B1109E107C4E9FF06C431
:104E7000F4FF05C4F3FF040104514BD004010451B5
:104E800005110611071111E108C400F009C401F071
:104E90000AC402F00BC403F0037E03C0E9FF02C0A2
:104EA000F4FF01C0F3FF005034D004010851006E3C
:104EB0000951016E0A51026E800E0B19036E0050EB
:104EC000086F0150096F02500A6F03500B6FE56EB7
:104ED0000A51E56E0951E56E0851E56E040107516E
:104EE000E56E0651E56E0551E56E0451E56EA2ECE6
:104EF00019F0006EF3CF01F0F4CF02F0E9CF03F028
:104F0000080EE12603C0E9FF02C0F4FF01C0F3FF71
:104F10000050E4CF07F0E4CF06F0E4CF05F0E4CF93
:104F200004F0E4CF03F0E4CF02F0E4CF01F0E4CFEB
:104F300000F0E4CFD9FF1200D9CFE5FFE1CFD9FFD0
:104F400000C0E5FF01C0E5FF02C0E5FF03C0E5FFCB
:104F500004C0E5FF05C0E5FF06C0E5FF07C0E5FFAB
:104F600008C0E5FF09C0E5FF0AC0E5FF020EDBCF80
:104F700000F0030EDBCF01F0040EDBCF02F0050ED4
:104F8000DBCF03F0060EDBCF04F0070EDBCF05F01E
:104F9000080EDBCF06F0090EDBCF07F0086A0450DD
:104FA00005100610071005E1E968F468F368E86881
:104FB00047D0096A0750800BE8440A6E0A501BE18B
:104FC000045004260536063607360750035C08E110
:104FD0000650025C05E10550015C02E10450005CF2
:104FE00006E2D890073206320532043204D0092A8C
:104FF00009C008F0DFD70750035C08E10650025CE7
:1050000005E10550015C02E10450005C08E3045036
:10501000005E0550015A0650025A0750035AD890B4
:10502000073206320532043208C009F0080609507A
:10503000E2E103C0E9FF02C0F4FF01C0F3FF00504A
:10504000E4CF0AF0E4CF09F0E4CF08F0E4CF07F0B2
:10505000E4CF06F0E4CF05F0E4CF04F0E4CF03F0B2
:10506000E4CF02F0E4CF01F0E4CF00F0E4CFD9FFC9
:105070001200D9CFE5FFE1CFD9FF00C0E5FF01C0A5
:10508000E5FF02C0E5FF020EDBCF00F00E01035189
:1050900002E1040E81D00F0E0014016E00380F0BD8
:1050A000026E0F0E0216040E025CD8B074D0FA6ABB
:1050B000FB6A0234FA36E834FA36FC0BCC0FE56EA4
:1050C000500EFA22000EFB22E450F96E6EEF28F02B
:1050D00085EF28F09CEF28F0B3EF28F089CF02F09D
:1050E000015005E0E86CD8900232010FFDE302A008
:1050F00006D00050E56E9DEC2AF0E6524CD00050F0
:10510000E56ED5EC28F0E65246D08ACF02F0015089
:1051100005E0E86CD8900232010FFDE302A006D052
:105120000050E56E9DEC2AF0E65235D00050E56E59
:10513000D5EC28F0E6522FD08BCF02F0015005E0DD
:10514000E86CD8900232010FFDE302A006D00050B7
:10515000E56E9DEC2AF0E6521ED00050E56ED5ECCF
:1051600028F0E65218D00150E96E8CCF01F0E950DA
:1051700005E0E86CD8900132010FFDE301A006D0F4
:105180000050E56E9DEC2AF0E65205D00050E56E29
:10519000D5EC28F0E652E86AE4CF02F0E4CF01F063
:1051A000E4CF00F0E4CFD9FF1200D9CFE5FFE1CF83
:1051B000D9FF00C0E5FF01C0E5FF02C0E5FF020E18
:1051C000DBCF00F00E01035102E1040E81D00F0E7F
:1051D0000014016E00380F0B006E0F0E0016040E47
:1051E000005CD8B074D0FA6AFB6A0034FA36E8344E
:1051F000FA36FC0B040FE56E520EFA22000EFB226B
:10520000E450F96E0AEF29F022EF29F03AEF29F085
:1052100052EF29F00150006E010E026E00500DE0B9
:1052200006E6E86CD8900236010FFDE306D0D89070
:1052300002BED8800232010FFBE3021C006E005058
:10524000891645D00150006E010E026E00500DE02F
:1052500006E6E86CD8900236010FFDE306D0D89040
:1052600002BED8800232010FFBE3021C006E005028
:105270008A162DD00150006E010E026E00500DE016
:1052800006E6E86CD8900236010FFDE306D0D89010
:1052900002BED8800232010FFBE3021C006E0050F8
:1052A0008B1615D0010E006E01500DE006E6E86C7D
:1052B000D8900036010FFDE306D0D89000BED8800C
:1052C0000032010FFBE3001C016E01508C16E86AEE
:1052D000E4CF02F0E4CF01F0E4CF00F0E4CFD9FF57
:1052E0001200D9CFE5FFE1CFD9FF00C0E5FF01C033
:1052F000E5FF02C0E5FF03C0E5FF04C0E5FF05C010
:10530000E5FF06C0E5FF07C0E5FF020EDBCF00F0BA
:10531000030EDBCF01F0040EDBCF02F0050EDBCF76
:1053200003F0005001100210031005E1E96AF46A6D
:10533000F36AE86A5BD0E56AE56AE56AE56A035004
:10534000E56E0250E56E0150E56E0050E56E31EC01
:105350002BF0046E080EE12604502EE000C004F08D
:1053600001C005F002C006F003C007F0077E075039
:10537000E56E0650E56E0550E56E0450E56ECBEC2B
:1053800032F0046EF3CF05F0F4CF06F0E9CF07F06A
:10539000040EE126071E061E051E046C05E1052A03
:1053A00003E1062AD8B4072A07C0E9FF06C0F4FFC4
:1053B00005C0F3FF04501AD00350E56E0250E56EAD
:1053C0000150E56E0050E56ECBEC32F0006EF3CF8D
:1053D00001F0F4CF02F0E9CF03F0040EE12603C0A0
:1053E000E9FF02C0F4FF01C0F3FF0050E4CF07F073
:1053F000E4CF06F0E4CF05F0E4CF04F0E4CF03F00F
:10540000E4CF02F0E4CF01F0E4CF00F0E4CFD9FF25
:105410001200D9CFE5FFE1CFD9FF00C0E5FF01C001
:10542000E5FF02C0E5FF03C0E5FF04C0E5FF05C0DE
:10543000E5FF06C0E5FF07C0E5FF08C0E5FF09C0BE
:10544000E5FF0AC0E5FF0BC0E5FF0CC0E5FF020E5B
:10545000DBCF00F0030EDBCF01F0040EDBCF02F058
:10546000050EDBCF03F0060EDBCF04F0070EDBCF1B
:1054700005F0080EDBCF06F0090EDBCF07F00A0EB1
:10548000DBCF08F00E01025102E1040E39D00250C8
:10549000096E03500A6E0B6A0C6A1F0E0914F86E2F
:1054A0000050096E01500A6E0A50096E0A6A0950CE
:1054B000F76E0050F66E006A016A0050026E0150ED
:1054C000036E0850035C02E10750025C18E2090019
:1054D0000050026E0150036E096A04500226055006
:1054E000032206500922F5CFE5FF02C0E9FF03C001
:1054F000F3FF09502EEC3EF0004A012ADED7E86A9D
:10550000E4CF0CF0E4CF0BF0E4CF0AF0E4CF09F0E5
:10551000E4CF08F0E4CF07F0E4CF06F0E4CF05F0E5
:10552000E4CF04F0E4CF03F0E4CF02F0E4CF01F0E5
:10553000E4CF00F0E4CFD9FF1200D9CFE5FFE1CFEF
:10554000D9FF00C0E5FF01C0E5FF02C0E5FF020E84
:10555000DBCF00F00E01035102E1040E79D00F0EF3
:105560000014016E00380F0B006E0F0E0016040EB3
:10557000005CD8B06CD0FA6AFB6A0034FA36E834C2
:10558000FA36FC0B940FE56E550EFA22000EFB2244
:10559000E450F96ED2EF2AF0E8EF2AF0FEEF2AF09D
:1055A00014EF2BF00150006E010E026E00500DE062
:1055B00006E6E86CD8900236010FFDE306D0D890DD
:1055C00002BED8800232010FFBE3025089123FD0A5
:1055D0000150006E010E026E00500DE006E6E86C10
:1055E000D8900236010FFDE306D0D89002BED880D5
:1055F0000232010FFBE302508A1229D00150006EE3
:10560000010E026E00500DE006E6E86CD8900236FE
:10561000010FFDE306D0D89002BED8800232010F00
:10562000FBE302508B1213D0010E006E01500DE00F
:1056300006E6E86CD8900036010FFDE306D0D8905E
:1056400000BED8800032010FFBE300508C12E86AE4
:10565000E4CF02F0E4CF01F0E4CF00F0E4CFD9FFD3
:105660001200D9CFE5FFE1CFD9FF00C0E5FF01C0AF
:10567000E5FF02C0E5FF03C0E5FF04C0E5FF05C08C
:10568000E5FF06C0E5FF07C0E5FF020EDBCF00F037
:10569000030EDBCF01F0040EDBCF02F0050EDBCFF3
:1056A00003F0060EDBCF04F0070EDBCF05F0080E8B
:1056B000DBCF06F0090EDBCF07F0005004010C6FC2
:1056C00001500D6F02500E6F03500F6F0450040114
:1056D000106F0550116F0650126F0750136FD8806E
:1056E00004010FAFD8901FE3D880040113AFD89006
:1056F0001AE31351800FF36E04010F51800FF35C16
:105700000DE10E510401125D09E104010D51040186
:10571000115D04E104010C510401105D02E2010E6F
:105720001CD0E86A1AD004010F51800FF36E0401F7
:105730001351800FF35C0DE1125104010E5D09E17C
:105740000401115104010D5D04E104011051040133
:105750000C5D02E2010E01D0E86AE4CF07F0E4CF6D
:1057600006F0E4CF05F0E4CF04F0E4CF03F0E4CF9B
:1057700002F0E4CF01F0E4CF00F0E4CFD9FF120053
:10578000D9CFE5FFE1CFD9FF00C0E5FF01C0E5FFBC
:1057900002C0E5FF03C0E5FF04C0E5FF05C0E5FF6B
:1057A00006C0E5FF07C0E5FF08C0E5FF09C0E5FF4B
:1057B0000AC0E5FF0BC0E5FF0CC0E5FF0DC0E5FF2B
:1057C000020EDBCF00F0030EDBCF01F0040EDBCFC7
:1057D00002F0050EDBCF03F0060EDBCF04F0070E60
:1057E000DBCF05F0080EDBCF06F0090EDBCF07F0AC
:1057F000086A096A0A6A0B6A200E0C6E0350800B55
:10580000E8440D6E0050002601360236033608507B
:10581000082609360A360B360D50D8A408800750E2
:105820000B5C08E106500A5C05E10550095C02E1E9
:105830000450085C09E30450085E0550095A0650FC
:105840000A5A07500B5A00800C060C50D7E103C0CF
:10585000E9FF02C0F4FF01C0F3FF0050E4CF0DF0F8
:10586000E4CF0CF0E4CF0BF0E4CF0AF0E4CF09F082
:10587000E4CF08F0E4CF07F0E4CF06F0E4CF05F082
:10588000E4CF04F0E4CF03F0E4CF02F0E4CF01F082
:10589000E4CF00F0E4CFD9FF1200D9CFE5FFE1CF8C
:1058A000D9FF00C0E5FF01C0E5FF02C0E5FF03C06E
:1058B000E5FF04C0E5FF05C0E5FF06C0E5FF07C042
:1058C000E5FF020EDBCF00F0030EDBCF01F0040E8C
:1058D000DBCF02F0050EDBCF03F000C0E9FF01C013
:1058E000F3FF0250A8EC3DF0046E045003E1F36AAC
:1058F000E86A4CD00050020F046E000E0120056EC5
:10590000000E0220066E04C0E9FF05C0F3FF06503A
:10591000A8EC3DF0076E0750E56E9DEC2AF0E652CC
:10592000002A02E3014A022A00C0E9FF01C0F3FF96
:105930000250A8EC3DF0076E0750E56ED5EC28F05C
:10594000E6520350E56EF1EC2FF0036EF3CF07F053
:10595000E65200C0E9FF01C0F3FF0250A8EC3DF0A1
:10596000006E0050E56E9DEC2AF0E65204C0E9FF9F
:1059700005C0F3FF0650A8EC3DF0046E0450E56E40
:10598000D5EC28F0E65207C0F3FF0350E4CF07F050
:10599000E4CF06F0E4CF05F0E4CF04F0E4CF03F069
:1059A000E4CF02F0E4CF01F0E4CF00F0E4CFD9FF80
:1059B0001200D9CFE5FFE1CFD9FF00C0E5FF01C05C
:1059C000E5FF02C0E5FF03C0E5FF04C0E5FF05C039
:1059D000E5FF06C0E5FF07C0E5FF020EDBCF00F0E4
:1059E000030EDBCF01F0040EDBCF02F0050EDBCFA0
:1059F00003F002C006F00650046E800A33E100C0D6
:105A0000E9FF01C0F3FF02506BEC3CF0056EF3CFF1
:105A100006F0F4CF07F003C0E5FF05C0E9FF06C0BC
:105A2000F3FF07502EEC3EF000C0E9FF01C0F3FF8A
:105A300002506BEC3CF0056EF3CF06F0F4CF07F0AC
:105A4000052A02E3064A072A05C0E5FF06C0F4FF5F
:105A500007C0F6FF00C0E9FF01C0F3FF0250F8ECF9
:105A60003DF01FD004AA1DD0200E0418006E005077
:105A700004E1035006EC00F014D00050010A04E1E8
:105A800003500AEC00F00DD000500F0A04E103505F
:105A900086EC3DF006D000500E0A03E1035062ECA4
:105AA0003EF0E4CF07F0E4CF06F0E4CF05F0E4CF1A
:105AB00004F0E4CF03F0E4CF02F0E4CF01F0E4CF50
:105AC00000F0E4CFD9FF1200D9CFE5FFE1CFD9FF35
:105AD00000C0E5FF01C0E5FF02C0E5FF03C0E5FF30
