:020000022000DC
:10700000F8FF032091760200B9760200BB760200F9
:10701000BD760200BF760200C176020000000000CB
:10702000000000000000000000000000C376020025
:10703000C576020000000000C7760200C976020093
:10704000CB7602007DBC03007D7B0300CB76020083
:10705000CB760200CB760200318A0200CB760200AA
:10706000CB760200CB76020001F10200CB76020063
:10707000CB760200CB760200CB760200CB76020004
:10708000CB76020065970200791D0300CB760200E3
:1070900035980200CB7602002D940200CB760200D8
:1070A000CB760200CB760200CB760200CB760200D4
:1070B000D18E0200CB76020000000000000000002C
:1070C000CB760200E18E0200CB760200CB76020086
:1070D000CB760200CB760200CB760200CB760200A4
:1070E000CB760200CB760200CB76020000000000D7
:1070F00000000000CB76020000000000CB7602000A
:10710000000000000000000000000000000000007F
:10711000000000000000000000000000000000006F
:10712000000000000000000000000000000000005F
:10713000000000000000000000000000000000004F
:10714000000000000000000000000000000000003F
:10715000000000000000000000000000000000002F
:10716000000000000000000000000000000000001F
:10717000000000000000000000000000000000000F
:1071800000000000000000000000000000000000FF
:1071900000000000000000000000000000000000EF
:1071A00000000000000000000000000000000000DF
:1071B00000000000000000000000000000000000CF
:1071C00000000000000000000000000000000000BF
:1071D00000000000000000000000000000000000AF
:1071E000000000000000000000000000000000009F
:1071F000000000000000000000000000000000008F
:1072000010B5054C237833B9044B13B10448AFF3E0
:1072100000800123237010BD082F00200000000013
:1072200084F3030008B5034B1BB103490348AFF3D4
:10723000008008BD000000000C2F002084F3030034
:10724000154B002B08BF134B9D46A3F5803A002138
:107250008B460F461348144A121A16F0CBFB0F4BFD
:10726000002B00D098470E4B002B00D098470020F1
:10727000002104000D000D48002802D00C48AFF397
:10728000008016F067FB2000290013F0D9FD16F0EE
:107290004DFB00BF00000800F8FF032000000000C5
:1072A00000000000082F00208C6B00200000000070
:1072B000000000001F2886BF00F01F00044A4FF0A6
:1072C000A042012303FA00F0C2F80805704700BF8E
:1072D00000030050032810B50ED10220FFF7EAFF8B
:1072E0001F20FFF7E7FF1D20FFF7E4FF034B1B689C
:1072F00013B1BDE81040184710BD00BF282F002073
:10730000032810B505D1034C236813B19847002317
:10731000236010BD242F002007B50F4B0F4A1868BB
:10732000009069460E4800F057F818B10D4A8021C8
:1073300002F0C4F90C4B0D4A1868019001A90C48E1
:1073400000F04AF818B1074A8A2102F0B7F9002084
:1073500003B05DF804FB00BFECDE0300D572020051
:107360002C2E0020F4DE0300F0DE03000173020087
:10737000002E002007B58DF8062000228DF80400AD
:107380008DF805108DF8072001A91A46044800F071
:107390008AF8049A034B1A6003B05DF804FB00BF3F
:1073A0002C2E0020282F002007B500230093FFF784
:1073B000E1FF03B05DF804FB10B5044601F05CFD8D
:1073C00040B96081E060208201212046BDE8104084
:1073D00001F066BD10BD00002DE9F04300230372EB
:1073E0002C4B85B090464D1E1A889B78ADF8002036
:1073F00004460F468DF80230CE1CA94619F8010F3D
:10740000FF2802D0694601F0A3FAB145F6D1002366
:1074100040F2067201A9C1E90133ADF8082001224A
:107420008DF80A20FF22ADF80C20022201938DF87E
:107430000E20F85CFF281CBF8038C8540133042B91
:10744000F7D14246204601F015FCF8B904F10A03D1
:1074500001276081C4E9030060612083E361277232
:107460002046FFF7A9FF0C4915F8013FFF2B0AD072
:107470001F2B92BF4FF0A04203F01F030A4607FAEA
:1074800003F3C2F80835AE42EED1002005B0BDE8E6
:10749000F08300BF0CDF030000030050037A0BB140
:1074A000FFF78ABF704770B5037A04460D4616464B
:1074B00003B3FFF7F3FF2B782BB96A781AB9AA78D0
:1074C0000AB9EA78B2B163816B78A381AB78E381C2
:1074D000EB7823820423238404F11C01666236B90D
:1074E000334601222046BDE8704001F085BC0123EF
:1074F0000222F7E770BD000038B54FF08053114A03
:10750000D3F80C31104C03F500239B0253F8081CF0
:1075100091420E4A04BF01211170002143F8081C5A
:10752000137853B10A4D58224FF47F21284616F0A4
:1075300053FAAB7D9A1E534253412370054B0020F2
:10754000187038BDFECAADAB862F0020852F0020F5
:107550002C2F0020842F0020014B1878704700BF8B
:10756000852F0020024B187808B1024B187D704718
:10757000852F00202C2F002010B5294B1B787BB3C2
:1075800009F060FB01F008FF18B1264A712102F0F2
:1075900095F801F031FF0028FBD1234B0222C3F8FC
:1075A00004254FF47F22C3F80825D3F80024012ACC
:1075B000FBD10021C3F804151C48C3F804251C495D
:1075C000194A4FF47F2351F8044B1C60D2F8004451
:1075D000012CFBD104338342F5D10023C2F80435DA
:1075E000144B15481549C01AC008114B00041A68FD
:1075F00040F0030000F05EFC00F0F4FC00F006FB3D
:107600000028FBD1BFF34F8F0D490E4BCA6802F41F
:10761000E0621343CB60BFF34F8F00BFFDE700BFB5
:10762000842F00200FDF030000E0014058F00F001E
:107630002C2F0020A8F30300B8F3030032DF03006F
:1076400000ED00E00400FA0510B50E4C2478B4B14A
:1076500088B90D4C20600C480224C0E903128360F5
:10766000047140220299173016F0B6F9074B012237
:107670001A70002010BD0128EBD00720FAE708207F
:10768000F8E700BF852F00202C2F0020842F00203A
:107690000649074A074B9B1A03DD043BC858D050E4
:1076A000FBDC00F021F8FFF7CBFD000044F70300FE
:1076B000002E0020082F0020FEE7FEE7FEE7FEE791
:1076C000FEE7FEE7FEE7FEE7FEE7FEE7054B18688C
:1076D000043B1B68082B06BFB0FA80F0400900206D
:1076E000704700BF3401001008B5664B1B68082BBB
:1076F00050D14FF080430022C3F80C21C3F8102171
:10770000C3F838254FF0805203F54043D2F80414F3
:10771000C3F82015D2F80814C3F82415D2F80C14B5
:10772000C3F82815D2F81014C3F82C15D2F8141485
:10773000C3F83015D2F81814C3F83415D2F81C1455
:10774000C3F84015D2F82014C3F84415D2F8241415
:10775000C3F84815D2F82814C3F84C15D2F82C14E5
:10776000C3F85015D2F83014C3F85415D2F83414B5
:10777000C3F86015D2F83814C3F86415D2F83C1475
:10778000C3F86815D2F84014C3F86C15D2F8442435
:10779000C3F87025FFF79AFF10B13B4B3B4A1A60C4
:1077A000FFF794FF18B13A4BFB22C3F81825FFF7F7
:1077B0008DFF48B13749384B0A681B6822F00F0229
:1077C00003F00F0313430B60FFF780FF18B1334B37
:1077D0004FF400721A602B4B1B68082B09D14FF035
:1077E0008043D3F80024D20744BF6FF00102C3F8EE
:1077F00000242B4AD2F8883043F47003C2F8883052
:10780000BFF34F8FBFF36F8F4FF01023D3F80022D9
:10781000002A03DBD3F80432002B2FDA214B01229C
:10782000C3F80425D3F80024002AFBD04FF010221F
:107830001221C2F80012D3F80024002AFBD04FF026
:1078400010231222C3F80422164B1A46D3F8001450
:107850000029FBD00021C3F80415D2F80034002B16
:10786000FBD0BFF34F8F0E490F4BCA6802F4E062A2
:107870001343CB60BFF34F8F00BFFDE70B4B0C4AA8
:107880001A6008BD300100108C560040488103008A
:1078900000F00040E40E0040580200104096024004
:1078A00000ED00E000E001400400FA05582E002041
:1078B0000090D0037047000007B5044B0093044AC2
:1078C000402300F032F803B05DF804FBD5780200E5
:1078D000882F00202DE9F84389461446B2B10F4B9A
:1078E0000F4E0325002743F00108224609EB07014C
:1078F000002003F0F1F90744241A48B933782BB17A
:107900004FF47A40C047013D02D13570BDE8F8839D
:1079100001233370002CE8D1F8E700BF50DF0300EB
:10792000872F0020704703F00BBAF0B595B00846DA
:107930000D4616461C4600F00DFD1A9A0D920023C6
:10794000082205A928460A938DF82C300C93CDE91E
:10795000086400F01CFD079B0293069B0393012320
:107960008DF811309DF8143003F00302012A1DD167
:10797000BDF81440059EC3F3C203C4F383148DF80D
:107980001030A20008230EA9284600F000FDC6F31F
:10799000952608AB0093224602AB0EA9304600F0B4
:1079A0008FFB284600F0DAFC15B0F0BD022AF8D1B2
:1079B000BDF81640C3F3C203A4098DF810300827A0
:1079C000082C264628BF08263B4632460EA92846E4
:1079D00000F0DDFCA41B08AB02AA31460EA8374418
:1079E00000F0D2FB002CEBD1DBE7000008B5FFF77D
:1079F0009AFF0421034800F0CBFA034B01225A718D
:107A000008BD00BFFCF303005C2E0020037813F0D8
:107A1000040216D003F00303012B03D0022B09D07C
:107A2000012070470A6800880232C0F383100244C4
:107A30000A60F5E70B684288023303EB92130B6090
:107A4000EEE71046704700002DE9F04F87B00023A5
:107A50000446851C0DF107000E4690468DF8073050
:107A600001F046FA404A50683060936803F580732D
:107A70001B1A924602F21C4602F5836902F2144771
:107A8000AB4219D30023B8F1000F66D0052262F390
:107A9000070364F38913DAF804209DF80700D1B2D4
:107AA000033115444AF82130CAF8045001F044FA71
:107AB000012007B0BDE8F08F0121304601F098FDAC
:107AC000484601F0ABFD384601F0A8FDDAF80800A1
:107AD0000290C0B203300AEB800002A9FFF796FFC4
:107AE000029B30BBDAB20AEB8202D16803919A1C86
:107AF0000133DBB20AEB83030292D3F80CB001F03E
:107B00000303012B21D0022B15D08346384601F008
:107B100088FD10B1029BCAF808305946304601F082
:107B200067FDDAF80830DAF8042003F580739B1A51
:107B3000A6E7D8B2CEE7BDF80E309B0903334FEA73
:107B40001B4B02EB93030293E0E7BDF80C30C3F349
:107B500083134FEA1B4B1344F5E7062262F3070336
:107B600064F39F5397E700BF98300020064B074807
:107B700010B500221A7000F0A6FB044610B90448A4
:107B800000F066FC204610BD98300020E8F30300AA
:107B900074DF030030B50A4C71B10A4A0A49121B5E
:107BA000D20800239A4201D1002030BD31F8235081
:107BB000854202D00133F5E7034654F83300F4E779
:107BC000A8F30300E8F30300082F0020094B013954
:107BD00003EBC000032909D8DFE801F00A0204061C
:107BE0000420704700797047407970470020704743
:107BF00002207047A8F30300034BD3E90130C31AF6
:107C000058425841704700BF983000202DE9F0419C
:107C100086B0FFF7F1FF0546002840F0E680744C7F
:107C2000C4F81804BFF34F8FA0680290C0B20330AD
:107C300004EB800002A9FFF7E9FE029B18B1D4F81B
:107C40001824002A53D0DAB2991C013304EB8202C3
:107C5000DBB204EB8303D268DB68049302F0030316
:107C6000022B039202914FD1BDF80E3061484FEACA
:107C700093184746502F28BF502767F38F1307F1FB
:107C80000801ADF80E3000F036FB0546002800F084
:107C9000978000F05FFB03A900230822284600F02C
:107CA0006CFB0299CE43F6B20136B600C9B203317D
:107CB000B74204EB810124D908233246BF1B284672
:107CC00000F05BFBFFB24C4906F108033A46284638
:107CD00000F053FB029B08F1030803EB98030293A7
:107CE000D4F81834002B43D1D4F8106453E0626800
:107CF0009A4204D8A260284606B0BDE8F081D8B206
:107D000095E708233A46E2E7012B59D1BDF80C303C
:107D10003848C3F38311062928BF062161F389136C
:107D200002318900ADF80C3000F0E5FA0546002874
:107D300046D000F00FFB0023082203A9284600F0DC
:107D40001CFB0026BDF80C20C2F38312B300964240
:107D500003F10803C4D202994A1CC9B2033102924A
:107D600004EB81010422284600F007FB0136E9E715
:107D7000284600F0F3FAFFF73FFF80F00100C5B29C
:107D8000B9E7F3685B7923B1336829461B6830464D
:107D90009847F3681E68002EF3D1284600F0DEFAFB
:107DA0000DF107008DF8076001F0A2F8D4F818343F
:107DB0000BB9029BA3609DF8070001F0BDF8DAE75C
:107DC000D4F8104454B90D4B0D480E49C01AC008E0
:107DD000000440F0020000F069F8CCE72368204678
:107DE0009B689847E3681C68ECE7002583E700BFC1
:107DF00098300020E8F30300A4300020A8F303002B
:107E0000B8F3030080DF03002DE9F34780460F46F7
:107E1000924601A9012218469946FFF715FE214D09
:107E200070B3019C0026A11C4E4506EB010230D127
:107E300000211D4801F0BCFB80F31000631CDBB285
:107E400005EB8303000440EA1840D860E3B2033333
:107E500015F8232068F3C50205F8232035F8232000
:107E600066F3891225F8232055F8232067F39F2213
:107E700045F8232002F0F80242F0010205F8232021
:107E80002B781BB1FFF7C2FE0028FBD102B0BDE882
:107E9000F087D2B205EB82025AF82630D360013661
:107EA000C2E700BF98300020B434002000231A46F7
:107EB000FFF7AABF07B50123019201AAFFF7A4FFAC
:107EC00003B05DF804FB07B5CDE9002302236A4641
:107ED000FFF79AFF03B05DF804FB00002DE9F743BC
:107EE0000646D01C8846154601A900228008FFF7E7
:107EF000ABFD254FA0B3019CA01C0190C0B2C0F502
:107F000080794FEA890903304D4507EB800030D86E
:107F10002A46414615F060FD00211C4801F048FB4F
:107F200080F31000631CDBB207EB8303320C42EAE0
:107F30000042DA60E3B2033307EB830217F8231041
:107F400066F3C50107F82310518865F38F1151803E
:107F500037F8232002F0380242F0020227F82320EB
:107F60003B781BB1FFF752FE0028FBD103B0BDE800
:107F7000F0834A46414615F02FFDA5EB090208EBB8
:107F8000090107F10C00C5E798300020B434002047
:107F900030B5134AD2F810440023214651B9C468C1
:107FA0002371D2F810445CB9C2F81004C2681160A1
:107FB000184630BDC9680D799D420AD00968EDE7C1
:107FC000E468C16824680C60D2F81024D26810609C
:107FD000EEE701330A2BE0D14FF0FF33E8E700BFB3
:107FE0009830002038B5084A0123D2F810441370A5
:107FF0001D4604B938BDE3685D71236820465B689F
:108000009847E3681C68F4E79830002010B5037ABD
:10801000052B0C460FD0437A23B1084A0849204665
:1080200000F02FFA0749204600F02BFA2046BDE861
:10803000104000F01BBA002AF8D0F3E7CBDF0300B2
:10804000D0DF0300F0DF030073B5C38804460D469C
:1080500033B1144A00921449144A284600F011FA28
:10806000217A05291CD0637A4BB1A088FFF7AEFDB9
:108070000F4B104953F82020284600F002FA227ACC
:108080000D4BA08853F822600021FFF783FD0B49B8
:1080900003463246284602B0BDE8704000F0F1B910
:1080A00002B070BDCBDF0300DBDF0300D3DF0300D2
:1080B00098DF0300D0DF030000E00300F3DF0300DC
:1080C0002DE9F04385B01F460C9D002306460C4663
:1080D000904695F80C902B7329463846FFF7B4FF6D
:1080E000B8F1060F09D8DFE808F00412181F28338A
:1080F00040003146284600F0C4F90022294638469F
:10810000FFF784FF85F80C9005B0BDE8F083226886
:108110003146284600F0B5F9EFE7D4E900233146AF
:10812000284600F0AEF9E8E7A36800933146D4E9A9
:108130000023284600F0A5F9DFE7E3680193A36870
:1081400000933146D4E90023284600F09AF9D4E799
:1081500023690293E3680193A36800933146D4E94D
:108160000023284600F08DF9C7E76369039323696C
:108170000293E3680193A36800933146D4E9002396
:10818000284600F07EF9B8E708292DE9F84F804627
:108190000E4617461C463BD8002593F80C901D73DD
:1081A00019461046FFF750FFDFF88CA0DFF88CB0BF
:1081B000AE422FD918F805205946204600F061F943
:1081C0000135082DF4D11949194DDFF874B0204656
:1081D00000F057F94FF0000A564522D918F80A2046
:1081E0007E2A1CD812F80B1011F0970F08BF2E2210
:1081F0001049204600F045F90AF1010ABAF1080FCA
:10820000EAD1012221463846FFF700FF84F80C909E
:10821000BDE8F88F5146204600F033F9D0E72E2212
:10822000E6E72946204600F02CF9E5E7C6DF030023
:10823000C4DF0300C8DF0300C2DF0300BCDF0300AC
:108240007DF203002DE9F047B0F806904479D2F8AA
:1082500000A09DF8208009FB04F4043C06460AEBCC
:108260000300A0420F4688BFA4EB030A191DC2F801
:1082700000A0B1FBF9F509FB15114DB9A9EB0104FB
:10828000544528BF5446BAF1000F04D1BDE8F08729
:108290003668013DF1E704317B1970182246B8F1C8
:1082A000000F0ED001461846AAEB040A15F094FB05
:1082B000D145254436684C464FF0000128BF54464E
:1082C000E1E71946F0E700F06CB8F8B546790146E9
:1082D000721E0546002393422D6803D30024A64254
:1082E00002D8F8BD0133F6E70F68284600F096F88B
:1082F00001343946F3E72DE9F843CD1C068A0746D9
:1083000000F066F8043E35440446B5FBF6F5F0B1DE
:108310004FF48073EDB28380C680013D07608146D3
:108320004FF00008A84512D2384600F051F8064632
:1083300048B163790133637108F10108C9F800009D
:1083400007608146EEE72046FFF7BFFF3446204630
:10835000BDE8F8830121043001F04AB910B50121CC
:108360000446043001F04FF910F0FF0F04D120460D
:10837000BDE81040FFF7A9BF10BD1FB50392002252
:10838000009203AAFFF75EFF05B05DF804FB1FB57E
:1083900003920122009203AAFFF754FF05B05DF893
:1083A00004FB10B590B1D0E9012301689B1ADBB240
:1083B0000A60013BDBB2FF2B026802D10020107182
:1083C00010BD11684C1C14600B70F2E70E20F7E72B
:1083D00037B5054600240DF107008DF8074000F081
:1083E00087FD2A68696813688B4210D9591E11608D
:1083F00013F8014C2A8AEB6802FB04342A68AB6844
:1084000011685B1A1179DBB2994238BF13719DF87C
:10841000070000F091FD204603B030BD37B505469A
:1084200000230DF107000C468DF8073000F060FDC9
:108430002A681368591C1160E968641A298AB4FB18
:10844000F1F41C709DF8070000F076FD03B030BD1C
:108450008268002393608268136182685361826836
:10846000D3608268536082681360704710B5826879
:1084700004462AB143690168006998470023A36054
:1084800010BD0EB403B5039921B104AB01AA019349
:1084900000F074F802B05DF804EB03B070470A29ED
:1084A00038B504460D4602D10D21FFF7F8FFA36849
:1084B0002268591CA160D554D4E901329A4204D3F0
:1084C0002046BDE83840FFF7D1BF38BD2DE9F84F51
:1084D0009946DDE90A431746824688460A46012640
:1084E000BA420FD24E4538BF4E4613F0010B01D1B0
:1084F00064B900240125B9F1010F1AD909F1FF3936
:108500007D43F8E7B2FBF7F20136E9E79B070ED5AA
:10851000B9F1000F0CBF30252025A642EAD2013C5C
:1085200029465046FFF7BBFF002CF6D1E1E7202596
:10853000F3E7B8FBF5F39F42E2D9DFF83C90B8FBD4
:10854000F5F3504619F8031005FB1388FFF7A7FF52
:10855000B5FBF7F3BD4207D2BBF1000F02D00CB15F
:10856000A64203D3BDE8F88F1D46E8E72021504618
:10857000013CFFF794FFF2E75FE003002DE9F74FBE
:10858000054617468846002900F0318118F8011B7E
:1085900049B92B7B002B00F02A81284603B0BDE8A7
:1085A000F04FFFF763BF252940F0C080002698F800
:1085B00000302D2B424608F1010823D0302B24D067
:1085C0002B2B25D000242A2B02F1010123D13B685B
:1085D0001A1D3A601B680A461C4413782E2B26D1BC
:1085E00001324FF0000A104610F8011BA1F1300CC7
:1085F000BCF1090F1DD80A2303FB0A13A3F1300AAB
:108600000246F0E746F00106D1E746F00206CEE763
:1086100046F00406CBE711F8013CA3F1300009282D
:10862000DBD80A2202FB0434303C0A46CBE74FF089
:10863000000A12F8011B01F0FB0068289046F8D0F0
:1086400069290ED04AD8582964D006D825296DD07A
:1086500098F80030002B99D19BE7632962D06429F8
:10866000F6D13A68111D3960D2F8009089EAE972B2
:10867000A2EBE9724FF0010B092A5BDCD34538BF4E
:10868000D3462CB1B9F1000F01DB710700D5013CD5
:10869000B20702D5BAF1000F04D0F30702D4002CC0
:1086A0004ED10024B9F1000F52DAC9F100092D2191
:1086B0002846FFF7F4FE06F00302022A05D1BAF1BC
:1086C000000F02D1002C47D10024CDE900465346CB
:1086D0000A2249462846FFF7F9FEB9E773294CD02C
:1086E00014D87029B4D13B681A1D3A60302128464D
:1086F0001C68FFF7D4FE78212846FFF7D0FE002241
:108700000823CDE9003221461022E3E775292BD05A
:1087100078299DD139680A1D3A60CDE90046534653
:10872000102228E03B681A1D3A6019782846FFF7A6
:10873000B6FE8DE70A230BF1010BB2FBF3F29BE7C8
:10874000A345AFD220212846013CFFF7A8FEA6E7AB
:108750007007B0D52B21ABE7A345B6D23021284610
:10876000013CFFF79CFEADE73968CDE900460A1DE4
:108770003A6053460A220968ACE73B681A1D3A6022
:10878000F107D3F8009020D4B9F1000F25D0484666
:1087900015F0F8F90646B44200D9C4B909F1FF3919
:1087A00020E028460136FFF77AFE19F80610002966
:1087B000F7D1A642BFF44CAF002C3FF449AF2021C3
:1087C0002846013CFFF76BFEF3E70026EDE720218A
:1087D0002846013CFFF763FEDDE74E46DBE728460F
:1087E000FFF75DFE19F8011F0029F8D130E703B04B
:1087F000BDE8F08F10B50D49A1F59472914201D8F2
:1088000000200FE08B1ADB1003EBD3735B1002EB3D
:10881000C30452F83330834205D802D204F108026F
:10882000ECE7606810BD2146E8E700BFACE103005B
:1088300008B5FFF7DFFF024B002808BF184608BD48
:108840006FE0030000F1804000F5C040002382B0DB
:10885000036003680193019B02B0704703681F2BFC
:1088600083BF03F01F03036001484FF0A04070472F
:108870000003005007B5019001A8FFF7EFFF019B2F
:1088800000EB8300D0F8002722F44032C0F8002724
:10889000D0F8003743EA0143C0F8003703B05DF871
:1088A00004FB4309012B00F01F004FF6FF7318BFB4
:1088B0004FF0FF3323FA00F000F001007047000092
:1088C000054B4FF0FF32072843F8202084BF1B18C8
:1088D00083F84C20704700BF5035002010B5184C6D
:1088E00094F85B2052BBFF211046FFF7DAFF10B16E
:1088F000A31883F824100132302AF5D10021C8B220
:10890000FFF7DEFF01310929F9D1062200210D48C8
:1089100015F070F80C4BC02283F8062340221A6031
:108920004FF4BE70FFF78EFF084B4FF00042C3F8C4
:108930000423012384F85B30002010BD0820FCE7ED
:1089400050350020A535002000E100E00060004027
:1089500037B5354B1A18044692F92400013061D11D
:108960008878002852D01846002250F8045B013560
:1089700046D1181980F82420002043F822009200E4
:1089800002F1804202F5C0420B78D2F810554878C7
:1089900025F499151B04000525F4F85500F4801002
:1089A00003F44033C2F8105503432002D2F81055A7
:1089B00000F47C5003432B43C2F810354A780194ED
:1089C000012A01A826D1FFF749FF019B9A40C0F870
:1089D000082501A80194FFF741FF019B134903F506
:1089E000E073032240F8232024FA02F2012304F06A
:1089F000070003FA00F08B5C18438854002003E062
:108A00000132082AB1D1042003B030BDFE2382F820
:108A10002430D3E7FFF722FF019A01239340C0F8E7
:108A20000C35D6E70820EFE750350020A5350020AB
:108A30002DE9FF470024CDE90244534D4FF48072E5
:108A4000012102F1804303F5C04390B21B68012B62
:108A500006D1D5F804330B4202D0FFF7F3FE0C43E6
:108A60000432B2F5907F4FEA4101EAD1474B1B68CF
:108A7000012B11D14FF4BE70FFF7E4FE4FF0A0437D
:108A800044F00044D3F820250292C3F82025D3F8FF
:108A900020280392C3F8202814F0FF0F1AD03C4F6F
:108AA00000250126344210D0AB0003F1804303F5CA
:108AB000C043D3F81005D3F8101557F8253023B16B
:108AC000C1F30141C0F3052098470135082D4FEA55
:108AD0004606E7D1002C4BDADFF8B490DFF8B4801B
:108AE000CA4699F954104B1C34D0CCB224F0C005BE
:108AF00004AB03EBD503012713F8082C04F007039C
:108B000007FA03F31A4225D001A80195FFF7A6FE44
:108B1000019B03F5E07350F82360C6F30146022E73
:108B20000CBF032102212846FFF7A4FE01A80195EE
:108B3000FFF794FE019B9F400AEB0503C0F82075E8
:108B400093F924305AF8233023B1A109032912D113
:108B5000284698474FF0A043D3F820250292C3F847
:108B60002025D8F820350393C8F820351343B8D111
:108B700004B0BDE8F087022E04D0032EEAD102290A
:108B8000E8D1E5E70129FBE7006000407C61004097
:108B900050350020000300500023435082B043585A
:108BA0000193019B02B0704770B5D0F810310546B3
:108BB0000C4653B14FF48871FFF7EEFF63795A0703
:108BC00003D523680BB101209847D5F814315BB168
:108BD0004FF48A712846FFF7DFFF63791B0703D53F
:108BE00023680BB102209847D5F81C315BB12846A9
:108BF0004FF48E71FFF7D0FF607910F0100002D1B2
:108C0000236803B19847D5F8043163B14FF48271FA
:108C10002846FFF7C1FF0123237123681BB10320FE
:108C2000BDE87040184770BD38B51D4602230B7172
:108C30000B684A7104467BB112F0040F0CBF82210D
:108C40009221100748BF41F02001D306236848BF96
:108C500021F08001C3F8001320684FF48271FFF700
:108C60009BFF206812F0800F05BF0123435140197C
:108C7000002038BD2DE9F04F07795B4D4FEAC7085A
:108C800005EB080385B01B7904460E46002B40F027
:108C9000A98045F83720DFF85CE101F1FF3C06F1DF
:108CA000030B69464FF001091CF8012FFF2A00F061
:108CB000958022F0800310060B6040F182801F2B0C
:108CC00087BF02F01F00F24618464FF0A04A09FA8B
:108CD00000F0CAF808051F2B8ABF02F01F034FF0EF
:108CE000A042724603F5E073032042F82300DC45FE
:108CF00001F10401D8D12368009AC3F86025019AD4
:108D0000C3F86425029AC3F86825039AC3F86C2552
:108D100023680122C3F800252368B179328970796C
:108D2000C3F80C05C3F80415C3F808252368728935
:108D3000C3F8102522680023C2F800322268C2F866
:108D400000334FF48E712068FFF726FF4FF48871CF
:108D50002068FFF721FF4FF48A712068FFF71CFF9E
:108D60004FF482712068FFF717FF55F837300BB3C7
:108D700022683379120B51B20029AEBF01F1604273
:108D800002F00F0219494FEA4313DBB2AABF02F502
:108D900061428B5482F8003323681B0B5AB2002ABD
:108DA00008DB012103F01F0301FA03F35209104904
:108DB00041F82230454401232B71002005B0BDE865
:108DC000F08F1F2B87BF02F01F00F24618464FF0AE
:108DD000A04A09FA00F0CAF80C057CE74FF0FF330F
:108DE0000B6084E70820E9E7AC35002014ED00E0D3
:108DF00000E100E00003005070B40C461D461D4920
:108E00000379266801EBC3010368C3F82065A688CF
:108E1000C3F82465A668C3F82865E668C3F82C651E
:108E200003682668C3F84065A688C3F84465A66849
:108E3000C3F84865E468C3F84C45036802F00104D0
:108E400004EB5202C3F81425EB0711D415F002030A
:108E500003D0002C14BF082304230268002CC2F89E
:108E60000032EAB214BF0C23082370BCFFF7DCBE4B
:108E70001023F2E7AC3500200379084A016802EBC1
:108E8000C3021379D1F80411DBB219B9981E18BFC7
:108E90000120704701201071704700BFAC350020E1
:108EA00038B503680022C3F80022036801225A6023
:108EB00005460C46FFF7E0FF38B92846FFF7DCFF10
:108EC00018B9002CF9D1204638BD0124FBE7000079
:108ED00001490248FFF768BEAC35002000C00140E0
:108EE00001490248FFF760BEB4350020001002407F
:108EF00070B5EFF3108672B60C4A946801239CB9E2
:108F000093600B4B0B4DD3F8801029401160C3F8D0
:108F10008050D3F8841051604FF0FF32C3F88420A2
:108F2000047006B962B670BD0370FAE7F86A0020F3
:108F300000E100E0FC06FFBD10B5084B9A685AB18D
:108F400050B9EFF3108172B6054A1C6814605C6872
:108F50005460986001B962B610BD00BFF86A002085
:108F600000E100E001600B6843604A68934204BF7F
:108F7000002343607047436843B1026891680B4423
:108F800043605268934204BF0023436070474BDF45
:108F9000704700001FB50D4C01A8FFF7F8FF70B92E
:108FA000214602A8FFF7DEFF039B002BF4D00198B7
:108FB000D3E90021904702A8FFF7DDFFF4E7052879
:108FC00001D000F035FB04B010BD00BF74E5030014
:108FD00060DF704769DF704761DF704730B5114B64
:108FE0001B78A9B0E3B1104D94240DF1020103A840
:108FF000ADF80240FFF7F0FF70B9294601A8FFF76E
:10900000B1FF029B002BF0D003A8D3E900219047C9
:1090100001A8FFF7B0FFF4E7052801D000F008FB36
:1090200029B030BDBC350020FCE7030030B5054653
:1090300085B00C46002900F0B4805B4B0B600C221D
:10904000002101A814F0D6FC01238DF80630226817
:109050008DF80450062301A92020ADF80830FFF751
:10906000B9FF60B1FFF7E4FB504A514B51499B1ADD
:10907000DB081B04024643F00100FEF71BFF0C2235
:10908000002101A814F0B6FC01238DF805302268F8
:10909000002301A94020ADF80630FFF79BFF60B127
:1090A000FFF7C6FB414A424B43499B1ADB081B04AE
:1090B000024643F00100FEF7FDFE0C22002101A84C
:1090C00014F098FC452322688DF8045001A9232050
:1090D000ADF80630FFF77EFF60B1FFF7A9FB334A1A
:1090E000334B36499B1ADB081B04024643F0010050
:1090F000FEF7E0FE0C22002101A814F07BFC002307
:1091000022688DF8043001A90120FFF763FF60B1E8
:10911000FFF78EFB254A264B29499B1ADB081B04C7
:10912000024643F00100FEF7C5FE0C22002101A813
:1091300014F060FC4FF4B0632268019301A9A120F0
:10914000FFF748FF60B1FFF773FB184A184B1D4942
:109150009B1ADB081B04024643F00100FEF7AAFE3F
:109160000C22002101A814F045FC9DF8043022686F
:1091700043F0010301A9A0208DF80430FFF72AFF76
:1091800068B1FFF755FB094A094B0F499B1ADB08E9
:109190001B04024643F00100FEF78CFE002005B0E0
:1091A00030BD0E20FBE700BF002E0020A8F3030017
:1091B000D8F303008CE50300D2E503001EE60300AC
:1091C00065E60300B1E6030002E70300F8B50646D2
:1091D0000768FFF7FDFE3368BB4205461DD9194BF2
:1091E000194C1A49E41AE408240444F00204204605
:1091F000FEF75CFE336816493A462046FEF763FEEA
:109200004FF080533268D3F80C3112499B0203F1BE
:1092100000539A1A2046FEF74DFE25B90E4B012247
:109220001A702846F8BD2846FFF702FB054A064B90
:109230000A499B1ADB081B04024643F00100FEF7B3
:1092400039FEEEE7A8F30300D8F3030055E7030067
:1092500084E70300B5E70300BC350020DFE7030027
:1092600010DF704711DF704713B50446094968469F
:10927000FFF778FE019808B902B010BDD0E90031BF
:109280002046984718B16846FFF775FEF2E71120AF
:10929000F2E700BF14E8030013B504460749684627
:1092A000FFF760FE019B0BB902B010BD2046D3E969
:1092B000002190476846FFF75EFEF3E72CE80300C5
:1092C0000B4991F816335A09EC231341DB0706D5F5
:1092D000084B9A683AB94FF480030B60704742F22A
:1092E000020000F0A5B91A6842F480021A607047C3
:1092F00000E100E0F86A0020084B9A6822B11A6881
:1093000022F480021A607047054B4FF48002C3F8C4
:109310008020BFF34F8FBFF36F8F7047F86A002034
:1093200000E100E0F7B5184F3C7854BB174E01251B
:1093300020463570FFF798FF11281FD02046FFF711
:10934000ABFF0DF103008DF803400195FFF7D0FD51
:109350000F4901A8FFF784FF0446B0FA80F04009E6
:1093600038709DF80300FFF7E7FD3CB9094B3470F6
:109370001C70FFF7A5FF2846FFF78EFF204603B0BD
:10938000F0BD0824FAE700BFBE350020BD3500203F
:109390004D960200BF350020F7B5154F3B781BB343
:1093A000144E01203070FFF75FFF11284FF00005C9
:1093B0001CD00220FFF770FF0DF107008DF8075059
:1093C000FFF796FDFFF74EFF04469DF807003D703E
:1093D000FFF7B2FD2CB93470FFF78EFF0320FFF7C3
:1093E0005BFF204603B0F0BD0824FAE72C46F8E7FF
:1093F000BE350020BD350020014B1878704700BFF6
:10940000BE35002007B508496846FFF7ABFD019B54
:1094100013B903B05DF804FBD3E900209047684618
:10942000FFF7A9FDF3E700BF20E80300FFF7EABF5D
:10943000034B1A8882420CBF18460020704700BFB9
:10944000DC350020024B9B6903B11847704700BF11
:10945000C035002013B50B46497A0F4C024669B956
:10946000D4E901101C7A002C18BF0146586800F09E
:109470009FFB08B1FFF7E6FF02B010BD0021197293
:109480006369002BF8D00121ADF806008DF80410B7
:1094900001A89847F0E700BFC03500204B8802883C
:1094A0009A4213D842889A4210D380888A8840F220
:1094B000F313984294BF031AC31A934206D800F2DA
:1094C000F310904234BF0020012070470020704705
:1094D00070B50388112B014648D002D8102B1ED03E
:1094E00070BD122B52D0502BFAD12F4BC288DB8982
:1094F0009A42F5D1038A022BF2D186883046FFF7D3
:1095000097FF05460028EBD001F1120000F08CF81F
:1095100030BB686800F096FB0028E1D009E0C37B0F
:10952000012BDDD14FF6FF70FFF782FF054620B912
:109530000420BDE87040FFF785BF8E881B4A068077
:10954000002303721368C5F80A300A305368436079
:109550001031FFF7A3FF144B6872DB89002BBFD1DA
:1095600029463046BDE87040FFF774BF8088FFF79A
:109570005FFF04460028B3D0406800F063FB08B1E9
:10958000FFF760FF4FF6FF732380A9E78688304618
:10959000FFF74EFF05460028A2D008310A30FFF73A
:1095A0007DFF6872DCE700BFC0350020F035002089
:1095B00050E8002F0B4640E8003C9CF0000FF7D12C
:1095C0001046704750E8003F43EA010240E8002C93
:1095D0009CF0000FF6D11046704750E8002F02EAC9
:1095E000010340E8003C9CF0000FF6D110467047A4
:1095F00050E8003F03EB010240E8002C9CF0000F14
:10960000F6D11046704750E8003FA3EB010240E856
:10961000002C9CF0000FF6D1104670470121FFF797
:10962000D1BF0021FFF7D9BF007800F001007047DB
:109630001FB50021039001AA44F20100CDE90111F8
:1096400000F004F805B05DF804FB000010B572B638
:10965000FEF7C8FCFEF7DAFA0028FBD1104B114CDC
:109660001149E41AE408240444F00100FEF71EFC4A
:109670000E4B1B68DB0700D500BE0D4944F002000D
:10968000FEF714FCBFF34F8F0A490B4BCA6802F474
:10969000E0621343CB60BFF34F8F00BFFDE700BF15
:1096A000A8F30300B8F3030040E80300F0ED00E086
:1096B0004CE8030000ED00E00400FA0500B583B0BB
:1096C00002900091019244F2010071466A46FFF750
:1096D000BDFF03B000BD0000094A53789178013303
:1096E000DBB2994208BF0023117899421FBF037073
:1096F0005078182303FB002014BF0430002070476B
:10970000FC35002073B5054600240DF107000E4618
:109710008DF80740FFF7ECFB0DF10600FFF7DCFFCB
:1097200090B10670094B9DF8062045605A709DF86F
:109730000700FFF701FC24B9054B4FF48012C3F872
:109740000021204602B070BD0424F0E7FC35002063
:1097500000E100E0024B4FF43C6043F00103184786
:1097600060E803002DE9F0412A4CD4F84031012B88
:10977000294B02D01A78002A31D00025C4F8405174
:109780001D70264B1B6853B3254AD4F80465126834
:10979000B61A26F07F46A8461A68B2420AD8B61A08
:1097A00015441A7CDF6922B183F81080D3E90520C3
:1097B000904767BB1B4A1C4B11781B788B4205D125
:1097C0000133DBB2022B08BF002313701278174B52
:1097D00043F82250164B4FF48012C3F80021D4F8FE
:1097E0004431012B04D10023C4F8443107F0B0FC0C
:1097F000D4F80431012B01D107F0C4FC0023C4F8D4
:109800004831C4F84C31C4F80031BDE8F0813B4622
:10981000C2E700BF00100140F83500201C370020CF
:109820001837002015370020143700200C3700208F
:1098300000E100E02DE9F74F994A9A491378097839
:10984000DFF88082984F994264D00133DBB2022B5B
:1098500008BF002313701278944BD8F8006053F8B7
:109860002240331923F07F430022C8F800303B68C0
:1098700011461546944613B942B13B6006E018689C
:10988000A04235D902B13B60001B18604FF00109BE
:109890003B6800930024D8F80030009ADFF828C213
:1098A0000193A2462546002967D01046CA690B4697
:1098B000D3F804B0019E7E49D3F808E0ABEB06066E
:1098C00026F07F468E4200F2BE8076441E604FF046
:1098D0000101C3E901551974DD6138B11E680168E1
:1098E0008E4200F2D5808E1B0660D8610124A7E06D
:1098F000241A0544D868C3F800C0D3F81CE030B17E
:10990000721922F07F42C3E90120D9611946012270
:109910007346B0E700218946BAE7431C9CF8021061
:10992000DBB299428CF800304FF0180303FB00C003
:1099300008BF8CF8005001798368022969D0032997
:109940007BD0012919D1197CB9B9C6685E60066956
:109950009E604669DE608069986110460A46A7E706
:109960007345DEF81C0000F0968071468646BEF115
:10997000000FF5D116461D7432469CF800009CF885
:1099800001308342C9D104B13A603B68BAF1000F9B
:1099900005D1009A9A4202D1B9F1000F36D0ABB38B
:1099A0004449D8F80020D1F80405434C1E682578B6
:1099B000831A23F07F4303333DB94FF48035C1F858
:1099C0004453C1F80453012525709E422CBF9219BF
:1099D000D21822F07F43C1F84035D1F80425121A7D
:1099E00022F07F421B1A033223F07F439A420DD9A3
:1099F000D1F80435C1F84035FFF7ACFE2F4B0122FA
:109A00001A702F4B4FF40032C3F8002103B0BDE8A9
:109A1000F08F96461146AAE7D6690124DEF800E0E9
:109A2000C86110B1016871440160964218BF4FF0DF
:109A3000010AA0E71574D2690124002AFAD113465D
:109A400011461A462FE70199A1EB0B0121F07F4146
:109A500071453ABFAEEB010119601D6037E7A6EB17
:109A60000E06D1F81CE08B46BEF1000F0AD07146FD
:109A7000D1F800E0B645F2D3AEEB060EC1F800E037
:109A80008E4659461E60C3F81CE0CB610346D7E7FB
:109A900083460146ECE78B42BED01646BEE700BFC8
:109AA00014370020153700201C3700200C37002009
:109AB000FEFF7F000010014008370020F83500202D
:109AC00000E100E018370020FC3500202DE9F843C4
:109AD000244E4FF40038C6F88080BFF34F8FBFF399
:109AE0006F8F214C214BC4F848330127C4F8083349
:109AF000DFF8949067600025FFF72CFEA760C9F897
:109B00000050FFF727FE1A4B1D701A4B0B221D80C9
:109B10009A70194B1D60194B1D70194B4FF4801230
:109B20001D70C023C6F8802186F814333260C4F853
:109B3000085586F81133D4F80435C9F800300223EB
:109B4000C4F84433C4F80433C6F88081C6F80080F2
:109B50002760FFF7FFFD0B4B1F7000F08BF82846C6
:109B6000BDE8F88300E100E00010014002000300BE
:109B700008370020FC3500201C3700201437002057
:109B800015370020F935002018370020074B9B7847
:109B90004BB132B128B10368187C20B959745A61AD
:109BA0007047072070470820704700BFFC35002031
:109BB0002DE9F7431F4FBB7805460E469046B3B3D9
:109BC000A8B31D4B4A1F9A422FD843697BB3437CED
:109BD0000024012B0DF107000CBF8946A1468DF82A
:109BE0000740FFF785F90DF10600FFF775FDD0B1CD
:109BF00001230370114B4560D3F80435C0E9049884
:109C0000C0E902369DF806307B709DF80700FFF72B
:109C100093F924B90A4B4FF48012C3F8002120466F
:109C200003B0BDE8F0830424EFE70724F7E7082436
:109C3000F5E700BFFC350020FAFFFF0000100140EF
:109C400000E100E0064A92783AB130B1426922B1AF
:109C5000002202740221FFF755BD0820704700BFA3
:109C6000FC350020014B1878704700BFF935002003
:109C70007047000008B50B4A0B480121FFF786FF2B
:109C800018B10A4A3421FFF719FD00220849094892
:109C9000FFF78EFF28B1054A3521BDE80840FFF7E0
:109CA0000DBD08BD719C0200B8E8030066E8030022
:109CB000FFFF7F00203700200000000000000000B0
:109CC000C3F10803DB0070B50133002403A500BF16
:109CD0005B1920C940CAAD1920C0184720C940CA25
:109CE000754120C020C940CA754120C020C940CA62
:109CF000754120C020C940CA754120C020C940CA52
:109D0000754120C020C940CA754120C020C940CA41
:109D1000754120C06441204670BD00BF00000000B6
:109D2000C3F10803DB0070B50133002403A500BFB5
:109D30005B1920C940CAAD1B20C0184720C940CAC2
:109D4000B54120C020C940CAB54120C020C940CA81
:109D5000B54120C020C940CAB54120C020C940CA71
:109D6000B54120C020C940CAB54120C020C940CA61
:109D7000B54120C06441B4FA84F0400970BD00BF11
:109D80002DE9F041013B00249B0025462646A446D0
:109D90005FF0000E03E05FEA0C0EBEEB030EBCEBBF
:109DA0000E0752F8078051F80E70A7FB0878E419E7
:109DB00055EB080556F100061EF1040E9E4501DC28
:109DC000E645ECDD40F80C402C46354600261CF1FB
:109DD000040C9C45DCDDBCEB430FDCDD40F80C40A3
:109DE000BDE8F081002310B51C465AB2914200DC58
:109DF00010BD40F823400133F7E710B500231A46A1
:109E00005CB2A14203DCB2FA82F0400910BD50F806
:109E1000234001332243F3E74A11012350F8220083
:109E200001F01F0103FA01F108407047013910B534
:109E300049B2041D0A06CBB204D4013954F82120DA
:109E4000002AF7D001335BB273B103F18042013ACB
:109E500050F82220002022B9013B00EB431318B236
:109E600010BD52080130F6E71846F9E710B5002397
:109E70005CB2A24200DC10BD51F8234040F8234000
:109E80000133F5E710B5013A52B2130601D50020AF
:109E900010BD50F8224051F822309C4205D802F102
:109EA000FF32F2D24FF0FF30F2E70120F0E730B599
:109EB00089B0134615460A4601466846FFF730FF4B
:109EC000294604466846FFF798FF003418BF01246E
:109ED0006400002814BF6042C4F1010009B030BD25
:109EE00000EB81010023884200D3704751F8042D14
:109EF00043EA52030B60D307F5E770B59DF91040B4
:109F00001E4623460546FFF7DBFE30B922462946AA
:109F10003046FFF7B7FF012807D0234632462946CF
:109F20002846BDE87040FFF7FBBE70BD70B59DF9D7
:109F300010401E4623460546FFF7F2FE38B1234681
:109F4000324629462846BDE87040FFF7B9BE70BDCD
:109F500030B51C4691B0054693F900306846FFF7CE
:109F60000FFFD4F8B03069462846984711B030BD8D
:109F700013460A46FFF7ECBF2DE9F04793F900605E
:109F800092B0044689461046314615469846FFF77A
:109F900034FF002840F091804246494602A8FFF76E
:109FA000E7FF434602AA21460AA8FFF7D1FF02A90C
:109FB00008464246FFF7DCFF43462A4649464846E4
:109FC000FFF7C6FF08F10407424629462846FFF777
:109FD000CFFF3B462A46214620460096FFF78DFFDD
:109FE0003B462A46294628460096FFF786FF3B4611
:109FF0002A46214628460096FFF798FF43462A4600
:10A0000021462046FFF7A4FF3B462246214628462C
:10A010000096FFF772FF3B4600962A4621462046EF
:10A02000FFF76BFF2368DB074AD533463A462146E4
:10A030002046FFF745FE314682462046FFF750FF97
:10A0400006F18043013B54F8230040EACA7044F80B
:10A050002300424621462846FFF78AFF3B460AAACC
:10A06000294628460096FFF761FF3B460AAA294683
:10A0700028460096FFF75AFF0AA908463B462A469B
:10A080000096FFF753FF43460AAA21462046FFF7F2
:10A090005FFF02AA3B46104621460096FFF746FFA7
:10A0A000324629462046FFF7E1FE49462846FFF79B
:10A0B000DDFE02A94846FFF7D9FE12B0BDE8F087E1
:10A0C00031462046FFF70CFFC3E72DE9F041154666
:10A0D0008AB0044688461C22002103A813F08AFC9B
:10A0E0002E1D95F9007003232A464146204602930F
:10A0F000FFF73EFF334602AA214620460097FFF7AE
:10A1000015FF2B46424621462046FFF721FF0097C8
:10A11000334605F1840221462046FFF7EEFE0AB0E1
:10A12000BDE8F081F0B591B00E461C220021074633
:10A1300001A813F05FFC01241C22002109A800944F
:10A1400013F058FC31466A4611F9045B08942B461B
:10A150006846FFF7B5FD29466846FFF767FE0138F8
:10A1600004B2012C06DC2A4608A93846FFF77EFE19
:10A1700011B0F0BD08A908463246FFF7F9FE2146A6
:10A180006846FFF749FE28B108A933463A46084613
:10A19000FFF7DEFE013C24B2E3E70000F0B5082241
:10A1A00089B00C460646FFF761FECB6A03930B6B42
:10A1B00004934B6B05938B6B0693CB6B0793002734
:10A1C00008236A4669466846CDE901770097FFF79C
:10A1D00077FD082305466A4631463046FFF770FD95
:10A1E000236B0393636B0493A36B0593E36B0544A9
:10A1F000CDE906376A46082369466846FFF760FDE1
:10A20000082305446A4631463046FFF759FD236A64
:10A210000093636A0193A36A0293A36B0693E36BB3
:10A220000793054408236A4631463046CDE9047752
:10A230000397FFF745FD636A0093A36AA26B01933E
:10A24000E36A02930492636BE26B0393CDE9052307
:10A25000236A0793054408236A4631463046FFF7D0
:10A260002FFDE36A0093236B0193636B0293236AD0
:10A270000693A36A0793054408236A46314630468D
:10A28000CDE904770397FFF74BFD236B0093636BD6
:10A290000193A36B0293E36B0393636A0693E36AF0
:10A2A00007932D1A08236A4631463046CDE90477D4
:10A2B000FFF736FD636B0093A36B0193E36B02938F
:10A2C000236A0393636A0493A36ACDE90537236B7A
:10A2D00007932D1A08236A4631463046FFF720FDC2
:10A2E000A36B0093E36BCDE90137636A0393A36A21
:10A2F0000493E36ACDE90537636B07932D1A0823AE
:10A300006A4631463046FFF70BFD2D1A0D4C0FD42F
:10A3100035B9082231462046FFF7B4FD01280FD099
:10A320000823224631463046FFF7FAFC2D1AEFE7A4
:10A330000823224631463046FFF7C2FC2D18F7D4D9
:10A3400009B0F0BDC0E80300F0B5154689B01C4661
:10A3500007460E461A4629466846FFF709FE234679
:10A360006A4639463846FFF7F3FD23462A466946D2
:10A370006846FFF7EDFD23466A4631463046FFF753
:10A38000E7FD09B0F0BD2DE9F0438BB01446129DF6
:10A3900015F9046B00961F46804689462B460246F7
:10A3A000214602A8FFF7C2FD02A9129A0846FFF74C
:10A3B000DFFD129B02AA41464046FFF7C9FD129BF2
:10A3C00002AA21462046FFF7C3FD2B464A463946DE
:10A3D00038460096FFF7AAFD129A394602A8FFF701
:10A3E000C7FD02A92B46424608460096FFF79EFD90
:10A3F00002A92B46224608460096FFF797FD2B46FA
:10A400004246214620460096FFF790FD129B2246C9
:10A4100049464846FFF79CFD2B4602AA4146204686
:10A420000096FFF783FD129B224639463846FFF718
:10A430008FFD2B464A46394638460096FFF776FD93
:10A44000324602A92046FFF711FD0BB0BDE8F083AC
:10A450002DE9F0439BB01646229C14F9045B00954D
:10A4600098460746894623460246314602A8FFF72A
:10A470005DFD02A9229A0846FFF77AFD229B02AAF7
:10A4800039463846FFF764FD229B02AA3146304622
:10A49000FFF75EFD23464A46414602A80095FFF7B6
:10A4A0002CFD23464A46414640460095FFF73EFDB7
:10A4B00023463A4631460AA80095FFF737FD229B0E
:10A4C0000AAA49464846FFF743FD23463246394625
:10A4D0000AA80095FFF711FD229A41463046FFF782
:10A4E00047FD23460AAA314630460095FFF71EFD78
:10A4F00023463246394612A80095FFF717FD229BE6
:10A5000012AA41464046FFF723FD23464A464146EC
:10A5100040460095FFF70AFD229A02A912A8FFF70C
:10A5200027FD12A923460AAA08460095FFF7FEFC5C
:10A5300023463A4612A90AA80095FFF7F7FC0AA994
:10A54000229B02AA0846FFF703FD23464A460AA9B2
:10A5500048460095FFF7EAFC2A4612A93846FFF75D
:10A5600085FC1BB0BDE8F0832DE9F041B3F9024052
:10A5700014F11F0548BF04F13E050F4603F1240600
:10A5800045F34715904601462B4632463846FFF7BD
:10A5900097FB90B9B4EB451F11DA21463846FFF717
:10A5A0003BFC041C18BF01242B463246394640466A
:10A5B000FFF786FB2046BDE8F0810124F4E704465E
:10A5C000F2E7F0B500254F1E6CB28C4205F1010593
:10A5D00000DBF0BD3B1B23F0030603F00303965999
:10A5E000DB0026FA03F30355EEE7F8B50E46D11C5F
:10A5F00048BF911D144641F387010546671EFFF7CA
:10A60000F1FB00214AB2A24201F1010100DBF8BDD9
:10A61000BB1A23F00300B25C03F00303DB0002FA71
:10A6200003F32A581A432A50ECE700002DE9F84FAB
:10A630008A461A4F0646114650461546FFF7F6FB66
:10A640003B68FBB10424C0EB451015FB04FB00B2D2
:10A6500004FB05644FF0FF38043C28FA00F84FF083
:10A6600040093B6859463046984758B1236803EA89
:10A670000803236029463046FFF7BFFB20B1B9F13C
:10A680000109EED1002006E02A4631465046FFF788
:10A690000EFC0128F3D1BDE8F88F00BF642E002026
:10A6A00008B589B206F03CFE012008BD70B503680C
:10A6B00013F001050646144605D013460A46014626
:10A6C000FFF7FEFA054621463046FFF709FC45B183
:10A6D00004F18042013A56F8223043F0004346F834
:10A6E000223070BDF0B50F46A1B006461946384677
:10A6F00015461C46FFF781FB20B13046FFF772FB81
:10A7000021B0F0BD224639466846FFF7AFFB294627
:10A7100008A8FFF7ABFB10A82146FFF763FB012356
:10A7200018A81093FFF75EFB224608A96846FFF7BA
:10A73000A9FB28B9224610A93046FFF797FBDFE7AF
:10A74000009BDA0709D421466846FFF7C9FB224679
:10A75000294610A8FFF7AAFFE6E7089BDB0707D406
:10A76000214608A8FFF7BCFB2246294618A8F1E7B6
:10A77000002823461CDD08AA69466846FFF7D0FA80
:10A7800021466846FFF7ACFB224618A910A8FFF740
:10A7900079FB002805DA10A923462A460846FFF768
:10A7A0008FFA10A9234618AA0846FFF7B9FACEE790
:10A7B00008A96A460846FFF7B3FA214608A8FFF73A
:10A7C0008FFB224610A918A8FFF75CFB002805DACA
:10A7D00018A923462A460846FFF772FA18A9234605
:10A7E00010AA0846FFF79CFABEE72DE9F04FB1B07A
:10A7F000CDE904013B9C069294F9007018A83A46F2
:10A800001E46FFF733FBBB000793059BBA001344BA
:10A8100019463A4628A80293FFF728FB94F90050FE
:10A82000002E00F087802A46314608A8FFF71EFB5D
:10A8300010AE2A4618A930460DF18009FFF716FB25
:10A8400028A94846FFF712FB234608AA28A918A8FA
:10A85000FFF77AFDD4F8A450234608AA28A918A81F
:10A86000A847234608AA49463046FFF76DFDBDF9C3
:10A87000E850023D2DB2002D63DC069B1D6800945C
:10A8800005F0010610AB7601ED4303EB060805F079
:10A89000010520AB1E446D0110AB03EB050920AB95
:10A8A0001D4404F1040A2B464A4631464046FFF750
:10A8B000CFFD534610AA18A908A80097FFF736FB4A
:10A8C00008A9234632460846FFF742FB08A923465B
:10A8D000059A0846FFF73CFB08A93B465246084646
:10A8E000FFF700FF08A92346029A0846FFF730FB4E
:10A8F00008A9234642460846FFF72AFB0094334640
:10A90000424629464846FFF73EFD234608AA20A9AD
:10A9100010A8FFF719FD3A4610A90498FFF7A6FA08
:10A92000049B079C234420A91846FFF79FFA31B0E7
:10A93000BDE8F08F294608A8FFF754FA01230893D1
:10A9400076E729460698FFF767FAB0FA80F04009E3
:10A95000C0F101084FEA4818400106EB080B06EB6E
:10A96000000AC84409EB0003524641465846009489
:10A970000393FFF76DFD009443465A4603995046F2
:10A98000FFF701FD013D75E730B5144695B005466A
:10A990000CAA2346084604A902910392FFF7E4FD9E
:10A9A000B0FA80F014AB400903EB80006388019497
:10A9B00001331BB2009350F8482C002304F14401EA
:10A9C0002846FFF712FF2178490049B22846FFF7D1
:10A9D00014FAB0FA80F0400915B030BD0048704755
:10A9E000BCE803002DE9F041064698B00F46144636
:10A9F000402502F12408B4F9023013F11F0248BFC8
:10AA000003F13E0242F3471241466846FFF70EFE4D
:10AA100030B32246694608A8FFF7B6FFF0B1B4F993
:10AA20000230D91D48BF03F10E016A46C9103846ED
:10AA3000FFF7C7FD08AA94F901103046FFF7C1FDE2
:10AA400094F9011094F9002008AB701803EB82020E
:10AA5000FFF7B7FD012018B0BDE8F081013DCAD174
:10AA60000020F8E72DE9F0471C4693F9017093F9AF
:10AA70000090B3F90230A4B09046DA1D48BF03F14C
:10AA80000E0204AD82460CAE2846D2100295039603
:10AA9000FFF7ABFD3A46514614A8FFF7A6FD14ABED
:10AAA00003EB89003A460AEB0701FFF79EFD2346B8
:10AAB000324629462846FFF757FD194B1E680546C2
:10AAC00056B124AB03EB80034A4653F8886C211D32
:10AAD0003046FFF7ABFDF8B1B5FA85F024AB40097D
:10AAE00003EB80006388019401331BB2009314A927
:10AAF000334650F8882C0846FFF777FE14AA3946EB
:10AB00004046FFF75EFD2178490049B214A8FFF7DF
:10AB100074F9B0FA80F0400924B0BDE8F08700BFB6
:10AB2000642E00202DE9F04791F90070FDB20E4629
:10AB3000690090B049B28046FFF75FF9044678BBE0
:10AB400006F1040A3A4641465046FFF79BF90128B0
:10AB50001AD108EB87093A4649465046FFF792F961
:10AB6000012811D13246684608AFFFF701FAD6F83E
:10AB7000AC3032464146384698476B1E5BB21A06E7
:10AB800006D5B4FA84F46409204610B0BDE8F08715
:10AB90005DF8232057F823104A401443013BEEE7A9
:10ABA0000024F1E730B50C4691B0054691F901203B
:10ABB00001466846FFF719FD94F9012094F9000059
:10ABC000A9180DEB8000FFF710FD21466846FFF73E
:10ABD000A9FF11B030BD0369C1688B429DBF826877
:10ABE000D21802F1FF3203F1FF3394BF501A581A02
:10ABF00070472DE9F041D0E9027405463E1B4068DC
:10AC0000964220448846144404D912F0E5FEEC60D4
:10AC1000BDE8F0813246E41B12F0DEFE224608EB6E
:10AC200006016868F1E72DE9F843C56806468946DC
:10AC300017464FF000083469B3687068A54228BF12
:10AC4000E418013C621B5C1BBC4228BF3C4694429A
:10AC500028BF144649462844224612F0BDFEB36878
:10AC60002544AB4208BF00253F1BA044A144F5602A
:10AC7000E1D14046BDE8F88310B5114C114AA261FC
:10AC80000123C4E90433104BE3614FF400632362F2
:10AC90000023C4E90B320D4A62630D49A36280228E
:10ACA000E01D63622364E3636364A26312F062FFE6
:10ACB0000849204612F05EFF2023A37110BD00BF9B
:10ACC000046B002070E90300C037002040370020EB
:10ACD00079E903007DE90300F8B5184C182300FB5F
:10ACE000033503FB00402544C46A012C0F46164679
:10ACF00011D024B1022C1BD000242046F8BD2846D8
:10AD0000FFF769FFB042F8D3324639462846FFF7CD
:10AD100070FF3446F1E72846FFF75DFF8642344670
:10AD200028BF0446224639462846FFF762FFE4E77B
:10AD30002846BDE8F840FFF776BF00BF046B00204F
:10AD4000FFF79ABF38B5837803F003020446032A5D
:10AD500022D8DFE802F00214191D9B08154A164894
:10AD6000126813440268A3600021EAB195685D1B74
:10AD7000002D16DAD1B91146E160046038BD9B0898
:10AD800003EB83035B00E9E79B0864225343E5E799
:10AD90009B0841F27072F9E7784610F099F80023A9
:10ADA000DCE71146D268E0E70029E5D0CC60E2603C
:10ADB000E4E700BFD83F0020E03F0020032808B5AB
:10ADC00003D8044B53F8200008BD784610F080F8F3
:10ADD0000020F9E784E903002DE9F041574D2B7875
:10ADE000ABB1574B574E5F6806F08EF9044630788A
:10ADF000FFF7E4FF3278544B2044C01B002A40D1B7
:10AE00004CF2503290423CD91A6801321A60DFF895
:10AE10004881D8F80020002A00F08780494E9378B6
:10AE2000307803F003038342344664DD464B976871
:10AE30001B68FB1A454F5F43FFF7C0FFD8F800308F
:10AE4000B7FBF0F09F78C7F30107FBB2022B1FD0CE
:10AE500031D8012B47D10A22B0FBF2F302FB1300D9
:10AE6000002840D106F050F900F5742101F5107169
:10AE700037702B78002B50D03148BDE8F04106F0F8
:10AE80001EB91A683149B0FBF1F010441860BEE7F2
:10AE9000337863B96422B0FBF2F302FB130010BBFA
:10AEA00006F032F92A49022301442370E1E7012B1D
:10AEB00019D10A22EFE7337863B941F27072B0FB1F
:10AEC000F2F302FB130070B906F01EF921490323C7
:10AED0000144EAE7012B02D14FF41672EFE7022B8F
:10AEE00001D13C22EBE706F00FF906462078FFF788
:10AEF00065FF3118BDE706F007F9D8F800300446C1
:10AF0000987800F00300FFF759FFD8F800309B78DD
:10AF1000C3F3010321183370ABE7094801234160F3
:10AF20002B70BDE8F04106F099B82B7823B10448A6
:10AF3000BDE8F04106F0B0B8BDE8F081DC3F00208C
:10AF4000C03F0020DD3F0020D83F0020A086010048
:10AF5000809698000046C323E03F00202DE9F3418E
:10AF6000244B1B78032B2AD8DFE803F0021B1F2396
:10AF7000214A136801331360204B214E1E4D0022DD
:10AF80001A70B04634683CB1A3682A6893421AD05C
:10AF90002A689B1A002B16DBFFF71EFF02B0BDE8E4
:10AFA000F081154A13680A33E5E7134A13686433DE
:10AFB000E1E7114A136803F5BB531033DBE778462A
:10AFC0000FF086FFD8E72788E368C8F8003001A9AA
:10AFD00000233846019301F06DFB10B178460FF065
:10AFE00077FF38466368019998472046FFF7AAFE25
:10AFF000C8E700BFDD3F0020D83F0020DC3F002035
:10B00000E03F002010B5084C18220021204612F025
:10B01000F1FC064B064AA36000231360054A136047
:10B02000054A137010BD00BFC03F00205DAF020095
:10B03000D83F0020E03F0020DC3F002008B5054B52
:10B040001B7813B1044806F027F8BDE80840FFF765
:10B05000D9BF00BFDC3F0020C03F0020F8B50F463D
:10B060001646044610B978460FF032FF124D06F02E
:10B070001FFD2B6800220BB1A34216D1A17867F304
:10B08000010166F38701A1709BB1DB6882B92B6077
:10B090002EB12046FFF756FE2B689C4201D1FFF7E8
:10B0A0009BFEBDE8F84006F043BD1A46DB68E2E7C8
:10B0B000D360002EF5D0ECE7E03F00200A4B93F878
:10B0C000390093F85D2080F00100404280B24AB11F
:10B0D0004FF6FF72904204D0586D1B6BC01AC00F20
:10B0E00070470120704700BFE43F002038B5154C81
:10B0F000242303FB0043054693F8393013B97846FF
:10B100000FF0E6FEB4F8603013B978460FF0E0FEB9
:10B11000242202FB0543002183F83910B4F8603083
:10B12000013B9BB2A4F860301BB94FF6FF73A4F843
:10B13000623002FB0544A06A09F031F80023A362E3
:10B1400038BD00BFE43F00202DE9F84F2E4DB5F883
:10B150006030064613B978460FF0BAFE2A4C06F561
:10B160007A7B00274FF0010948F2111A94F8393020
:10B170001FFA87F8C3B1236BA3EB0B03002B13DA81
:10B18000A38DA26A04F11801404600F087FD102843
:10B1900027D809FA00F313EA0A0F25D11B4A1342F4
:10B1A0001ED04046FFF7A2FF2434BFB1FFF786FF51
:10B1B000B5F86030A5F862001BB3012802D97846C3
:10B1C0000FF086FEB5F86230242202FB03531B6B9E
:10B1D0009A1B48BFF21AEA60BDE8F88F0127C5E75D
:10B1E00010B178460FF074FE94F83830013BDBB2B2
:10B1F00084F83830002BD4D0D4E90C3213442363C4
:10B20000D2E7EB60E8E700BFE43F0020A0020100C6
:10B2100010B5064C64220021204612F0EBFB044BD3
:10B22000A3604FF6FF73A4F8623010BDE43F002026
:10B2300049B102002DE9F047012806468846174625
:10B240009A46BDF8209002D978460FF041FEB8F139
:10B25000000F02D178460FF03BFE17B978460FF089
:10B2600037FE98F800305B0702D178460FF030FEC9
:10B27000BAF1000F02D178460FF02AFEB9F1000FA3
:10B2800002D178460FF024FE274C242303FB06430B
:10B2900093F8393013B13046FFF728FF05F034FF3B
:10B2A000844697E80F00242505FB064505F1180E96
:10B2B0008EE80F00C5F828A0A5F82C9098F800306B
:10B2C000C3F3020385F8383098F80000C3084CF245
:10B2D000503003FB0000012385F83930B4F86030AA
:10B2E0006863604401332863A4F86030FFF7E6FE2A
:10B2F000B4F86230984201D1864213D14FF6FF7301
:10B300009842A4F8620002D178460FF0E1FDB4F84B
:10B3100062300548242202FB0344216BBDE8F0475C
:10B3200005F0CDBEBDE8F087E43F00204A090123C7
:10B3300001F01F0103FA01F150F82230194214BF45
:10B340000120002070474FF6FF72B2EB104F82B021
:10B3500083B215D113F47F4007D003F44043B3F513
:10B36000004F14BF0020012006E023F07F022AB91D
:10B370007F3B18BF0123184602B070470346FAE727
:10B3800023F03F03C02BECE701289FBF054B382279
:10B3900002FB003090F8340094BF00F00100002060
:10B3A000704700BF9C4000204B88012B82B00DD11C
:10B3B0008B88022B0AD10B88022B07D1044A137801
:10B3C00043F001031370002002B070470B20FBE72D
:10B3D0000E410020012382B04B8002238B800B8022
:10B3E00002B07047C0F30F43A3F540539BB2012B4B
:10B3F00037B514D80C4A107810F0040011D10B4C5A
:10B400000C2253430A68E518D2436A604A68D24363
:10B41000AA60E25C22F00602E25403B030BD0520CF
:10B42000FBE70020F9E700BF0E410020104100209B
:10B43000C0F30F40074BA0F540500C2280B202FB36
:10B44000003082B04368DB430B608368DB434B60B2
:10B4500002B0704710410020000CB0F5804F04BFCF
:10B460000A78044B82B00ABF002005201A7002B08F
:10B47000704700BF682E0020024B1B780B7082B013
:10B4800002B07047682E002017B40190C0F30F403F
:10B490000B46A0F58050064980B2062404FB00113B
:10B4A0000222184603B05DF8044B12F095BA00BFB3
:10B4B0008640002017B40190C0F30F400B46A0F562
:10B4C0000050064980B2382404FB001114221846AB
:10B4D00003B05DF8044B12F07FBA00BF9C4000201F
:10B4E000F7B5C0F30F43A3F500539BB2012B0190B6
:10B4F00024D81548007810F004061DD13820134DCB
:10B500008F894343EC18A08987421AD10888EB5AE7
:10B51000984216D148886388984212D1CA89E38933
:10B520009A420ED11422204612F056FA94F8343082
:10B5300023F0060384F83430002000E0052003B037
:10B54000F0BD0B20FBE700BF0E4100209C40002017
:10B5500070B51C460B89B3F5BE7F0546164606D36B
:10B56000092323602068B0FA80F0400970BDFFF71E
:10B570000BFF28B10C48382303FB050083890BB16E
:10B580000523EEE73EB982884FF6FF739A4206D054
:10B59000C2889A4203D00868FFF7D5FE08B907238E
:10B5A000DFE70023DDE700BF9C40002010B50F4C13
:10B5B00070220021204612F01DFA062200210C48BC
:10B5C00012F018FA182200210A4812F013FA012387
:10B5D000094AA384A4F85C30084BE2606264042248
:10B5E0004FF0FF311A706160E16310BD9C40002094
:10B5F0008640002010410020FFFF0200682E00203E
:10B600002DE9F04F8FB0064602A8884614460193F4
:10B6100002F024F9324ABDF80A10382303FB06234E
:10B620009F89B94204D8102318460FB0BDE8F08FA7
:10B63000BDF808A003AD002C40D004F10C0103C9F3
:10B64000B4F81EB0B4F82490247F85E803003CB120
:10B65000382101FB0626747CFF2C04BF214A147894
:10B6600005AE24220021304612F0C4F90BAA594637
:10B67000484602F041FE03460028D5D198F80A203A
:10B680008DF81F2095E8030098F80B208DF82020F6
:10B69000019A0992BDF86020ADF8282086E80300E1
:10B6A000D8F80C208DF81E40194657443046ADF8A6
:10B6B0001C700D9205F0DCFA0346B5E72946D888E0
:10B6C000B3F804B002F042F938B9BDF80E30002BDF
:10B6D000A9D04FF6FF79024ABAE70523A4E700BFD5
:10B6E0009C400020682E00202DE9F04F85B0984640
:10B6F00003AB81460D4692460E9FFFF729FF18B90E
:10B70000039805B0BDE8F08F0B8849884FF6FF72AB
:10B7100091422FD1FF2B8CBF4FF0020B4FF0010B4A
:10B720002E895E44B6B2304608F037FD044680B339
:10B730006A882B884FF6FF708242D9B21DD06270A2
:10B74000120A2170A2702A89696804EB0B0012F0BA
:10B7500043F900962346524629464846FFF750FFD4
:10B76000039018B9B8F1000F00D077B9204608F05F
:10B7700016FDC5E74FF0030BD2E713F47F4F1DBF53
:10B780001B0A237061702170DDE7C8F800403E801D
:10B79000B7E70420B5E70000000CB0F5805F82B089
:10B7A0000FD10B4B187810F004000CD1094B09880D
:10B7B0001A88914209D15A7922F006025A7102B0D0
:10B7C00070470520FBE70020F9E70B20F7E700BFF3
:10B7D0000E410020864000200C4B1B785B0782B096
:10B7E00008D40C230A4A5843135C43F0040313544F
:10B7F00002B07047022300F54050ADF80430ADF8B8
:10B800000600019802B008F03BB900BF0E410020CD
:10B81000104100201FB5144B144A1B7813F0040F7D
:10B820004FF00C0307D14343D15C41F00201D154E6
:10B8300005B05DF804FB03FB002302215A689B68F6
:10B84000ADF80410DB43039300F54053ADF8063028
:10B85000D24302A90198029208F0B4F80028E7D078
:10B8600078460FF035FBE3E70E4100201041002041
:10B8700007B5134B13491B7813F0040F0BD1382372
:10B8800003FB001090F8343043F0020380F83430AA
:10B8900003B05DF804FB0223ADF8043000F500535B
:10B8A000ADF80630382303FB0011019808F08AF840
:10B8B0000028EDD0784603B05DF804EB0FF008BB2C
:10B8C0000E4100209C40002007B50C4B1B785B0705
:10B8D00007D40B4A537943F00203537103B05DF868
:10B8E00004FB0749074808F06DF80028F6D07846B1
:10B8F00003B05DF804EB0FF0EBBA00BF0E4100207F
:10B9000086400020020000104B0901F01F024FF09A
:10B91000FF31914050F82320114049B14A420A407A
:10B9200006495143C90E064A505C00EB431070476C
:10B9300013B941680123F0E72820704731B57C072F
:10B94000A8E903002DE9F04F4F4E337843F004038C
:10B9500013F0020785B0337003D00B2005B0BDE8AB
:10B96000F08F13F0010F494C19D0A0464FF6FF7924
:10B970004FF00C0BB8F80C304B450CD0B8F8060063
:10B9800048455AD1B8F80E50022D5BD1382303FB3D
:10B99000074300229A7408F13808002F4BD03C4D21
:10B9A0002B7813F0040064D1990701D5FFF732FF1B
:10B9B0002B7823F006032B702B7B5A075DD50120D3
:10B9C000FFF70AFF2B7B23F006032B73314D6B79B6
:10B9D000980701D5FFF778FF6B7923F002036B71AD
:10B9E00094F83430990702D50020FFF741FF94F80E
:10B9F000343023F0020384F8343094F86C309A0722
:10BA000002D50120FFF734FF94F86C3023F00203D5
:10BA100084F86C303378DB070BD41F480290022384
:10BA200002A9ADF80C3007F0CDFF10B178460FF049
:10BA30004FFA002092E701279CE701F023FF00283E
:10BA4000A0D08AE7124B0BFB0535043500212846B0
:10BA5000FFF75AFF2828824698D01FFA8AF001F093
:10BA600059FF00287FF479AF0AF101012729EED9A7
:10BA70008CE70020FFF7B0FE9AE79F07A2D50120D0
:10BA8000FFF7C8FE9EE700BF0E4100209C4000204B
:10BA90001041002086400020020001002DE9F74FF0
:10BAA00000F114040546204602F0B6FE0026814649
:10BAB00000284BD04FF6FF73ADF802302B7D012BE1
:10BAC00047D101A801F0CAFEEE8ABDF80430F61A8B
:10BAD000B6B2C846384C4FF0020AB8F1000F4BD04E
:10BAE000A089831B5842584194F83430B5F800C0FF
:10BAF000B5F802E0A18D03F0010300278F424CD37B
:10BB00000027BB46EBB1E0B1E98B04F10800FFF779
:10BB10000DFCB0B1BBF1000F13D02B7DCAF1020BAD
:10BB2000012B1FFA8BFB04D1226B2946584600F0EB
:10BB300015FFA36A226B03EBC70729467B685846AB
:10BB40009847BAF1010F04F1380412D103B0BDE8EF
:10BB5000F08FEB8A04339BB2032BBAD90DF10201AB
:10BB6000204601F085FF10B178460FF0B1F9B046DC
:10BB7000B0E74FF0010AB0E7E08901280BD80F4B7E
:10BB8000BDF802100C2202FB00300430FFF7CEFBA0
:10BB900000F00100A8E74046FAE7A26A02EBC70BF3
:10BBA00032F83720624503D1BBF80220724501D03C
:10BBB0000137A3E7CB46A5E79C40002010410020B9
:10BBC000F0B505788BB004461DB1142D5AD00BB0DA
:10BBD000F0BD43681E7806F0C002402A46D03BD82C
:10BBE000002A43D02E46206A01F0B0FF0746E069E4
:10BBF00001F098FF4FF6FF729542ADF80060ADF886
:10BC0000025063683CD1B6F5807F34BF0122022226
:10BC1000134401932389ADF824009B1AADF8083032
:10BC2000237B8DF80C30E389ADF80E302369049343
:10BC3000237D8DF81430E38AADF81630A36906939E
:10BC400094F824308DF81C306846E36AADF81E7015
:10BC50000893FFF723FFBAE7802A0DD0C02AC1D18D
:10BC60009A785D78B6B245EA0225BCE7B6B27F2E77
:10BC7000ADD04FF6FF75B6E75B7843EA0626F8E7E6
:10BC80000322C5E7C388022B01BF034A137843F0A0
:10BC9000020313709BE700BF0E410020F0B506467B
:10BCA00085B014461D4681B17AB173B103AB002251
:10BCB000FFF74EFC10B9039805B0F0BD0095234680
:10BCC00000223046FFF79CFCF6E70E20F4E7000068
:10BCD00008B500F08BFEFFF7B1F9FFF767FC054AE6
:10BCE000137823F0030313700220BDE8084007F027
:10BCF000F1BE00BF0E41002008B5FFF757FC084811
:10BD0000084B036004F0B6FF00F05CFEFFF77AF921
:10BD1000FFF77EFA044A137823F00703137008BD77
:10BD200090400020C1BB02000E4100202DE9F041EF
:10BD30000D460446002800F0BE80002900F0BB80BC
:10BD4000C3681BB18368002B00F0B5804FF6FF730A
:10BD50002B80E3681BB9A368002B40F0AE80A3885A
:10BD6000002B40F0AC8002F07BFD10B10F20BDE84D
:10BD7000F081564BA788062202FB07329178D278D1
:10BD8000D14219466AD1D4E902870026B74240F071
:10BD90008B802A884E4E4FF6FF739A4243D196F815
:10BDA000343013F0010305D096F86C30DB0700F156
:10BDB0008A80012338222B8002FB03634FF6FF7039
:10BDC000D8802B8802FB036398802B88A78802FB0E
:10BDD00003639F812B88678802FB03635F802B8846
:10BDE00027885343F7522B8802FB03625074228842
:10BDF000A38882424FF0060202FB03130BBF9A781E
:10BE0000DA78013201320CBF9A70DA702B8838224E
:10BE100002FB036393F8342042F0010283F83420DC
:10BE20002888FFF725FD2B882169382202FB036350
:10BE3000002019632B88A16802FB036399622B8899
:10BE4000E16802FB036399852B88616902FB036348
:10BE500099612B8802FB0366B38288E71C4B22881A
:10BE6000B3F80CC06688BC4507D1B3F802C0B4452E
:10BE700003D1B3F800C094450CD0B3F84400B842E5
:10BE800081D1588FB0427FF47EAF188F90427FF4FB
:10BE90007AAF01203822288002FB003090F834303D
:10BEA000DA077FF570AF61E758F83600FFF74BFA15
:10BEB00038B101366AE70E2059E7092057E7052017
:10BEC00055E7072053E7042051E700BF86400020D4
:10BED0009C4000207FB505460E4619B30DF10A03BC
:10BEE0000022009303ABADF80A20FFF7FDFB0446E8
:10BEF00088B90D48039B38226A438118C97C4907D9
:10BF00000CD002F11301BDF80A2000920144324620
:10BF10002846FFF78FF9204604B070BD184608F098
:10BF20003EF9F8E70E24F6E79C40002013B51446CE
:10BF30000A4639B134B1002300932146FFF7D4FB00
:10BF400002B010BD0E20FBE710B50446FFF71CFA47
:10BF500070B127290ED8084A382303FB0423DA8856
:10BF60008A4203D0D9802046FFF782FC002000E0FF
:10BF7000052010BD0720FCE79C40002010B50446BA
:10BF800051B1FFF701FA48B1054B382202FB0434E6
:10BF90000020E3880B8010BD0E20FCE70520FAE7A7
:10BFA0009C400020012838B51BD80F4B382202FBDB
:10BFB000003292F83440E40713D5D27C01F0070434
:10BFC00002F00705A54204D1C1F3C404B4EBD20FBB
:10BFD00005D0382202FB0033D974FFF749FC00205A
:10BFE00000E0052038BD00BF9C40002069B1012859
:10BFF0000DD8084B382202FB003090F83430DB07B4
:10C0000005D5C37C0B70002070470E2070470520BB
:10C01000704700BF9C40002038B50446154699B1D2
:10C0200092B1FFF7B1F988B10A48382303FB040045
:10C0300083696BB1837CC3F301030B70837CC3F30F
:10C0400085032B70002038BD0E20FCE70520FAE7A1
:10C050000620F8E79C4000202DE9F34100230DF174
:10C0600007020DF1060105468DF806308DF8073000
:10C07000FFF7D2FF10B178460EF02AFF284E9DF848
:10C0800007709DF80610382303FB05633C46B3F8A0
:10C090002480032923D8DFE801F005021A1E07EBEC
:10C0A00087046400B4FBF8F33F2B1CD8002F35D075
:10C0B000012B38BF0123DFB20021382000FB0560CF
:10C0C0003A461430FEF7CAFF02B0BDE8F08164249E
:10C0D00017FB04F4E6E741F270747C43E2E778462C
:10C0E0000EF0F6FEDEE740F27622934205D80A22F1
:10C0F0000121B3FBF2F3DFB2DFE741F69C0293428A
:10C1000095BF642241F27072B3FBF2F3B3FBF2F31A
:10C1100099BFDFB20221DFB20321CEE73946CCE777
:10C120009C400020012810B50FD80B4A382404FB8E
:10C13000002393F83420D20707D59A693AB141B168
:10C140009984FFF789FF002010BD0520FCE7062039
:10C15000FAE70720F8E700BF9C400020012838B527
:10C16000044628D8174B382000FB043090F8345090
:10C1700015F0010F1D461ED08369F3B13F2A1ED86A
:10C1800003291CD8837CB2EB930F03D103F0030384
:10C190008B420ED0382303FB0453987C62F3870054
:10C1A00061F3010098742046FFF756FF2046FFF721
:10C1B0005FFB002000E0052038BD0620FCE70720DB
:10C1C000FAE700BF9C40002038B5044602F048FB67
:10C1D00030BB2046FFF7D8F820B3144D382202FBBD
:10C1E0000452D289022A19D1114A137813F001009E
:10C1F00003D0137BD90717D401200C21414323F02E
:10C20000040343F001035354382303FB045380B267
:10C21000D881FFF7FFFA2046FFF72AFB002038BD40
:10C220000F20FCE70520FAE70420F8E79C400020F7
:10C2300010410020F8B504460E46FFF7A5F808B3F4
:10C24000134B382202FB0434E789022F1CD0272924
:10C250001CD8104B0C2505FB073504352846FFF785
:10C2600065F868B97209012306F01F0603FA06F69D
:10C2700055F82230334345F822303846FFF7CAFAE2
:10C28000002000E00520F8BD0620FCE70720FAE7C3
:10C290009C4000201041002070B504460D46FFF779
:10C2A00073F810B3144B382202FB0434E689022ED3
:10C2B0001DD027291DD8114B0C2404FB063404344F
:10C2C0002046FFF733F878B16A09012305F01F050E
:10C2D00003FA05F554F8223023EA0503304644F802
:10C2E0002230FFF797FA002070BD0520FCE70620FA
:10C2F000FAE70720F8E700BF9C400020104100202B
:10C300002DE9F047064615460F4651B34AB3FFF7ED
:10C310003BF840B3174B382202FB0636F389022B59
:10C3200023D00024DFF85090B5F800802C804FF027
:10C330000C0AF08901280ED80AFB0090214604302F
:10C34000FEF7F4FF38B12B88984510D927F8134031
:10C350002B8801332B800134282CEAD10020BDE842
:10C36000F0870E20FBE70520F9E70620F7E7092014
:10C37000F5E700BF9C400020104100202DE9F0416E
:10C3800007468846FFF700F8A0B1112915D83825CF
:10C390000B4E7D4308357019FEF7C8FF40B90123E5
:10C3A00003FA08F1735938460B437351FFF760FAEB
:10C3B000002000E00520BDE8F0810720FBE700BF7A
:10C3C0009C400020F8B506460F46FEF7DDFFA8B1F9
:10C3D000112915D838240B4D744308342819FEF759
:10C3E000A5FF50B1012303FA07F12B59304623EA88
:10C3F00001032B51FFF73CFA0020F8BD0520FCE7B4
:10C400000720FAE79C4000202DE9F041064615463A
:10C410000F46F9B1F2B1FEF7B7FFE8B1104BB5F82E
:10C4200000803822002402FB06362C800836214684
:10C430003046FEF77BFF38B12B8898450ED927F898
:10C4400013402B8801332B800134082CEFD10020BE
:10C45000BDE8F0810E20FBE70520F9E70920F7E7AA
:10C460009C40002010B50446FEF78EFF70B11129E4
:10C470000ED8084A382303FB04239A888A4203D043
:10C4800099802046FFF7F4F9002000E0052010BD58
:10C490000720FCE79C40002010B5044651B1FEF790
:10C4A00073FF48B1054B382202FB04340020A388F7
:10C4B0000B8010BD0E20FCE70520FAE79C40002011
:10C4C0001FB503068DF8070009D4012807D00DF128
:10C4D0000701044807F076FA05B05DF804FB072071
:10C4E000FAE700BF02000040014B1878704700BF18
:10C4F000682E002010B5044651B1FEF745FF48B143
:10C50000054B382202FB04340020237C0B7010BD45
:10C510000E20FCE70520FAE79C40002010B50446F9
:10C52000FEF732FF80B181F080037E2B0ED9084ADE
:10C53000382303FB04235A7C8A4203D059742046D3
:10C54000FFF796F9002000E0052010BD0720FCE76A
:10C550009C40002010B5044651B1FEF715FF48B1CC
:10C56000054B382202FB04340020637C0B7010BDA5
:10C570000E20FCE70520FAE79C40002010B5044699
:10C5800060B9074B1A888A4206D05A79198042F05E
:10C5900001025A71FFF798F9204600E0052010BD0E
:10C5A0008640002021B128B9034B1B880B807047BF
:10C5B0000E207047052070478640002021B128B921
:10C5C000034B9B780B7070470E2070470520704717
:10C5D0008640002021B128B9034BDB780B707047EF
:10C5E0000E207047052070478640002010B5044695
:10C5F00061B1FEF7C9FE58B1064B382060431A18E6
:10C6000052884A801B5A0B80002010BD0E20FCE788
:10C610000520FAE79C40002073B5019112B310B1D8
:10C62000052002B070BD4FF6FF730F4913808B8950
:10C63000BDF80440BDF8065008462BB94E88AE42FE
:10C6400002D10988A1420AD0B0F84430002BE7D1CA
:10C65000438FAB42E4D1038FA342E1D10123138086
:10C660000020DEE70E20DCE79C40002070B5C1B161
:10C67000BAB1C0B90E4B158810801488AC4214D2E0
:10C6800093F83460F60706D59E8926B921F8140080
:10C69000148801341480383308B1002070BD0120A3
:10C6A000EBE70E20FAE70520F8E70920F6E700BFE0
:10C6B0009C40002010B5044651B1FEF765FE48B11C
:10C6C000054B382202FB04340020236B0B6010BDA5
:10C6D0000E20FCE70520FAE79C40002070B50646D6
:10C6E000FEF752FEE0B1382575430E4C002205F1ED
:10C6F0001400114620442C44FEF7B0FC304600F0F4
:10C70000BBF9E08801F0DEF800254FF0FF3330463A
:10C71000636065746582A575FFF7AAF8284670BD49
:10C720000520FCE79C400020112837B505461CD8A1
:10C730000DF106010020FFF7AFFE28B9BDF8063065
:10C74000AB4201D1FFF7CAFF0DF106010120FFF74F
:10C75000A3FE044658B9BDF80630AB4202D1012011
:10C76000FFF7BCFF204603B030BD0724FAE70024E2
:10C77000F8E700002DE9F04F474BB3F8702085B083
:10C7800006469B4612B978460EF0A2FB434B424C3C
:10C79000019301224FF6FF7700251A7006F57A788B
:10C7A000ABF872704FF02C09AA4694F84030C3B130
:10C7B000236BA3EB0803002B17DA84F840A0BBF827
:10C7C0007030013BABF8703003A9208BFFF772FF8C
:10C7D00010B178460EF07CFB636B0399208B01222D
:10C7E00098472C343DBB0125DFE7A36BA3EB080280
:10C7F000002A41DAABF8725004F11C01208BFFF7DC
:10C8000069FB30F008030CD1D4E90E231A445B0015
:10C81000A263E363226BA36BD31A002BE1DAA2635A
:10C82000DFE7042822D12C2303FB05B5AB6B03F50E
:10C830001C434033AB63BBF8703053B3BBF872306A
:10C84000012B02D978460EF043FBBBF872302C2244
:10C8500002FB03B39B6B9A1B48BFF21ACBF80C2068
:10C86000019A0023137005B0BDE8F08F0F28DAD0CD
:10C8700078460EF02DFBCDE7BBF87220BA4205D00A
:10C8800009FB02B2926B9B1A002BAADAABF872502A
:10C89000A7E7CBF80C30E3E72C4100202A41002029
:10C8A00038B52C4C2C2303FB0043054693F840304D
:10C8B00013B978460EF00CFBB4F8703013B9784613
:10C8C0000EF006FB2C2202FB0542002382F84030CA
:10C8D000B4F87030013B9BB2A4F87030A3B3B4F845
:10C8E0007230AB4235D1926B1B4B134494F840200D
:10C8F000EAB1A26BD11A0029B8BF13464FF6FF72F6
:10C90000B8BF002294F86C10A1B1616ECB1A002B55
:10C9100010DA0123A4F87230B4F872300D482C22DA
:10C9200002FB0344A16BBDE8384004F0C8BB4FF6DE
:10C93000FF72E7E74FF6FF739A42A4F87220EBD13B
:10C9400078460EF0C5FAE7E70248BDE8384004F043
:10C95000A3BB38BD2C410020008793030128F8B504
:10C9600005460E46174602D978460EF0B1FA05F094
:10C970009FF8134B93F8402012B11A8BAA421DD096
:10C9800093F86C20B2B1B3F84420AA4212D101202E
:10C990002C2404FB00343388A28D9A420AD1E28D04
:10C9A00073889A4206D1FFF77BFF636B00223946FA
:10C9B00028469847BDE8F84005F0BAB80020E7E7F8
:10C9C0002C41002010B5064C74220021204611F0A5
:10C9D00011F8044BA360044B00221A7010BD00BF75
:10C9E0002C41002075C702002A41002073B51F4C5E
:10C9F00005F05EF8B4F870302BB100232046A4F89F
:10CA0000703004F049FB94F840307BB1258B184816
:10CA1000666B00212C2210F0EDFF01A92846FFF7DC
:10CA200049FEF0B9022201992846B04794F86C30CB
:10CA30009BB1B4F844500F48246E00212C2210F012
:10CA4000D9FF01A92846FFF735FE10B178460EF050
:10CA50003FFA022201992846A04705F069F802B082
:10CA600070BD78460EF034FADCE700BF2C410020A0
:10CA70004441002070410020012873B505462DD89F
:10CA8000174C05F015F894F8403013B1238BAB42E6
:10CA900020D094F86C30FBB1B4F84430AB421BD1D9
:10CAA00001263046FFF7FCFE01A92846FFF702FEEB
:10CAB00010B178460EF00CFA2C2303FB0644022238
:10CAC000636B019928469847002405F031F8204609
:10CAD00002B070BD0026E4E70524F6E70524F6E77A
