:02000002F0000C
:10000000FCFF012079130F00A1130F00A3130F00B1
:10001000A5130F00A7130F00A9130F000000000085
:10002000000000000000000000000000AB130F0003
:10003000AD130F0000000000AF130F00B1130F004D
:10004000B3130F0025200F00B3130F00B3130F00DD
:10005000B3130F00B3130F00B3130F00B3130F004C
:10006000B3130F00B3130F00B3130F00B1210F0030
:10007000B3130F00B3130F00B3130F00B3130F002C
:10008000B3130F00B3130F00B3130F00B3130F001C
:10009000B3130F00B3130F00B3130F00B3130F000C
:1000A000B3130F00B3130F00B3130F00B3130F00FC
:1000B000B3130F00B3130F00000000000000000096
:1000C000B3130F00B3130F00B3130F00B3130F00DC
:1000D000B3130F00B3130F00B3130F00B3130F00CC
:1000E000B3130F00B3130F00B3130F000000000091
:1000F00000000000B3130F0000000000B3130F0056
:1001000000000000000000000000000000000000EF
:1001100000000000000000000000000000000000DF
:1001200000000000000000000000000000000000CF
:1001300000000000000000000000000000000000BF
:1001400000000000000000000000000000000000AF
:10015000000000000000000000000000000000009F
:10016000000000000000000000000000000000008F
:10017000000000000000000000000000000000007F
:10018000000000000000000000000000000000006F
:10019000000000000000000000000000000000005F
:1001A000000000000000000000000000000000004F
:1001B000000000000000000000000000000000003F
:1001C000000000000000000000000000000000002F
:1001D000000000000000000000000000000000001F
:1001E000000000000000000000000000000000000F
:1001F00000000000000000000000000000000000FF
:1002000010B5054C237833B9044B13B10448AFF350
:1002100000800123237010BD7C000020000000003E
:1002200048260F0008B5034B1BB103490348AFF341
:10023000008008BD000000008000002048260F005C
:10024000154B002B08BF134B9D46A3F5803A0021A8
:100250008B460F461348144A121A02F075F80F4BDA
:10026000002B00D098470E4B002B00D09847002061
:10027000002104000D000D48002802D00C48AFF307
:10028000008002F02FF82000290001F0CCFD02F0E0
:1002900015F800BF00000800FCFF0120000000006E
:1002A000000000007C0000205C0400200000000032
:1002B000000000000000000000000000000000003E
:1002C000C3F10803DB0070B50133002403A500BFB0
:1002D0005B1920C940CAAD1920C0184720C940CABF
:1002E000754120C020C940CA754120C020C940CAFC
:1002F000754120C020C940CA754120C020C940CAEC
:10030000754120C020C940CA754120C020C940CADB
:10031000754120C06441204670BD00BF0000000050
:10032000C3F10803DB0070B50133002403A500BF4F
:100330005B1920C940CAAD1B20C0184720C940CA5C
:10034000B54120C020C940CAB54120C020C940CA1B
:10035000B54120C020C940CAB54120C020C940CA0B
:10036000B54120C020C940CAB54120C020C940CAFB
:10037000B54120C06441B4FA84F0400970BD00BFAB
:100380002DE9F041013B00249B0025462646A4466A
:100390005FF0000E03E05FEA0C0EBEEB030EBCEB59
:1003A0000E0752F8078051F80E70A7FB0878E41981
:1003B00055EB080556F100061EF1040E9E4501DCC2
:1003C000E645ECDD40F80C402C46354600261CF195
:1003D000040C9C45DCDDBCEB430FDCDD40F80C403D
:1003E000BDE8F081002310B51C465AB2914200DCF2
:1003F00010BD40F823400133F7E710B500231A463B
:100400005CB2A14203DCB2FA82F0400910BD50F8A0
:10041000234001332243F3E74A11012350F822001D
:1004200001F01F0103FA01F108407047013910B5CE
:1004300049B2041D0A06CBB204D4013954F8212074
:10044000002AF7D001335BB273B103F18042013A65
:1004500050F82220002022B9013B00EB431318B2D0
:1004600010BD52080130F6E71846F9E710B5002331
:100470005CB2A24200DC10BD51F8234040F823409A
:100480000133F5E710B5013A52B2130601D5002049
:1004900010BD50F8224051F822309C4205D802F19C
:1004A000FF32F2D24FF0FF30F2E70120F0E700EB2D
:1004B00081010023884200D3704751F8042D43EA9C
:1004C00052030B60D307F5E770B59DF910401E4647
:1004D00023460546FFF7F4FE30B92246294630464A
:1004E000FFF7D0FF012807D0234632462946284689
:1004F000BDE87040FFF714BF70BD70B59DF91040A6
:100500001E4623460546FFF70BFF38B12346324609
:1005100029462846BDE87040FFF7D2BE70BD2DE9E0
:10052000F04FB5B004AC9DF9F8501F4681462B46FC
:100530002046FFF725FF24AB29463846CDE9023493
:10054000FFF774FFC0EB851004B2002C2646B8BF3D
:1005500004F11F06634246F3471603F01F0304F03D
:100560001F0814A858BFC3F100083146FFF73AFF2F
:10057000B8F1000F30B22DDD14AB002203EB800088
:10058000C8F1200C1346AB4219D32FB27B00019364
:1005900014AB03EB870705F1FF3834AB012603EBFF
:1005A0008808002C54DA34AB03EB86062A4656F84A
:1005B000C81C4846FFF75AFF35B0BDE8F08F57F822
:1005C000236006FA08F10A4340F8042B013326FAA7
:1005D0000CF2D8E714AB2A46394603EB8000FFF74C
:1005E00045FFD2E70FFA82FE5AF8C83C53F82EB006
:1005F00034AB03EB8202013052F8803C0B44BBEB7E
:10060000030334BF012200229B4518BF11465CF84A
:10061000C82C42F82E30019B42B29A42E2DB731A98
:100620005E42294614A85E41FFF741FF34AB03EB5D
:100630008503294653F8802C58F8803C384643EA15
:10064000C273013C48F8803C24B2FFF730FFA8E7B2
:1006500034AB0020C6F1010C014603EB860A03EB24
:100660008C0CD8E730B51C4691B0054693F90030A4
:100670006846FFF785FED4F8B030694628469847AB
:1006800011B030BD13460A46FFF7ECBFF0B591B08C
:100690000E461C220021074601A801F055FE012448
:1006A0001C22002109A8009401F04EFE31466A4642
:1006B00011F9045B08942B466846FFF701FE2946B2
:1006C0006846FFF7B3FE013804B2012C06DC2A4667
:1006D00008A93846FFF7CAFE11B0F0BD08A90846C0
:1006E0003246FFF7CFFF21466846FFF795FE28B157
:1006F00008A933463A460846FFF7B4FF013C24B246
:10070000E3E773B5044615460E46FFF7BBFF2B46DD
:10071000324621462046FFF7A5FF0823009305F146
:1007200084022B1D21462046FFF7CEFE02B070BD8D
:10073000F8B50A4604460D1F061F01F11C070023E9
:1007400040F2D13C184655F8043F0021ECFB030170
:10075000AF4246F8040F0B46F4D12162211D082355
:100760000846FFF7ADFD6062F8BD000070B590B0BF
:100770000E46044608216846FFF734FE082108A803
:10078000FFF730FE06F120016846FFF7D1FF08238E
:100790006A4631462046FFF793FD0821054630465C
:1007A000FFF720FE08A9FFF7C3FF324608232146C2
:1007B0002046FFF785FD0D4E054475B908220B490B
:1007C0002046FFF75FFE002805DD0823074A214683
:1007D0002046FFF7A5FD10B070BD08233246214624
:1007E0002046013DFFF79CFDE7E700BF20240F00F6
:1007F000F0B5154689B01C4607460E461A462946EE
:100800006846FFF73FFF23466A4639463846FFF7FA
:1008100029FF23462A4669466846FFF723FF2346F9
:100820006A4631463046FFF71DFF09B0F0BD2DE99D
:10083000F0438BB01446129D15F9046B00961F46C9
:10084000804689462B460246214602A8FFF755FE00
:1008500002A9129A0846FFF715FF129B02AA414609
:100860004046FFF7FFFE129B02AA21462046FFF7F3
:10087000F9FE2B464A46394638460096FFF73DFEBC
:10088000129A394602A8FFF7FDFE02A92B464246FE
:1008900008460096FFF731FE02A92B46224608467D
:1008A0000096FFF72AFE2B46424621462046009638
:1008B000FFF723FE129B224649464846FFF7D2FE29
:1008C0002B4602AA414620460096FFF716FE129BD1
:1008D000224639463846FFF7C5FE2B464A4639467A
:1008E00038460096FFF709FE324602A92046FFF778
:1008F000BDFD0BB0BDE8F083F8B50E46D11C48BF76
:10090000911D144641F387010546671EFFF76AFDF6
:100910000022A24200DBF8BDBB1AB15C23F0030049
:1009200003F00303DB0001FA03F3295819432950AC
:100930000132EEE72DE9F0471F46B3F90230894650
:1009400013F11F0148BF03F13E014D11D91D48BFEE
:1009500003F10E01CC1094424FFA85F828BF1446DB
:1009600041460646FFF73EFD22464946FFF7C4FFD3
:10097000B7F90220E40094421FD9A41A06EB8501BE
:100980000022C4F120058E420ED324374246314660
:100990003846FFF777FD01280FD043463A463046E8
:1009A000BDE8F047FFF7BCBC51F8040D20FA04F392
:1009B00013430B6000FA05F2E5E7BDE8F08770B578
:1009C000036813F001050646144605D013460A468F
:1009D0000146FFF775FC054621463046FFF767FDE7
:1009E00045B104F18042013A56F8223043F0004309
:1009F00046F8223070BDF0B50F46A1B00646194644
:100A0000384615461C46FFF7F8FC20B13046FFF784
:100A1000E9FC21B0F0BD224639466846FFF726FDC5
:100A2000294608A8FFF722FD10A82146FFF7DAFCA7
:100A3000012318A81093FFF7D5FC224608A96846A1
:100A4000FFF720FD28B9224610A93046FFF70EFD1A
:100A5000DFE7009BDA0709D421466846FFF727FD48
:100A60002246294610A8FFF7AAFFE6E7089BDB0706
:100A700007D4214608A8FFF71AFD2246294618A8E0
:100A8000F1E7002823461CDD08AA69466846FFF7FF
:100A900047FC21466846FFF70AFD224618A910A820
:100AA000FFF7F0FC002805DA10A923462A4608467D
:100AB000FFF706FC10A9234618AA0846FFF730FCEA
:100AC000CEE708A96A460846FFF72AFC214608A88F
:100AD000FFF7EDFC224610A918A8FFF7D3FC002869
:100AE00005DA18A923462A460846FFF7E9FB18A9A4
:100AF000234610AA0846FFF713FCBEE72DE9F04392
:100B0000054693B00C461046082117461E46FFF7CF
:100B100074FC002870D1324621460AA8FFF7B2FDC6
:100B200033460AAA294602A8FFF79CFD3246294609
:100B30002846FFF7A7FD0AA908463246FFF7A2FD9F
:100B40004FF008083A46384633462146371DFFF72E
:100B500089FD3B462A4629462046CDF80080FFF70E
:100B6000B3FC3B46CDF800802A4621462046FFF7DD
:100B7000ABFC2368DB0742D543463A462146204674
:100B8000FFF79EFB414681462046FFF790FCE06957
:100B900040EAC970E0614FF0080832462146284615
:100BA000FFF770FD3B460DEB080229462846CDF8BD
:100BB0000080FFF7A2FC3B460DEB080229462846C1
:100BC000CDF80080FFF799FC0DEB080108463B4685
:100BD0002A46CDF80080FFF790FC33460DEB080263
:100BE00021462046FFF73EFDCDF800803B460AAA8D
:100BF00021462046FFF781FC13B0BDE8F083414653
:100C00002046FFF754FCC6E7004870471C240F003D
:100C10002DE9F04FFDB01D46869E0592B6F90230D3
:100C200096F9004013F11F0748BF03F13E0747F351
:100C3000471707F1FF3924AB4FF0000B43F829B0F9
:100C40007CAB03EB8902804642F8C0BC42F8A0BCF2
:100C50008A4696F9012001466CA8FFF74DFEA300D5
:100C60000793A2006CAB134496F901200493184635
:100C700008EB0201FFF740FE294696F901204CA837
:100C8000FFF73AFE96F9012054A8A918FFF734FEA1
:100C900021464CA8FFF7B1FB0546002840F03481FF
:100CA00054A8FFF7AAFB8346002840F02B8106F1E9
:100CB00024033A464CA918460393FFF7E3FB0128A7
:100CC00040F022813A4654A90398FFF7DBFB012844
:100CD000069040F019811CAD0DF130083B46039A97
:100CE00054A92846FFF787FE514640463346059AE9
:100CF00048F829B0FFF71EFE41464046039B009787
:100D00002A46FFF70CFC0DF5B879039B00972A469D
:100D10004CA914A8FFF703FC224648466CA9FFF72C
:100D2000A5FBA30009EB030A50460499FFF79EFBBD
:100D300006F14403194634A80493FFF797FB049B7C
:100D4000A10059183CA8FFF791FB331D494634AA6E
:100D5000284600940593FFF7D0FB53464A463CA92A
:100D600034A80096FFF763FD2346321D2946284626
:100D7000FFF741FE2A46514648463346FFF738FD05
:100D8000049B099339466CAB4046CDE90A39CDF84E
:100D900020B0FFF74BFB3946814614A8FFF746FB0E
:100DA0008145B8BF81461FFA89F909F1FF331BB2AB
:100DB000194640460493FFF72FFB049B10F10008EF
:100DC000194614A818BF4FF00108FFF725FB0028AB
:100DD00014BF0223002348EA03080DF1200A22462B
:100DE0005AF8288024A84146FFF740FB0DF1B00ACD
:100DF000A30008EB03015046FFF738FB21462846C5
:100E0000FFF7F0FAA9F10208069B2B600FFA88F8A9
:100E10000DF190090495B8F1000F22DADDE9041212
:100E200023460846FFF7E7FD3346049A51464846F5
:100E3000FFF7DEFC3A4649460398FFF723FB0128FB
:100E400004D03B46039A4846FFF76AFA013C64B275
:100E50004CAA23064DD5BBFA8BF040097DB0BDE806
:100E6000F08F049AD6F8A450334651464846A84716
:100E700041460CA8FFF7D0FA031C18BF01234146D6
:100E800014A80693FFF7C8FA069B002814BF022295
:100E90000022134308AA52F823302BB322461946E6
:100EA00034A80693FFF7E2FADDE906313CA85918A9
:100EB000FFF7DCFA3346049A3CA934A8FFF798FC04
:100EC000059B009434AA494644A8FFF716FB5346F5
:100ED0004A463CA934A80096FFF7A9FC049933467A
:100EE00044AA0846FFF7BEFB08F1FF380FFA88F85E
:100EF00091E759F8243052F824104B404BEA030B89
:100F0000013CA6E72846A9E75846A7E7030E0B7061
:100F1000030C4B70030A8B70C87070472DE9F04FBB
:100F2000D0E902C395B0D0E9006E0293D0E9068300
:100F3000D0E904590393464B019300240F2C56D853
:100F400051F8042B04AB12BA43F82420019B53F848
:100F500004AB01934FEAF52383EAB51328EA0507AA
:100F600005EA090B83EA756387EA0B071F445744B8
:100F7000039B3A4413448EEA0C029A464FEA7637B2
:100F80000EEA0C0332405A4087EAB607029B87EA12
:100F9000B65701343A445344402C1F465244CDE9DD
:100FA00002C81DD103681344036043681E4483686C
:100FB000466073448360C3686344C36003691F442D
:100FC000436907611D44836945614B448361C3697B
:100FD0004344C361036E0133036615B0BDE8F08F6F
:100FE000C846F446A946B6463D461646A6E7A31EA1
:100FF00014AA03F00F0302EB83030DF1500B53F817
:1010000040ACA4F10F0303F00F0302EB830304F0E1
:101010000F0753F8402CE31F03F00F030BEB870778
:101020000BEB830353F840BC57F8403C9B444FEA1A
:10103000FA4383EA7A4383EA9A235B444FEAB24B4A
:101040008BEAF21B8BEAD2021A4447F8402C7DE768
:10105000D0240F0010B568220021044601F074F975
:101060000A4B0B4A0B490C48C4E900230B4BC4E95B
:1010700002130B4BC4E904030A4BA36103F174533D
:10108000A3F52303A3F69243E36110BD85AE67BBCE
:1010900067E6096A72F36E3C7F520E513AF54FA52E
:1010A0008C68059BABD9831F1FB5074B0290CDE918
:1010B00000230B46402200F16401203000F0CBF801
:1010C00005B05DF804FB00BF1D0F0F002DE9F041D6
:1010D0000446406E236E40220D460021E2FB0301D0
:1010E000CE0046EA5076C700083088B000F03F00D6
:1010F000101A274B03934FF000080290802304F14D
:10110000640104F120000494CDE9008800F0DFF8C8
:101110003FBA330A082206A920468DF81B60ADF8B5
:1011200018808DF81A300797FFF7BEFF666E0EB174
:1011300001F0BCF829462068FFF7E8FE291D606829
:10114000FFF7E4FE05F10801A068FFF7DFFE05F1F7
:101150000C01E068FFF7DAFE05F110012069FFF7E6
:10116000D5FE05F114016069FFF7D0FE05F1180105
:10117000A069FFF7CBFE05F11C01E069FFF7C6FE91
:1011800068223146204601F0DFF808B0BDE8F08162
:101190001D0F0F002DE9F84F0D9F884616461D467E
:1011A000DDE90A4A814610B10868904201D301F096
:1011B0007DF80BB9002CFAD1BAF1000FF7D0002F4F
:1011C000F5D0E8B1E4B1331AA34228BF23461A464A
:1011D000294648449B4601F0A9F8D8F800200BEBBB
:1011E0000203B3425D44A4EB0B04C8F8003007D1FE
:1011F000494638464CB90C9B98470023C8F8003044
:10120000B44204D294B9BDE8F88FD047F5E7D8F8D6
:101210000030002BCBD1B4422946384604D10C9B78
:1012200098473544A41BEBE7D047FAE7D8F800000D
:10123000371AA74228BF27463A462946484401F0B4
:1012400075F8D8F800303D44E41B1F44B742C8F895
:101250000070D7D3ABE730B585B0DDE90945CDE9FE
:1012600002450194089C0094FFF794FF05B030BD3F
:101270002DE9F84F0A9E81460F4690469A464FF058
:10128000000B0EB9BDE8F88F3D68A8EB0504B44229
:1012900028BF3446BBF1000F05D12246514609EB69
:1012A000050001F051F81DB9A04508BF4FF0010B32
:1012B0002544454507D1DDE90B30494698470023D1
:1012C0003B60361BDDE73A6822443A60F9E72DE9D6
:1012D000F04F87B0DDE91245012C0746884691465C
:1012E0009DF840B0149E8DF817301BD044B3022CEB
:1012F0004FF0010A27D00DF11703CDE90156CDF8C3
:1013000000A0FFF7A8FF9DF844305B45CDE90156EA
:101310002AD0023C00945B464A4641463846FFF7D5
:10132000A7FF18E09DF817309DF844700094CDE9B0
:1013300001567B408DF817300DF11703FFF78BFF37
:1013400007B0BDE8F08FCDE90156CDF800A00DF152
:101350001703FFF780FFCDE90156CDF800A011ABD0
:101360004A4641463846E9E7013C00944A46414630
:101370003846FFF77DFFE3E70649074A074B9B1A0C
:1013800003DD043BC858D050FBDC00F021F8FEF729
:1013900057FF000054260F00080000207C000020AA
:1013A000FEE7FEE7FEE7FEE7FEE7FEE7FEE7FEE715
:1013B000FEE7FEE7054B1868043B1B68082B06BFD9
:1013C000B0FA80F040090020704700BF34010010DF
:1013D00008B5664B1B68082B50D14FF080430022A4
:1013E000C3F80C21C3F81021C3F838254FF0805200
:1013F00003F54043D2F80414C3F82015D2F80814BA
:10140000C3F82415D2F80C14C3F82815D2F8101418
:10141000C3F82C15D2F81414C3F83015D2F81814E8
:10142000C3F83415D2F81C14C3F84015D2F82014B0
:10143000C3F84415D2F82414C3F84815D2F8281478
:10144000C3F84C15D2F82C14C3F85015D2F8301448
:10145000C3F85415D2F83414C3F86015D2F8381410
:10146000C3F86415D2F83C14C3F86815D2F84014D8
:10147000C3F86C15D2F84424C3F87025FFF79AFF1F
:1014800010B13B4B3B4A1A60FFF794FF18B13A4B3F
:10149000FB22C3F81825FFF78DFF48B13749384BB9
:1014A0000A681B6822F00F0203F00F0313430B605E
:1014B000FFF780FF18B1334B4FF400721A602B4BCB
:1014C0001B68082B09D14FF08043D3F80024D207C2
:1014D00044BF6FF00102C3F800242B4AD2F88830D1
:1014E00043F47003C2F88830BFF34F8FBFF36F8FA0
:1014F0004FF01023D3F80022002A03DBD3F8043284
:10150000002B2FDA214B0122C3F80425D3F8002445
:10151000002AFBD04FF010221221C2F80012D3F89B
:101520000024002AFBD04FF010231222C3F804221B
:10153000164B1A46D3F800140029FBD00021C3F83B
:101540000415D2F80034002BFBD0BFF34F8F0E49A7
:101550000F4BCA6802F4E0621343CB60BFF34F8FB6
:1015600000BFFDE70B4B0C4A1A6008BD30010010AC
:101570008C5600404881030000F00040E40E00401B
:10158000580200104096024000ED00E000E00140EB
:101590000400FA05080000200090D00372B6094B41
:1015A0001B68DB0700D500BEBFF34F8F0649074B12
:1015B000CA6802F4E0621343CB60BFF34F8F00BFF1
:1015C000FDE700BFF0ED00E000ED00E00400FA05EB
:1015D00000B583B002900091019244F2010071467F
:1015E0006A46FFF7DBFF03B000BD0000014B01229C
:1015F0001A707047EE0300202DE9F341054669B1EA
:1016000062B158B100F02AFE18B14F4A8221FFF7AB
:10161000DFFFAE78012E10D0022E28D04B4B1B7866
:1016200043B94B4B0093684642F20273ADF8043065
:1016300000F0CCFC02B0BDE8F081464F3B78002BB7
:10164000ECD1454C6A682260AB68A360636805F121
:101650000C019B1A04F110004022E36000F066FECA
:101660003E4B22681A60A2683E705A60D6E7394B3A
:101670001B78002BD2D06A783848D5F80330053A69
:10168000002104464668002E3AD00768BB4237D393
:101690003E44B34234D2C8002618BFD054F831704B
:1016A0007168BB4232D18A42B8D8891A134471603A
:1016B0002350294ED5F80300F36818447368984204
:1016C00009D3B66811183344994204D8C2F387028B
:1016D000E91D00F05FFB002304EBC3025268002AFF
:1016E0009CD10133402BF7D100F0CCFD20B1164A3C
:1016F0004FF48771FFF76CFF144B01221A708DE7CE
:101700000131402900F10800BCD187E702EB030C4E
:1017100039448C4582D8A3EB070E002104EBC108A5
:10172000D8F8043063B944F83170C8F804E023589D
:10173000716844F800C00B44A3EB0C037360B8E776
:1017400001314029EAD169E7D6250F009800002031
:10175000EC020020EF0300209C000020EC000020A1
:1017600010B5064C4FF47A4044F00104A0472346DC
:101770004FF47A40BDE81040184700BFD0250F0055
:1017800007B5074B1B7843B9064B0093684642F2F6
:101790000273ADF8043000F019FC03B05DF804FBEF
:1017A00098000020EC02002008B50D4B586000F0B6
:1017B0000BFD20B10B4A4FF48B71FFF709FF0A496B
:1017C000142000F02BFD20B1064A40F21711FFF75C
:1017D000FFFE002205490648BDE8084000F06ABB4C
:1017E0009C000020D6250F00ED150F00F9150F0005
:1017F00081170F00014B1878704700BF9800002038
:10180000014B1878704700BFEE0300200048704776
:101810009C0000202DE9F04FB9B015464B228DF801
:101820000D200122CDE9045180468DF80E20894615
:101830004022194606A800F079FD002211462048F2
:1018400000F038FB03274FF0000BA5EB080503ABB6
:1018500001A801938DF808B000F0B8FBFFF780FFF6
:1018600001A800F0B3FBFFF77BFF75238DF859301B
:1018700002238DF85A3016AB09EB080A019344464F
:101880007026544504D3013FE1D139B0BDE8F08F53
:10189000AAEB04036F2B9EBFDEB2731D8DF8593087
:1018A00021462B1932460DF15F00CDF85B3000F078
:1018B0003DFD01A800F08AFB3444FFF751FFE0E74B
:1018C00081170F0018DF704784B008B50DF1080CC0
:1018D0008CE80F0001214FF47F2000F079FA02A973
:1018E00058224FF47F2000F055FABDE8084004B0BC
:1018F000704730B54FF47F25A9B0D5E9031012AC7D
:1019000000F082FA29465822204600F00FFD0123FC
:101910008DF84C3016A90023482268468DF85D30BA
:1019200000F004FD94E80F00FFF7CEFF29B030BDB2
:1019300000B5A9B012AC054658224FF47F212046CD
:1019400000F0F4FC4FF0FF33129304238DF84C3079
:1019500016A90123482268468DF85E308DF85C5048
:1019600000F0E4FC94E80F00FFF7AEFFBFF34F8FE9
:101970000549064BCA6802F4E0621343CB60BFF32B
:101980004F8F00BFFDE700BF00ED00E00400FA0547
:1019900030B54FF47F23A9B01869FFF705FFFFF7B3
:1019A00029FF30B9FFF72CFF0028F8D00120FFF7FE
:1019B000BFFFFFF72BFF12AC054658224FF47F21E3
:1019C000204600F0B3FC294602238DF84C3051F834
:1019D000103B149340220DF15F0000F0A7FC16A904
:1019E0004822684600F0A2FC94E80F00FFF76CFF65
:1019F00029B030BD30B54FF47F25A9B00F4AD5E9E5
:101A0000031000F021F9B0B112AC2946582220464B
:101A100000F08CFC03238DF84C3016A901234822DA
:101A200068468DF85D3000F081FC94E80F00FFF708
:101A30004BFF29B030BD0220FFF77AFF17F00F00EF
:101A4000F0B54FF47F23ADB01A791C460AB9FFF701
:101A500050FF2379012B01D1FFF79AFF4FF47F2527
:101A60002B79022B01D1FFF7C5FF2879032855D127
:101A70002E6816AC1EBB58224FF47F21204600F082
:101A800055FC04274FF0FF3348221AA968461693E5
:101A90008DF85C708DF86C6000F048FC94E80F00E5
:101AA000FFF712FF12962B691393EB689B08013323
:101AB00012A81493FFF706FF3846FFF739FF012EEF
:101AC000FBD1AE68B6F5805F1BD258224FF47F2160
:101AD000204600F02BFC4FF480531893EA68324400
:101AE000A2F5805219922B6903F580539B1B482263
:101AF0001AA968461A9300F019FC94E80F00FFF742
:101B0000E3FE4FF47F24D4E9020100F07DF9D4E92B
:101B10000321A06800F080F90020CEE72DB0F0BDD1
:101B200010B54FF47F231C461A790AB9FFF7E1FE7E
:101B30002379012B01D1FFF72BFF4FF47F231C46A4
:101B40001A79022A01D1FFF755FF2379032B02D11D
:101B50000020FFF7EDFE10BD08B54FF47F20437D58
:101B600013B90520FFF7E4FED0E90221024B00691A
:101B7000FFF750FE0020F5E717F00F0030B5A9B0D1
:101B80004FF47F2512AC58222946204600F0CEFBA8
:101B9000AB7D012B12D10223482216A968468DF88D
:101BA0005E3000F0C3FB94E80F00FFF78DFE4FF4AA
:101BB000805029B0BDE8304000F020B8002BF6D0AE
:101BC0000023E9E74FF47F231868704718DF704758
:101BD0004FF080520021D2F80C3103F500239B0214
:101BE00043F8041CD2F80C31034A03F500239B028E
:101BF00043F8082C704700BFFECAADAB1FB5EFF32A
:101C00000583104B4FF0FF32D0E90041C3F880202C
:101C1000C3F88021C3F88420C3F884210623CDE9CA
:101C200000306846FFF7D2FF002383F3148883F364
:101C3000108883F3118883F3138884F30888884716
:101C400004B010BD00E100E070B5A4B00E4605463A
:101C50000AA81446FFF7FEF9324629460AA8FFF7FC
:101C600023FA02A90AA8FFF731FAFEF7CDFF2346AF
:101C70000090202202A90448FEF7CAFF003018BFD6
:101C8000012024B070BD00BFEC250F008168202327
:101C9000013B21FA03F2D207FAD5012202FA03F33B
:101CA00083600023C0E90333704738B50546D9B1D6
:101CB000EFF3108472B6D0E902302A691A448242E6
:101CC00003D104B962B604240CE0013B0340D5E91A
:101CD000000202FB030000F029FBEB680133EB601C
:101CE00024B962B6204638BD0E24FBE70024F9E78C
:101CF00038B504460846EFF3108572B6D4E90331CF
:101D0000994203D105B962B60E250EE040B1A36831
:101D1000013B0B40D4E9001202FB031100F006FB6B
:101D200023690133236115B962B6284638BD002501
:101D3000FBE7F8B503461546084611B90E242046C0
:101D4000F8BDEFF3108472B6D3E90367F61BB24215
:101D500003D3002CF2D162B6F0E7D3E901213D4470
:101D600001391B68294002FB013100F0DFFA0CB990
:101D700062B6E4E70024E2E70022FFF7DABFD0E929
:101D80000320101A7047D0E90302131A5842584131
:101D900070470000830730B515D10C4B0124C3F800
:101DA000044501EB8202401A914203D10020C3F89E
:101DB000040530BD441851F8045B2560D3F8004495
:101DC000012CFBD1F0E71020F3E700BF00E0014059
:101DD000C0F30B0310B59BB90A4A0224C2F80445AC
:101DE000994200EB033403D10020C2F8040510BD72
:101DF000C2F80845D2F80044012CFBD10133EFE7CB
:101E00001020F4E700E001400B46C3F30B03090B7D
:101E100003B10131FFF7DCBF9308920718BF01330C
:101E20001A46FFF7B7BF10B5FFF7D2FE4FF0804359
:101E30000022C3F8002101221A60D3F80021002AF1
:101E4000FBD001220021C3F81825C3F804119A60C1
:101E50004FF080431C46D3F80421002AFBD0FFF743
:101E6000B1FE03280DD8DFE800F002020609FFF7F3
:101E7000E7FD002010BDFFF753FEFAE7FFF76CFE09
:101E8000F7E7D4F814343BB10123E3604FF080420C
:101E9000D2F81434012BFBD04FF08043D3F8082440
:101EA0002AB101225A60D3F80824012AFBD0FFF797
:101EB00065FEDEE73A4B2DE9F047064690460020E6
:101EC0000122C3F8FC0FC3F8FC2F0422C3F80C2531
:101ED0000322C3F810256422C3F80825C3F824059B
:101EE000D3F824252F4D42F08E02C3F82425D3F8D1
:101EF00028452D4A44F42A44C3F82845C3F81C2534
:101F000002F1084202F5EB02C3F820250222C3F8D1
:101F10002C05C3F830254FF48472C3F81405C3F8B8
:101F20001425224AC3F81805C3F8182540F25B624D
:101F3000C3F8382540F20312C3F834251C4AC3F80D
:101F40003C259422C3F844252A78032A0F4607D15A
:101F50001848194A08238360C0E90023FFF796FE5A
:101F600002242C700E4B154D0022C3F80C21C5F82D
:101F700080412C60124BDFF850901F60114B0D48D0
:101F8000C9F80060C3F80080FFF7FDFE20B1D9F862
:101F90000030BDE8F0471847C5F80041BDE8F087BC
:101FA000001000400C00002000D6BE89850003020E
:101FB00055555500F00300200404002000E100E026
:101FC000480400204C0400204404002008B50146C9
:101FD00068B10948FFF769FE58B9EFF3108372B68C
:101FE000064A0221C2F8001103B962B608BD0E20EC
:101FF000FCE70420FAE700BFF003002000E100E066
:10200000064B0022C3F800224FF0FF32C3F808232A
:1020100001221A61024B02221A7070470010004020
:102020000C0000202DE9F041594CD4F80C3186B059
:102030002246002B65D0D4F80064D4F80C74D4F890
:102040001C31002B56D00023C4F81C31D4F848456D
:10205000E4B20023C2F80C3103A94E48FFF748FE52
:1020600018B14D4AEA21FFF7B3FA9DF81030013B51
:10207000012B41D8464BD3F80834012B08D1474BEC
:1020800003981D68311C23463A4618BF0121A84712
:10209000434B02221A7001A93E48FFF76DFE00284B
:1020A00072D13B4C1323C4F800329DF809300A2B3F
:1020B00056D89A1C5200C4F8082503F07F02344B0E
:1020C0003749C3F85425019AC3F804250020082293
:1020D000C3F80423C3F80C019DF808400122002C2A
:1020E0004CD1C3F82C459DF80A00C3F80C051A60C2
:1020F0000A7014E06424ACE72A4B03981B689847E5
:10210000C6E72448234F254EFFF739FEA046054673
:10211000012D07D8224B1B78023B012BBBD906B0FF
:10212000BDE8F08103A93846FFF726FE01460028E6
:10213000F0D19DF81030022BECD13846FFF7D8FDD6
:10214000FFF75EFFD8F850150029FBD1C8F80C1135
:1021500064234FF0FF3203983468A047013DD7E76E
:10216000242B01D8DA1CA5E70F4A07CA06AD05E9FA
:10217000070005EB830252F8A02C9CE70224C3F869
:1021800030455A600870CAE7084B1B689847C6E795
:1021900000100040F003002038260F004804002003
:1021A0000C0000204C0400202C260F0044040020CA
:1021B000034B0022C3F84021024B1B68184700BFA5
:1021C00000B000405404002010B5114A1078E0B966
:1021D000104B4FF0FF31C3F84813C3F8081340F613
:1021E000FF71C3F808154FF48031C3F84413C3F8E6
:1021F0000413094B4FF40061E024C3F8801183F805
:102200000B4319600123137010BD0820FCE700BFC9
:102210005004002000B0004000E100E010B50B4B7E
:102220001B7873B10A4A13785BB961B1094C21601C
:10223000094CC0000121C4F8400521601846117006
:1022400010BD0820FCE70720FAE700BF500400207B
:10225000510400205404002000B00040064B1B78BD
:102260003BB1064B1B7823B1054B01229A6000203D
:1022700070470820704700BF500400205104002020
:1022800000B00040064B1B7843B1064B1A782AB1C8
:10229000054A0121002051601870704708207047DE
:1022A000500400205104002000B0004008B5062072
:1022B00000F07AF8012000F0A3F8000008B5074B01
:1022C000044613B10021AFF30080054B1868836A00
:1022D00003B19847204600F093F800BF00000000CB
:1022E00044260F0070B50D4D0D4C641BA410002644
:1022F000A64209D10B4D0C4C00F084F8641BA410CD
:102300000026A64205D170BD55F8043B984701361A
:10231000EEE755F8043B98470136F2E774000020D9
:102320007400002074000020780000200A449142CC
:1023300000F1FF3300D1704710B511F8014B03F8DD
:10234000014F9142F9D110BD02440346934200D19E
:10235000704703F8011BF9E71F2938B504460D46FD
:1023600004D9162303604FF0FF3038BD426C12B120
:1023700052F821304BB9204600F030F82A46014689
:102380002046BDE8384000F017B8012B0AD0591C90
:1023900003D1162303600120E7E7002442F825401B
:1023A000284698470020E0E7024B01461868FFF7EF
:1023B000D3BF00BF1000002038B5074C00230546EE
:1023C00008461146236000F013F8431C02D123682D
:1023D00003B12B6038BD00BF5804002000F000B8E6
:1023E000024B58221A604FF0FF307047580400200B
:1023F000024B58221A604FF0FF30704758040020FB
:10240000FEE700BFF8B500BFF8BC08BC9E467047A9
:10241000F8B500BFF8BC08BC9E4670470820000114
:102420002FFCFFFFFEFFFFFFFFFFFFFFFFFFFFFF90
:10243000FFFFFFFFFFFFFFFFFFFFFFFFFFFFFFFFAC
:10244000414136D08C5ED2BF3BA048AFE6DCAEBA8D
:10245000FEFFFFFFFFFFFFFFFFFFFFFFFFFFFFFF8D
:102460009817F8165B81F259D928CE2DDBFC9B0218
:10247000070B87CE9562A055ACBBDCF97E66BE79B2
:10248000B8D410FB8FD0479C195485A648B417FDCB
:10249000A808110EFCFBA45D65C4A32677DA3A48B0
:1024A0000700000000000000000000000000000025
:1024B000000000000000000000000000000000001C
:1024C000FD0A0F008D060F0003070F006D070F00B8
:1024D000982F8A4291443771CFFBC0B5A5DBB5E98F
:1024E0005BC25639F111F159A4823F92D55E1CAB03
:1024F00098AA07D8015B8312BE853124C37D0C5591
:10250000745DBE72FEB1DE80A706DC9B74F19BC1D8
:10251000C1699BE48647BEEFC69DC10FCCA10C24C8
:102520006F2CE92DAA84744ADCA9B05CDA88F976AC
:1025300052513E986DC631A8C82703B0C77F59BF16
:10254000F30BE0C64791A7D55163CA066729291442
:10255000850AB72738211B2EFC6D2C4D130D3853DF
:1025600054730A65BB0A6A762EC9C281852C7292A1
:10257000A1E8BFA24B661AA8708B4BC2A3516CC7CF
:1025800019E892D1240699D685350EF470A06A1008
:1025900016C1A419086C371E4C774827B5BCB03457
:1025A000B30C1C394AAAD84E4FCA9C5BF36F2E68F5
:1025B000EE828F746F63A5781478C8840802C78C84
:1025C000FAFFBE90EB6C50A4F7A3F9BEF27871C687
:1025D0000338FDD870477372632F626C5F72616459
:1025E000696F5F68656C7065722E630052A82AC9B6
:1025F000FF415B317B6F05CE33E4CDB55275F351AE
:10260000756F3530976C61FD7B3C7A96B634CD287A
:10261000CD803863ECEABC262FAC0DA13E2ABC4429
:102620001A2D808BEDF408344E9B76660200000074
:102630001A000000500000007372632F7261646919
:0C2640006F2E630014000020000000005A
:08264C00F4DBFF7F0100000038
:102654000090D003030000001400002000000000DC
:102664000000000000000000000000000000000066
:102674000000000000000000000000000000000056
:102684000000000000000000000000000000000046
:102694000000000000000000000000000000000036
:1026A4000000000000000000000000000000000026
:1026B40000000000000000000000000025020F00E0
:0426C40001020F0000
:020000020000FC
:020000041000EA
:0410140000000F00C9
:0410180000F00E00D6
:04000003F00013797D
:00000001FF
